:03000000020800F3
:0C080000787FE4F6D8FD75815F020847A0
:100B22007265636570746F72206C696761646F0AC5
:100B32000073696E616C204C45447320656E766962
:050B420061646F0A0070
:100BA3000558E7E7E7E7E7C108015F00025D0000DA
:0A0BC1008FE7E5E630E1FBAFE72225
:020B7F00AE05C1
:100B8100C2E9120BC1AD07AF06120BC1D2E9AF0525
:010B91002241
:0C0BB400C2E9120BC1E4FF120BC1D2E930
:010BC0002212
:060A53008B108A118912CC
:100A5900C2E9120BC1AE07E4FDEDC395135017E4CB
:100A6900FF120BC1AB10AA11A9128D82758300EF79
:0A0A7900120A310D80E3D2E9AF0646
:010A83002250
:0B09DB007B007A007958750E057F2A1A
:0609E6008B0B8A0C890D49
:1009EC00C2E9120BC1AE07E4FDEDC3950E5018AB76
:1009FC000B050DE50DAA0C7002050C14F9120A1862
:0B0A0C00FF120BC10D80E2D2E9AF0623
:010A170022BC
:100B9200E4F520C208C2E87D0F7F20120B7FD2E865
:010BA2002230
:100AB1008E088F09C2E87D0E7F20120B7F1209DBA1
:100AC1007B007A00793D85090E7FA01209E6D2E804
:070AD100A204720550FA2295
:03004B0002088C1C
:10088C00C0E0C083C082C0D075D000C000C001C021
:10089C0002C003C005C006C0077F07120BB48F202F
:1008AC003006317B007A00792275131B7F61120AA6
:1008BC0053E4FD7FE2120B7FD2087F60120BB48FE2
:1008CC005FE55FD39420400C755F00E4FD7FE2127E
:1008DC000B7FC208300407E4FD7FE1120B7F30056B
:1008EC0007E4FD7FE1120B7F7D707F27120B7FD019
:1008FC0007D006D005D003D002D001D000D0D0D084
:06090C0082D083D0E0322E
:10099500C2E8D2EA7B007A007958750E057F3012DD
:1009A50009E61209DB7D017F22120B7FE4FD7F2121
:1009B500120B7FE4FD7F24120B7F7D287F25120B10
:1009C5007F7D077F26120B7F7D017F3C120B7F7D8C
:0609D500077F3D020B7FCD
:100B4700D2867FE87E03120B01C2867FE87E0312FE
:0E0B57000B01D2867FE87E03120B01C28622BC
:100A84007593B77594FF7595FFE4F59EF59FF597FB
:100A9400C2E8D2EAD2B9120995120B65D2AF120B91
:0D0AA40092120B477BFF7A0B7922020AD8D1
:10091200120A84208219753D01753E0A7F027E000B
:10092200120AB1120B92120AFD3082FD120AFD2048
:100932009424753D01753E0B7F027E00120AB112AE
:100942000B927BFF7A0B7933120AD8C286120AFD08
:100952003094FD120AFD3008BAE522B4012D7F0160
:10096200120BCB755D00755E017422255EF8E6FF01
:10097200120BCB055EE55E7002055DC39407E55D73
:100982006480948040E37F0A120BCBE4F520C20816
:0309920002091542
:100B6500C2ACD29CC29FD29E43878043D88075AACF
:0A0B7500F375BA03C299E4F5992262
:080BCB003099FDC2998F9922B7
:100AD8008B088A09890AAB08AA09A90A120A1860A8
:100AE80013050AE50A7002050914F9120A18FF121B
:050AF8000BCB80E2229F
:040AFD007F647E0094
:100B0100E4FDFCC3ED9FEC9E50167BFC7A01EB1BD0
:100B11008A8370011A458370F50DBD00010C80E3D5
:010B210022B1
:10080C00020912E493A3F8E493A34003F68001F2E7
:10081C0008DFF48029E493A3F85407240CC8C333ED
:10082C00C4540F4420C8834004F456800146F6DFBC
:10083C00E4800B0102040810204080900BA3E47E9E
:10084C00019360BCA3FF543F30E509541FFEE493B1
:10085C00A360010ECF54C025E060A840B8E493A378
:10086C00FAE493A3F8E493A3C8C582C8CAC583CAA3
:10087C00F0A3C8C582C8CAC583CADFE9DEE780BE5B
:010BB3000041
:100A1800BB010689828A83E0225002E722BBFE02DC
:090A2800E32289828A83E493220F
:100A3100F8BB010DE58229F582E5833AF583E8F0FB
:100A4100225006E92582C8F622BBFE05E92582C8A7
:020A5100F2228F
:00000001FF
