:030000000208DD16
:0C08DD00787FE4F6D8FD75810702080062
:1008B2007593B77594FF7595FFE4F59EF59FF597CF
:0808C2001208CAD2AF02087649
:100800001208B22082107D027F681208941208320A
:100810003082FD1208322094EA7F68120857BF0523
:1008200004B2868002B2831208323082FD1208328E
:0208300080D175
:040832007F647E0061
:10083600E4FDFCC3ED9FEC9E50167BFC7A01EB1B9E
:100846008A8370011A458370F50DBD00010C80E3A3
:01085600227F
:10087600D283C2867FE87E03120836C283D28612EE
:0E0886000836D283D286120836C283C286227A
:1008CA0043E20853E2FD43E20243E120E4F5D9435F
:0308DA00E2012216
:1008570043E210EF25E004F5DAE5E120E1FBE5E10D
:0E08670020E004D28380F7C283AFDA43E220A0
:010875002260
:1008940043E210EF25E0F5DAE5E120E1028DDAE547
:0D08A400E120E1047F0180027F0043E2209B
:0108B1002224
:00000001FF
