:0C0AE100055EE7E7E7E7E7C108016300F6
:0A0AEE008FE7E5E630E1FBAFE722F9
:020AA200AE059F
:100AA400C2E9120AEEAD07AF06120AEED2E9AF05AB
:010AB400221F
:0C0AD400C2E9120AEEE4FF120AEED2E9B9
:010AE00022F3
:060A0B008B098A0A890B29
:100A1100C2E9120AEEAE07E4FDEDC3950C5017E4EE
:100A2100FF120AEEAB09AA0AA90B8D82758300EFAA
:0A0A31001209E90D80E3D2E9AF06D7
:010A3B002298
:0B0958007B007A00795E7513057F2A92
:060963008B108A118912BD
:10096900C2E9120AEEAE07E4FDEDC395135018ABC8
:10097900100512E512AA117002051114F91209D015
:0B098900FF120AEE0D80E2D2E9AF067B
:010994002240
:100AB500E4F520C208C2E87D0F7F20120AA2D2E821
:010AC500220E
:100A3C008E0D8F0EC2E87D0E7F20120AA21209586D
:100A4C007B007A007940850E137FA0120963D2E8EF
:070A5C00A204720550FA220A
:03004B0002088C1C
:10088C00C0E0C083C082C0D075D000C000C001C021
:10089C0002C003C005C006C0077F07120AD48F2010
:1008AC003006317B007A007922750C1E7F61120AAA
:1008BC000BE4FD7FE2120AA2D2087F60120AD48FE9
:1008CC0063E563D39420400C756300E4FD7FE21272
:1008DC000AA2C208300407E4FD7FE1120AA2300527
:1008EC0007E4FD7FE1120AA27D707F27120AA2D0D5
:1008FC0007D006D005D003D002D001D000D0D0D084
:06090C0082D083D0E0322E
:10091200C2E8D2EA7B007A00795E7513057F301255
:1009220009631209587D017F22120AA2E4FD7F2188
:10093200120AA2E4FD7F24120AA27D287F25120A50
:10094200A27D077F26120AA27D017F3C120AA27DA8
:06095200077F3D020AA22E
:100A8A002082147540017F017E00120A3C120AB5C9
:080A9A007F2C7E01120A692283
:0E0AC600120A63C283120A65120A63C28322F7
:100995007593B77594FF7595FFE4F59EF59FF597EB
:1009A500120AC6C2E8D2EAD2B9120912D2AF120AA5
:1009B500B5120A8A300807E522147002B283E4F5FD
:0B09C50020C2087F64FE120A6980E671
:060A6300D2837FE87E0350
:100A6900E4FDFCC3ED9FEC9E50167BFC7A01EB1B69
:100A79008A8370011A458370F50DBD00010C80E36E
:010A8900224A
:03000000020800F3
:0C080000787FE4F6D8FD7581630208479C
:10080C00020995E493A3F8E493A34003F68001F264
:10081C0008DFF48029E493A3F85407240CC8C333ED
:10082C00C4540F4420C8834004F456800146F6DFBC
:10083C00E4800B0102040810204080900AE1E47E61
:10084C00019360BCA3FF543F30E509541FFEE493B1
:10085C00A360010ECF54C025E060A840B8E493A378
:10086C00FAE493A3F8E493A3C8C582C8CAC583CAA3
:10087C00F0A3C8C582C8CAC583CADFE9DEE780BE5B
:010AED000008
:1009D000BB010689828A83E0225002E722BBFE0225
:0909E000E32289828A83E4932258
:1009E900F8BB010DE58229F582E5833AF583E8F044
:1009F900225006E92582C8F622BBFE05E92582C8F0
:020A0900F222D7
:00000001FF
