:10005600E7E7E7E7E7FB00003E000B00360001009C
:10006600020003000000650054FFEF0000FA800064
:100076000B128200010002000000000000000000D8
:10008600000000000000280000FFFF4581FFFFFA86
:100096007200000000000003E80000000100017F7C
:1000A600FFFFFE8001001B000000000000000000B2
:1000B6000000000000003E03304000000002CAE3DA
:1000C600093E800000200000000000000040000003
:1000D600006000000041FF000000000B2A0000162F
:1000E6005500002182FD872650FD800000001F007C
:1000F6000000058000000000000001000000020072
:100106000000030000400000000000046F000265CC
:100116003200005EC0400000000000000000000049
:100126000000000000FB8C6F5DFD5D08D9007C734C
:100136003B006C12CC3200139D3200D0D632000840
:1001460000400001F4FFE68079020000000000D0C4
:10015600D600002710FB0000004000000000000051
:100166000000000000000000010000000000000187
:1001760000010000000000FA36FFBC308E0005FBCF
:10018600F0FFD95BC8FFD09ABE000010A9FFF41E8D
:10019600B200CEBBF7000000010000000400020020
:1001A600020200000CFFC280000001800000CF8028
:1001B60000400000000000000100000000000006F2
:1001C6000000000014000000000000000000000015
:1001D6000000000000000000000000000000000019
:1001E6000000000000000000000000000000000009
:1001F600000000000000000000033F68B6793528C3
:10020600BCC67ED16C80000000400000000000B239
:100216006A00000000000000000000000000003F2F
:10022600F0000000300000000000000000000000A8
:1002360000000000000000000000000000000000B8
:1002460000000000000000254D002F706D00000525
:10025600AE000C02D00000000000650054FFEF0065
:100266000000000000000001000044000000000C37
:1002760000000001000000000000650000005400BE
:1002860000FFEF000000000000000000000000007A
:100296000000000000400000000000000000000018
:1002A6000000000000400000000000000000000008
:1002B6000000000000000000010000000200000035
:1002C6000000000000000000000000000000000028
:1002D6000000000000000000000000000000000018
:1002E6000000000000001B000000000000000000ED
:1002F60000000000000000000000000000000000F8
:1003060000000000000000000000000000000000E7
:100316000040000000001B0000000000000000007C
:1003260000000000000000000000000000000000C7
:1003360000000000000000000000000000000000B7
:1003460000000000000000000000000000000000A7
:100356000000000000D8DCBAA2F1DEB2B8B4A88171
:1003660091F74A907F916AF3F9DBA8F9B0BAA080B9
:10037600F2CE81F3C2F1C1F2C3F3CCA2B280F1C6D0
:10038600D880BAA7DFDFDFF2A7C3CBC5B6F087A256
:10039600942448703C95406834589B78A2F1839227
:1003A6002D557DD8B1B4B8A1D09180F270F370F21A
:1003B6007C80A8F101B09887D943D886C988BAA1AC
:1003C600F20EB89780F1A9DFDFDFAADFDFDFF2AA3E
:1003D600C5CDC7A90CC92C97979797F1A989264629
:1003E60066B0B4BA80ACDEF2CAF1B28C02A9B69895
:1003F60000890E161EB8A9B4992C547CB08AA8960A
:10040600365676F1B9AFB4B083C0B8A89711B18F9C
:1004160098B9AFF0240844106418F1A329557DAFAC
:1004260083B593AFF0002850F1A3869F61A6DADE6C
:10043600DFD9FAA38696DB31A6D9F8DFBAA68FC232
:10044600C5C7B28CC1B8A2DFDFDFA3DFDFDFD8D834
:10045600F1B8A8B286B4980D355DB8AA98B0872DC4
:10046600353DB2B6BAAF8C96198F9FA70E161EB43D
:100476009AB8AA872C547CB9A3DEDFDFA3B180F239
:10048600C4CDC9F1B8A9B499830D355D89B9A32D39
:10049600557DB593A30E161EA92C547CB8B4B0F1A5
:1004A6009783A81184A50998A383F0DA2408441039
:1004B6006418D8F1A529557DA58595021A2E3A56B8
:1004C6005A4048F9F3A3D9F8F098832408441064F5
:1004D600189782A8F111F098A2240844106418DA3B
:1004E600F3DED883A59401D9A302F1A2C3C5C7D868
:1004F600F18492A24DDA2AD84869D92AD86855DA01
:1005060032D85071D932D8705DDA3AD85879D93A9A
:10051600D87893A34DDA2AD84869D92AD86855DA03
:1005260032D85071D932D8705DDA3AD85879D93A7A
:10053600D878A88A9AF02850789EF38818F19F1DDB
:1005460098A8D908D8C89F129EF315A8DA1210D811
:10055600F1AFC8978734B5B994A421F3D922D8F25C
:100566002DF3D92AD8F235F3D932D881A460606147
:10057600D961D86C6869D969D8747071D971D8B1E4
:10058600A384193D5DA3831A3E5E9310308110113A
:10059600B8B0AF8F94F2DA3ED8B49AA88729DAF8C1
:1005A600D8879A35DAF8D8879A3DDAF8D8B1B9A457
:1005B6009885022E56A581000C14A397B08AF12DBA
:1005C600D928D84DD948D86DD968D8B1840DDA0E56
:1005D600D8A32983DA2C0ED8A3844983DA2C4C0EAF
:1005E600D8B8B0A88A9AF520AADADFD8A840AAD047
:1005F600DADED8A860AADAD0DFD8F19786A8319BD0
:10060600069907AB9728889BF00C201440B8B0B425
:10061600A88C9CF0042851791D301438B282ABD0D6
:10062600982C505078789BF11AB0F08A9CA82951E2
:10063600798B2951798A2470598B2058718A44699B
:10064600388B3940688A6448318B304960A58820E8
:100656000971584468113964493019F1AC002C54B9
:100666007CF08CA804285078F1889726A85998AC75
:100676008C02264666F0899CA82951792470594433
:100686006938644831A98809205970AB1138406926
:10069600A8193148608CA83C415C207C00F1879801
:1006A6001986A86E767EA999882D557D9EB9A38A4E
:1006B600228A6E8A568A5E9FB183062646660E2E6B
:1006C6004E6E9DB8AD002C547CF2B18CB499B9A392
:1006D6002D557D8191AC38AD3AB58391AC2DD92895
:1006E600D84DD948D86DD968D88C9DAE29D904AED5
:1006F600D851D904AED879D904D881F39DAD008DEF
:10070600AE1981ADD901D8F2AEDA26D88E912983F9
:10071600A7D9ADADADADF32AD8D8F1B0AC89913E2D
:100726005E76F3AC2E2EF1B18C5A9CAC2C28282880
:100736009CAC3018A8988128343C9724A728343CD0
:100746009C24F2B089AC912C4C6C8A9B2DD9D8D8BC
:1007560051D9D8D879D9D8D8F19E88A331DAD8D842
:10076600912DD928D84DD948D86DD968D8B1839359
:10077600353D8025DAD8D88569DAD8D8B49381A3EF
:1007860028343CF3AB8BF8A391B609B4D9ABDEFAA7
:10079600B0879CB9A3DDF1A3A3A3A395F1A3A3A35B
:1007A6009DF1A3A3A3A3F2A3B49080F2A3A3A3A352
:1007B600A3A3A3A3A3A3B2A3A3A3A3A3A3B087B5F1
:1007C60099F1A3A3A398F1A3A3A3A397A3A3A3A378
:1007D600F39BA3A3DCB9A7F1262626D8D8FF037B73
:1007E600034CCD6C03AB0336567600680402CB4748
:1007F600A202180400058BC1010C040000000003CE
:100806007F060CC92C979797038903264666006CCA
:100816000220000240040000000002440400000020
:100826000002480400000000024C04000000000220
:1008360050040000000002540400000000025804A6
:1008460000000000025C040000000002BC0400007E
:10085600000001EC0400004000037F060CC92C9741
:1008660097970402030D355D040904872D353D0075
:10087600A3010000000001078601FE074105F120E3
:10088600283038077E01300746019A074704F128C9
:100896003038076C04F1283038021602000101B224
:1008A60002FFFF0190040923A135016A0206000137
:1008B6006008000000000000000000600440000026
:0D08C600000162020000006004004000001C
:1028BA00C10841027800410275066040000100002B
:1028CA0000000000000000000000000000000000FE
:1028DA0000000000000000000000000000000000EE
:1028EA0000000000000000000000000000000000DE
:0E28FA000000000000000000000000000000D0
:0A3307008FE7E5E630E1FBAFE722B7
:02306300AE05B8
:10306500C2E9123307AD07AF06123307D2E9AF0540
:013075002238
:0C320400C2E9123307E4FF123307D2E9DD
:01321000229B
:062D71008B238A24892552
:102D7700C2E9123307AE07E4FDEDC395265017E409
:102D8700FF123307AB23AA24A9258D82758300EF91
:0A2D9700120E220D80E3D2E9AF0610
:012DA100220F
:062D0D008B318A3289338C
:102D1300C2E9123307AE07E4FDEDC395345018AB97
:102D2300310533E533AA327002053214F9120DCAA4
:0B2D3300FF1233070D80E2D2E9AF066B
:012D3E002272
:10314500E4F520C208C2E87D0F7F20123063D2E883
:013155002257
:102D3F008E2C8F2DC2E87D0E7F201230637BFF7AA1
:102D4F000079567534057F2A122D0D7B017A007993
:102D5F0061852D347FA0122D0DD2E8A2047205508B
:022D6F00FA2246
:03004B000225B0DB
:1025B000C0E0C083C082C0D075D000C000C001C0E0
:1025C00002C003C005C006C0077F071232048F2077
:1025D0003006307B017A0079417526207F61122D0B
:1025E00071E4FD7FE2123063D2087F601232049002
:1025F0000278EFF0D39420400AE4F0FD7FE212303D
:1026000063C208300407E4FD7FE112306330050740
:10261000E4FD7FE11230637D707F27123063D007C5
:10262000D006D005D003D002D001D000D0D0D082C7
:05263000D083D0E03270
:062244008B278A2889297E
:10224A007C07C2E8D2EAD2B9C2E8D2EAE52F146022
:10225A000F146014146016240370155304F98010C7
:10226A005304FB43040280085304FD800043040422
:10227A00E52E600E1460101470135304F743042003
:10228A00800B5304D780065304DF430408AB2AAA01
:10229A002BA92C7534057F30122D0DAB27AA28A93E
:1022AA00297534057F2A122D0D7D017F2212306394
:1022BA00E4FD7F21123063E4FD7F24123063AD2DEB
:1022CA007F25123063AD047F261230637D017F3C87
:0F22DA001230637D077F3D123063D2AF02314572
:1011DC008B288A29892A900061E52BF0EF14B4073B
:1011EC000040030214F290120075F003A4C583258D
:1011FC00F0C583730212150212520212950212B13B
:10120C000213340213C8021420AB28AA29A92A906D
:10121C00001C120DE3900062F090001D120DE39083
:10122C000063F0900020120DE3900064F090002118
:10123C00120DE3900065F0900024120DE39000660F
:10124C00F0900025803BAB28AA29A92A9000101207
:10125C000DE3900062F0900011120DE3900063F02A
:10126C00900014120DE3900064F0900015120DE341
:10127C00900065F0900018120DE3900066F090005D
:10128C0019120DE39000678016AB28AA29A92A121F
:10129C000DCA900062F0A3F0A3F0A3F0A3F0A3F0AA
:1012AC007F070214EDAB28AA29A92A90001C120D65
:1012BC00E3900062F090001D120DE3900063F0903B
:1012CC000020120DE3900064F0900021120DE390C9
:1012DC000065F0900024120DE3900066F09000255C
:1012EC00120DE3900067F0900010120DE39000686F
:1012FC00F0900011120DE3900069F0900014120DA3
:10130C00E390006AF0900015120DE390006BF090E2
:10131C000018120DE390006CF0900019120DE39080
:10132C00006DF07F0D0214EDAB28AA29A92A9000BC
:10133C001C120DE3900062F090001D120DE3900062
:10134C0063F0900020120DE3900064F090002112E5
:10135C000DE3900065F0900024120DE3900066F010
:10136C00900025120DE3900067F0900010120DE331
:10137C00900068F0900011120DE3900069F090005D
:10138C0014120DE390006AF0900015120DE390001A
:10139C006BF0900018120DE390006CF09000191295
:1013AC000DE390006DF0120DCA90006EF0A3F0A347
:1013BC00F0A3F0A3F0A3F07F130214EDAB28AA293D
:1013CC00A92A120DCA900062F0900001120DE39050
:1013DC000063F0900004120DE3900064F09000059F
:1013EC00120DE3900065F0900008120DE39000667A
:1013FC00F0900009120DE3900067F090000C120DB4
:10140C00E3900068F090000D120DE3900069F07FFE
:10141C00090214EDAB28AA29A92A90001C120DE38D
:10142C00900062F090001D120DE3900063F09000AC
:10143C0020120DE3900064F0900021120DE3900057
:10144C0065F0900024120DE3900066F090002512D8
:10145C000DE3900067F0900010120DE3900068F01F
:10146C00900011120DE3900069F0900014120DE33E
:10147C0090006AF0900015120DE390006BF0900054
:10148C0018120DE390006CF0900019120DE390000F
:10149C006DF0120DCA90006EF0900001120DE390E9
:1014AC00006FF0900004120DE3900070F0900005B6
:1014BC00120DE3900071F0900008120DE390007291
:1014CC00F0900009120DE3900073F090000C120DD7
:1014DC00E3900074F090000D120DE3900075F07F16
:0914EC00157E00122D3F0231456E
:10312100900061EDF0A3EFF07F027E00122D3F02CF
:02313100314526
:10302600900061EBF0A3EFF0A3EDF07F037E0012BA
:053036002D3F023145B1
:10238500900061EFF0A3EDF0EAFFA3EFF04B6004DE
:102395007F0180027F00900064EFF0E50CFFA3EF62
:1023A500F0450D60047F0180027F00900066EFF02C
:1023B500E50EFFA3EFF0450F60047F0180027F006B
:1023C500900068EFF0E510FFA3EFF0451160047F82
:1023D5000180027F0090006AEFF0E512FFA3EFF0A5
:1023E500451360047F0180027F0090006CEFF0E5EB
:1023F50014FFA3EFF0451560047F0180027F009074
:0E240500006EEFF07F0E7E00122D3F0231457B
:06296C008B538A548955CB
:10297200900061EFF0A3E557F07F027E00E5562458
:1029820002FDE433FCC3EF9DEE9C5027AB53AA54E7
:10299200A95574FE2FF58274FF3EF583120DE3FDF7
:1029A20074612FF58274003EF583EDF00FBF0001D4
:1029B2000E80CAE5562402FFE433FE122D3F023197
:0129C20045CF
:0829C3008F3D8B3E8A3F8940E5
:1029CB007F53122DC9AF3D122DC9AF41122DC975C1
:1029DB004200754301E5412401FFE433FEC3E543A7
:1029EB009FE5429E501DAB3EAA3FA9408543828581
:1029FB004283120DE3FF122DC90543E54370D60543
:082A0B004280D27F04022DC9B4
:082BD9008B588A59895A8D5B63
:102BE1007F53122DC9AF5B122DC9E4F55CF55DC3AE
:102BF100E55D955BE55C9400501DAB58AA59A95A57
:102C0100855D82855C83120DE3FF122DC9055DE5AB
:0C2C11005D70DC055C80D87F04022DC9DA
:082A13008F168B178A18891930
:102A1B007F53122DC9AF16122DC9E51A04FF122DC3
:102A2B00C9AF1B122DC9E4F51CF51DC3E51D951A85
:102A3B00E51C9400501DAB17AA18A919851D82859A
:102A4B001C83120DE3FF122DC9051DE51D70DC055E
:082A5B001C80D87F04022DC984
:100026008B708A718972AB70AA71A972120DCA603F
:10003600130572E5727002057114F9120DCAFF12EA
:050046002DC980E2223B
:0B3241007E007F817DF47C01022C5C8C
:0E317800752A038F2B7B027D6B7F68022798E0
:0E318600752A028F2B7B047D1B7F6802279821
:0E319400752A028F2B7B047D1C7F6802279812
:0B324C008F2A7B067D6B7F68022A63DF
:10303B007F01123178E4FF123186E4FF123194E400
:04304B00FF02324C02
:102E1100752A06752B01752C02752D7B7B067D7538
:102E21007F6812291490027BE0B434047F01800290
:032E31007F0022FD
:1020B60090036DEEF0A3EFF07536017537027538B3
:1020C6007B7B0E7D3B7F6812273090027BE0FF9082
:1020D600036DE0FCA3E0FDF5828C83EFF090027CBB
:1020E600E08D828C83A3F090027DE08D828C83A3A9
:1020F600A3F090027EE08D828C83A3A3A3F09002CE
:102106007FE0FFED2404F582E43CF583EFF09002D6
:1021160080E0FFED2405F582E43CF583EFF09002C4
:1021260083E0FFED2406F582E43CF583EFF09002B0
:1021360084E0FFED2407F582E43CF583EFF090029E
:1021460085E0FFED2408F582E43CF583EFF090028C
:1021560086E0FFED2409F582E43CF583EFF090027A
:1021660087E0FFED240AF582E43CF583EFF0900268
:0F21760088E0FFED240BF582E43CF583EFF022C7
:0B325700AB07AA067D067F6802310E5F
:0B326200AB07AA067D087F6802310E52
:0B326D00AB07AA067D0A7F6802310E45
:0B327800AB07AA067D137F6802310E31
:0B328300AB07AA067D157F6802310E24
:0B328E00AB07AA067D177F6802310E17
:102E780075360175370275387B7B027D067F6812CF
:0D2E8800273090027BE0FEA3E0FDEDFF226D
:102E950075360175370275387B7B027D087F6812B0
:0D2EA500273090027BE0FEA3E0FDEDFF2250
:102EB20075360175370275387B7B027D0A7F681291
:0D2EC200273090027BE0FEA3E0FDEDFF2233
:102ECF0075360175370275387B7B027D137F68126B
:0D2EDF00273090027BE0FEA3E0FDEDFF2216
:102EEC0075360175370275387B7B027D157F68124C
:0D2EFC00273090027BE0FEA3E0FDEDFF22F9
:102F090075360175370275387B7B027D177F68122C
:0D2F1900273090027BE0FEA3E0FDEDFF22DB
:082E340090033AE0FFE4FBFD0E
:102E3C00EF541FFFEB6004EF4420FFED6004EF4400
:0B2E4C0040FFAB077D6D7F680231671F
:102F260075360175370275387B7B027D727F6812B4
:0D2F3600273090027BE0FEA3E0FDEDFF22BE
:103076007B017A02797B7D3A7F6812313390027B3D
:03308600E0FF2246
:0B3299008F2A7B077D6A7F68022A6392
:0C321100752A017B027D6A7F68022A6337
:09333900900276E0FEA3E0FF2201
:0C2AFE007B017A0279A29002A0A3E0FD07
:102B0A00900325EBF0A3EAF0A3E9F0EDD39400409B
:102B1A001FAF05AB07C003900325E0FBA3E0FAA3B0
:102B2A00E08B368A37F538D0037D747F6802273008
:102B3A00900325E0FBA3E0FAA3E0F9E4120E1022C9
:0531A20090033BE0FF7B
:0931A700AB077D6E7F6802316701
:101A62007B017A02799090028FE0FD7C0090028DDA
:101A7200E090033AF090028EE090033BF0E4A3F092
:031A8200A304F0CA
:101A8500900335EBF0A3EAF0A3E9F0A3ECF0A3EDA6
:011A9500F060
:101A9600900342E4F0A3F0A3F0122E341231A29088
:101AA600033CE060177F107E001222E9AA06A90710
:101AB60090033F7401F0A3EAF0A3E9F090033DE040
:101AC60060177F107E001222E9AA06A9079003423A
:101AD6007401F0A3EAF0A3E9F0E4900345F0A3F063
:101AE600900338E0FEA3E0FF900345E0FCA3E0FD91
:101AF600C39FEC9E4003021C9F90033E7410F0E0CF
:101B0600FB7A00ED2BFDEA3CFCC3EF9DEE9C5011E9
:101B1600900345A3E0FF900338A3E0C39F90033EE4
:101B2600F090033BE0FFFDC3E49DFD74019400FCCF
:101B360090033EE0D39DE49C4004EFF404F0900350
:101B46003DE06048E4FF90033EE0FEEFC39E506038
:101B5600900335A3E0FAA3E0F9900345E0FCA3E087
:101B6600FDE92DF9EA3CFAEF7C0029F9EC3A898285
:101B7600F583E493FE900342E0FBA3E0FAA3E0F9C9
:101B86008F82758300EE120E220F80BA900335E025
:101B9600FBA3E0FAA3E0F9900345E0FEA3E0FFE92A
:101BA6002FF9EA3EFA900342EBF0A3EAF0A3E9F03C
:101BB600900342E0FBA3E0FAA3E08B328A33F534CC
:101BC60090033EE0FB7D6F7F68122C1D90033CE086
:101BD6007003021C5990033FE0FBA3E0FAA3E0F96F
:101BE600EA494B606E122E341231A290033FE0FB9D
:101BF600A3E0FAA3E08B368A37F53890033EE0FB84
:101C06007D6F7F6812273090033EE0FF7E009003D1
:101C160042E0FBA3E0FAA3E0F8AC02AD0390033F79
:101C2600E0FBA3E0FAA3E0F91210ACEF6025900305
:101C36003FA3E0FAA3E0AE02FF121DD990033DE0F8
:101C4600600E900342A3E0FAA3E0AE02FF121DD994
:101C56007F002290033EE0FFFD900346E02DF090CA
:101C66000345E03400F090033BE02FF0900338E0AA
:101C7600FEA3E0FFC3900346E09F900345E09E402D
:101C860003021AE690033BE0700690033AE004F084
:101C9600122E341231A2021AE690033CE0600E9036
:101CA600033FA3E0FAA3E0AE02FF121DD990033D65
:101CB600E0600E900342A3E0FAA3E0AE02FF121D1D
:031CC600D97F01C2
:011CC90022F8
:1017CB00900325EBF0A3EAF0A3E9F0A3ECF0A3ED73
:0117DB00F01D
:1017DC0090032BE4F0A3F0A3F090032AE060177FB2
:1017EC00087E001222E9AA06A90790032B7401F0C7
:1017FC00A3EAF0A3E9F0E4900330F0A3F0900328FF
:10180C00E0FEA3E0FFC3900331E09F900330E09E25
:10181C004003021A4D90032AE0FF9003256067A352
:10182C00E0FAA3E0F9900330E475F001120E99FC94
:10183C00E925F0F9EA3C8982F583E493900332F0D0
:10184C00900325A3E0FAA3E0F9900330E475F001CE
:10185C00120E99FCE925F0F9EA3C8982F583E493B0
:10186C00900333F0900325A3E0FAA3E0F990033042
:10187C00E475F001120E99FCE925F0F9EA3C898235
:10188C00F583E4938046E0FBA3E0FAA3E0F9900330
:10189C0030E475F001120E9985F082F583120DE398
:1018AC00900332F0900330E475F001120E9985F03C
:1018BC0082F583120DE3900333F0900330E475F05E
:1018CC0001120E9985F082F583120DE3900334F02A
:1018DC00900334E0FED3940050030219CCEF6077F0
:1018EC0074039E502590032BA3E0FAA3E0AE02FFF5
:1018FC00900334E0FD7C001226B8AA06A9079003D9
:10190C002B7401F0A3EAF0A3E9F0E4FFFE9003349A
:10191C00E0FDC3EF9DEE94005061900325A3E0FA27
:10192C00A3E0F9900330E0FCA3E0FDE92DF9EA3CDB
:10193C00FAE92FF9EA3E8982F583E493FD90032BB3
:10194C00E0FBA3E0FAA3E0F98F828E83ED120E2266
:10195C000FBF00010E80B6900325E0FBA3E0FAA3B5
:10196C00E0F9900330E0FEA3E0FFE92FF9EA3EFA3C
:10197C0090032BEBF0A3EAF0A3E9F090032BE0FB30
:10198C00A3E0FAA3E0F9900334E0FD7C009003326D
:10199C00E090033AF0900333E090033BF0A3740122
:1019AC00F0E4A3F0121A8590032EEFF0900334E0CC
:1019BC00FF900331E02FF0900330E03400F08063AF
:1019CC0090032AE0900325601FA3E0FAA3E0F990AE
:1019DC000330E475F001120E99FEE925F0F9EA3EA8
:1019EC008982F583E493801AE0FBA3E0FAA3E0F983
:1019FC00900330E475F001120E9985F082F5831294
:101A0C000DE390032FF090032FE0B401117B327D96
:101A1C00387F6812316790032E7401F08005E490D2
:101A2C00032EF090032EE0600302180990032AE0C5
:101A3C00600CA3A3E0FAA3E0AE02FF121DD97F0055
:101A4C002290032AE0600CA3A3E0FAA3E0AE02FF0D
:051A5C00121DD97F01FD
:011A61002262
:101EDD00900325EBF0A3EAF0A3E9F0A3ECF0A3ED5A
:011EED00F004
:101EEE00A3122E3790032BE0FF1231A7E490032D9F
:101EFE00F0A3F0900328E0FEA3E0FF90032DE0FC9A
:101F0E00A3E0FDC39FEC9E4003021FD390032C74ED
:101F1E0010F0E0FB7A00ED2BFDEA3CFCC3EF9DEEEA
:101F2E009C500FA3A3E0FF900328A3E0C39F900350
:101F3E002CF090032BE0FFFDC3E49DFD7401940093
:101F4E00FCA3E0D39DE49C4004EFF404F090032541
:101F5E00E0FBA3E0FAA3E0F990032DE0FEA3E0FF7F
:101F6E00E92FF9EA3E8B36F537893890032CE0FBE2
:101F7E007D6F7F6812273090032CE0FFFD90032EBB
:101F8E00E02DF090032DE03400F090032BE02FF0C5
:101F9E00900328E0FEA3E0FFC390032EE09F900382
:101FAE002DE09E4003021F0190032BE0700690036C
:101FBE002AE004F090032A122E3790032BE0FF1232
:051FCE0031A7021F0114
:011FD30022EB
:0A33110090032A7401F01217CB227A
:1000030090032AE090033AF090032BE090033BF037
:1000130090032CE090033CF0A37401F0121A8522A4
:0C321D00752A017B077D6B7F68022A6325
:102F9400AE05EFD394035011EF75F003A42425FD7F
:0A2FA400AF06AB077F681231672209
:0B32A4008F2A7B057D6A7F68022A6389
:0C322900752A017B017D6A7F68022A6320
:09334200AB077D387F680231679A
:09334B00AB077D197F68023167B0
:0E31B000752A038F2B7B057D1A7F68022798F6
:0E31BE00752A038F2B7B027D1A7F68022798EB
:103089007B017A02797B7D707F6812313390027BF4
:03309900E0FF2233
:09335400AB077D707F6802316750
:10309C007B017A02797B7D717F6812313390027BE0
:0330AC00E0FF2220
:09335D00AB077D717F6802316746
:102FF900754E01754F0275507BE4FBFD7F68122DFC
:07300900ED90027BE0FF22C5
:0A331B008F2AE4FBFD7F68022A639D
:102F4300752A06752B01752C02752D7B7B06E4FD16
:0B2F53007F6812291490027BE0FF222F
:0E31CC00752A068F2B7B06E4FD7F680227988C
:102F5E00752A06752B01752C02752D7B7B067D015E
:0B2F6E007F6812291490027BE0FF2214
:0E31DA00752A068F2B7B067D017F68022798E1
:102F7900752A06752B01752C02752D7B7B067D0242
:0B2F89007F6812291490027BE0FF22F9
:0E31E800752A068F2B7B067D027F68022798D2
:1030AF007B017A02797B7D1F7F6812313390027B1F
:0330BF00E0FF220D
:09336600AB077D1F7F680231678F
:1030C2007B017A02797B7D217F6812313390027B0A
:0330D200E0FF22FA
:09336F00AB077D217F6802316784
:1030D5007B017A02797B7D207F6812313390027BF8
:0330E500E0FF22E7
:09337800AB077D207F680231677C
:1030E8007B017A02797B7D227F6812313390027BE3
:0330F800E0FF22D4
:09338100AB077D227F6802316771
:102FE100754E01754F0275507B7B067D6A7F6812B5
:082FF1002DED90027BE0FF22B0
:0B32AF008F2A7B067D6A7F68022A637D
:0C323500752A017B037D6A7F68022A6312
:1008D300E490029EF0A3F012321D7F1E7E001230C0
:1008E3004FE4FF12324C7B017D017F10122E3C7FBF
:1008F300061231A7E4FBFDFF122E3C122F43900298
:100903008AEFF0122F5E90028BEFF0122F79900294
:100913008CEFF07D7FE4FF122F94E4FF1232A47D6D
:1009230068E4FF122F941232297F147E0012304F95
:100933007BFF7A00795BE490032AF0A3F0A304F031
:100943007D897C07120003EF7003020DC47BFF7ADD
:100953000779E47DC07C00123311EF7003020DC1EF
:100963007F031231787F121233427F0412334B908C
:1009730003237401F0FB7A0379227D1A7F68123115
:100983003390032474F8F0900323E033333354F8A3
:10099300F054F8F0FC900322E0FE74F8F4FDEE5DF1
:1009A300F0E04CF0E0FB7D1A7F681231677F0312A1
:1009B30031BE7F031231867F03123354E4FF1233B7
:1009C3005DE4FF12331B7B017A037922E4FD7F6828
:1009D300123133900324747EF090028AE025E0F014
:1009E300547EF0FC900322E0FE747EF4FDEE5DF095
:1009F300E04CF0E0FBE4FD7F681231677B017A0392
:100A030079227D017F68123133900324747EF09044
:100A1300028BE025E0F0547EF0FC900322E0FE74AC
:100A23007EF4FDEE5DF0E04CF0E0FB7D017F6812AB
:100A330031677B017A0379227D027F68123133901B
:100A43000324747EF090028CE025E0F0547EF09055
:100A53000322E0FF747EF4FEEF5EF0E0FF90028B72
:100A6300E0FEEF4E900322F0E0FB7D027F6812313F
:100A730067E490029DF090029DE0FFC3940440164A
:100A830090028FE02403FDE433FCC3EF9DEC64800C
:100A9300F8748098503890029EE0FEA3E024A4F5F9
:100AA3008274083EF583E493FF90029DE0248DF564
:100AB30082E43402F583EFF090029DE004F09002AB
:100AC3009FE004F0700690029EE004F080A8121AE2
:100AD30062E490029DF090029DE0FFC394044016EF
:100AE30090028FE02403FDE433FCC3EF9DEC6480AC
:100AF300F8748098503890029EE0FEA3E024A4F599
:100B03008274083EF583E493FF90029DE0248DF503
:100B130082E43402F583EFF090029DE004F090024A
:100B23009FE004F0700690029EE004F080A8121A81
:100B330062123211122F269002A0EEF0A3EFF07B87
:100B4300017A0279A2FD122B0A7F021233667F9C7F
:100B530012336F7F50123378E4FF12338112321154
:100B63007F011232AF7F01123299123235E49002C3
:100B73009DF090029DE0FFC39404401690028FE025
:100B83002403FDE433FCC3EF9DEC6480F874809888
:100B9300503890029EE0FEA3E024A4F58274083E40
:100BA300F583E493FF90029DE0248DF582E4340203
:100BB300F583EFF090029DE004F090029FE004F0D3
:100BC300700690029EE004F080A8121A62E490027C
:100BD3009DF090029DE0FFC39404401690028FE0C5
:100BE3002403FDE433FCC3EF9DEC6480F874809828
:100BF300503890029EE0FEA3E024A4F58274083EE0
:100C0300F583E493FF90029DE0248DF582E43402A2
:100C1300F583EFF090029DE004F090029FE004F072
:100C2300700690029EE004F080A8121A62E490021B
:100C33009DF090029DE0FFC39404401690028FE064
:100C43002403FDE433FCC3EF9DEC6480F8748098C7
:100C5300503890029EE0FEA3E024A4F58274083E7F
:100C6300F583E493FF90029DE0248DF582E4340242
:100C7300F583EFF090029DE004F090029FE004F012
:100C8300700690029EE004F080A8121A62C39002DC
:100C9300A1E094039002A0E09400500D122F26903F
:100CA30002A0EEF0A3EFF080E4122AFEE490029D8E
:100CB300F090029DE0FFC39404401690028FE0245D
:100CC30003FDE433FCC3EF9DEC6480F8748098501B
:100CD3003890029EE0FEA3E024A4F58274083EF55A
:100CE30083E493FF90029DE0248DF582E43402F5C2
:100CF30083EFF090029DE004F090029FE004F07017
:100D03000690029EE004F080A87B017A027990901D
:100D1300028FE0FD7C0090028DE090032AF09002A8
:100D23008EE090032BF0121EDDC39002A1E094032A
:100D33009002A0E09400500D122F269002A0EEF036
:100D4300A3EFF080E4122AFEE490029DF090029D4E
:100D5300E0FFC39404401690028FE02403FDE433C4
:100D6300FCC3EF9DEC6480F8748098503890029E29
:100D7300E0FEA3E024A4F58274083EF583E493FF28
:100D830090029DE0248DF582E43402F583EFF09028
:100D9300029DE004F090029FE004F0700690029E32
:100DA300E004F080A8121A62E4FF123299900276EE
:100DB300E4F0A3742AF012321112307680067F0217
:060DC300227F01227F00E7
:010DC9002207
:101FD400900361EBF0A3EAF0A3E9F0A3A3E0FAA372
:101FE400E04A7016900279E0FEA3E0AA06F9900395
:101FF400647401F0A3EAF0A3E9F0900364E0FBA3A6
:10200400E0FAA3E0F9900001120DE3FD120DCAF904
:10201400EDFF900361E0FBA3E0FAA3E0C98FF012A7
:102024000EDA900364E0FBA3E0FAA3E0F990000465
:10203400120DE3FE900005120DE3FDEDFF90036128
:10204400E0FBA3E0FAA3E0F9900002EE8FF0120E99
:10205400F9900364E0FBA3E0FAA3E0F9900008120E
:102064000DE3FE900009120DE3FDEDFF900361E026
:10207400FBA3E0FAA3E0F9900004EE8FF0120EF94E
:10208400900364E0FBA3E0FAA3E0F990000C120DC6
:10209400E3FE90000D120DE3FDEDFF900361E0FB04
:1020A400A3E0FAA3E0F9900006EE8FF0120EF97F98
:0220B400002208
:1014F500900367EBF0A3EAF0A3E9F0A3E0FBA3E018
:10150500FAA3E0F9120DCAFF900367E0FBA3E0FA26
:10151500A3E0F9EF120E1090036AE0FBA3E0FAA333
:10152500E0F9900001120DE3FF900367E0FBA3E0F3
:10153500FAA3E0F9900001EF120E2290036AE0FB96
:10154500A3E0FAA3E0F9900004120DE3FF9003670E
:10155500E0FBA3E0FAA3E0F9900002EF120E22905F
:10156500036AE0FBA3E0FAA3E0F9900005120DE39E
:10157500FF900367E0FBA3E0FAA3E0F9900003EF17
:10158500120E2290036AE0FBA3E0FAA3E0F99000B3
:1015950008120DE3FF900367E0FBA3E0FAA3E0F96F
:1015A500900004EF120E2290036AE0FBA3E0FAA379
:1015B500E0F9900009120DE3FF900367E0FBA3E05B
:1015C500FAA3E0F9900005EF120E2290036AE0FB02
:1015D500A3E0FAA3E0F990000C120DE3FF90036776
:1015E500E0FBA3E0FAA3E0F9900006EF120E2290CB
:1015F500036AE0FBA3E0FAA3E0F990000D120DE306
:10160500FF900367E0FBA3E0FAA3E0F9900007EF82
:10161500120E2290036AE0FBA3E0FAA3E0F9900022
:1016250010120DE3FF900367E0FBA3E0FAA3E0F9D6
:10163500900008EF120E2290036AE0FBA3E0FAA3E4
:10164500E0F9900011120DE3FF900367E0FBA3E0C2
:10165500FAA3E0F9900009EF120E2290036AE0FB6D
:10166500A3E0FAA3E0F9900014120DE3FF900367DD
:10167500E0FBA3E0FAA3E0F990000AEF120E229036
:10168500036AE0FBA3E0FAA3E0F9900015120DE36D
:10169500FF900367E0FBA3E0FAA3E0F990000BEFEE
:1016A500120E2290036AE0FBA3E0FAA3E0F9900092
:1016B50018120DE3FF900367E0FBA3E0FAA3E0F93E
:1016C50090000CEF120E2290036AE0FBA3E0FAA350
:1016D500E0F9900019120DE3FF900367E0FBA3E02A
:1016E500FAA3E0F990000DEF120E2290036AE0FBD9
:1016F500A3E0FAA3E0F990001C120DE3FF90036745
:10170500E0FBA3E0FAA3E0F990000EEF120E2290A1
:10171500036AE0FBA3E0FAA3E0F990001D120DE3D4
:10172500FF900367E0FBA3E0FAA3E0F990000FEF59
:10173500120E2290036AE0FBA3E0FAA3E0F9900001
:1017450020120DE3FF900367E0FBA3E0FAA3E0F9A5
:10175500900010EF120E2290036AE0FBA3E0FAA3BB
:10176500E0F9900021120DE3FF900367E0FBA3E091
:10177500FAA3E0F9900011EF120E2290036AE0FB44
:10178500A3E0FAA3E0F9900024120DE3FF900367AC
:10179500E0FBA3E0FAA3E0F9900012EF120E22900D
:1017A500036AE0FBA3E0FAA3E0F9900025120DE33C
:1017B500FF900367E0FBA3E0FAA3E0F9900013EFC5
:0617C500120E227F00223B
:10218500900347EBF0A3EAF0A3E9F0753601753744
:102195000275387B7B0E7D3B7F6812273090027B72
:1021A500E0FEA3E0FDEDFF900347E0FBA3E0FAA30B
:1021B500E0F9EE8FF0120EDA90027DE0FEA3E0FD6D
:1021C500EDFF90034AE0FBA3E0FAA3E0F9EE8FF000
:1021D500120EDA90027FE0FEA3E0FDEDFF90034DC5
:1021E500E0FBA3E0FAA3E0F9EE8FF0120EDA90021D
:1021F50083E0FEA3E0FDEDFF900350E0FBA3E0FAD2
:10220500A3E0F9EE8FF0120EDA900285E0FEA3E06E
:10221500FDEDFF900353E0FBA3E0FAA3E0F9EE8F99
:10222500F0120EDA900287E0FEA3E0FDEDFF9003C9
:0F22350056E0FBA3E0FAA3E0F9EE8FF0020EDA19
:1030FB00E4F593F594F59EF59F5393EF5393F743B4
:03310B009F5322AD
:10285E001230FBD2837FFA7E0012304FC2837FFA92
:10286E007E0012304F752AFF752B00752C56752D74
:10287E000A752E01752F037BFF7A007956122244BA
:10288E00D2837FFA7E0012304FC2837FFA7E00120F
:10289E00304F7F02122E57D2837FFA7E0012304FB6
:0C28AE00C2837FFA7E0012304F021CCA69
:1025280012285E3008FDE4F520C208900041E0B4AE
:1025380001F1A3E024F460101460172463602024E0
:10254800A3705012249F80DBD2837B01E4FD7F0CB3
:102558008008C2837B01E4FD7F0D12302680C49081
:1025680000017440F0E4A3F09000057420F0E4A3A7
:10257800F09000097410F0E4A3F090000D7408F0D6
:10258800E4A3F07B017A007901752B017F06121113
:10259800DC8090D2837FF47E0112304FC2837FF4B7
:0825A8007E0112304F02252BC9
:101CCA00D2837FFA7E0012304FC2837FFA7E0012DF
:101CDA00304F123241D2837FFA7E0012304FC283D4
:101CEA007FFA7E0012304F122E11900289EFF0D245
:101CFA00837FFA7E0012304FC2837FFA7E00123051
:101D0A004F900289E07003021DD8D2837FFA7E00C9
:101D1A0012304FC2837FFA7E0012304F12303BD20C
:101D2A00837FFA7E0012304FC2837FFA7E00123020
:101D3A004F1208D3900289EFF0D2837FFA7E001205
:101D4A00304FC2837FFA7E0012304F7F327E0012FC
:101D5A00304FD2837FFA7E0012304FC2837FFA7EE1
:101D6A000012304F900289E07064D2837FFAFE122B
:101D7A00304FC2837FFA7E0012304F7F01123299B0
:101D8A00D2837FFA7E0012304FC2837FFA7E00121E
:101D9A00304F7FF87EFD1232577F787E0212326210
:101DAA007F927E0312326D7F167E001232787FF8A0
:101DBA007EFF1232837F1A7E0012328ED2837FFA1E
:0E1DCA007E0012304FC2837FFA7E0012304F2F
:011DD80022E8
:10249F00E4900289F0122F267C007D2A120E4490C0
:1024AF000000EFF0E4900289F0900000E0FF90024E
:1024BF0089E0C39F50137B017A0079017D2A122B8B
:1024CF000A900289E004F080E09000617401F090BE
:1024DF000001E0900062F0900002E0900063F09045
:1024EF000005E0900064F0900006E0900065F09029
:1024FF000009E0900066F090000AE0900067F0900D
:10250F00000DE0900068F090000EE0900069F07F01
:09251F00097E00122D3F02314536
:03005300022C98E4
:102C9800C0E0C0F0C083C082C0D075D000C000C002
:102CA80001C002C003C004C005C006C00712332F0C
:102CB800D007D006D005D004D003D002D001D00070
:0B2CC800D0D0D082D083D0F0D0E0321A
:0B2FAE007FFA7E00122FB97FFA7E0030
:0F2FB9000000000000EF1F70011E144E70F22286
:10304F00AD07AC06122FAE122FAEED1D70011C1482
:04305F004C70F1229E
:03002300022B4A63
:102B4A00C0E0C0D075D000C000309819C298E55EC8
:102B5A00C39408501074732562F8A699E562045468
:102B6A0007F562055E30991AC299E55FD394014070
:102B7A000F747B2561F8E6F599E561045407F56160
:092B8A00155FD000D0D0D0E0327C
:102B9300C2ACE4F561F563F55FF560F562F55ED20D
:102BA3009CC29FD29E43878043D880EF24FC60134E
:102BB30024FE60091470127C037DF780107C037D72
:102BC300F3800A7C037DCC80047C037DE68DAA8C94
:052BD300BAC299D2AC6A
:012BD80022DA
:102DC900E55FD3940850F9C2ACE55F70048F998030
:102DD9000E747B2563F8A607E563045407F56305BC
:042DE9005FD2AC22E7
:03004E00AF5E2280
:0A332500E55F70037F01227F0022A4
:102FC800E55E60FCC2AC74732560F8E6FFE560045A
:082FD8005407F560155ED2AC50
:012FE00022CE
:0731560014F9120DCAF5DAAD
:0A315D00E4F51EE51E60FCAF1F2222
:0A332F0085E11FE51F5401F51E2281
:0B32BA00EF600443E2802253E27F2219
:0B32C500EF600443E2402253E2BF220E
:0B32D000EF600453E2DF2243E2202203
:0B32DB00EF600453E2EF2243E21022F8
:06338A00EF547FF5D9228B
:0E31F600EF25E025E0FFE5E254F34FF5E2227D
:0B32E600EF700443E2022253E2FD22DD
:0B32F100EF600443E2012253E2FE22E2
:0B32FC00EF600475E1DF2275E1202285
:102E5700AE077F011232F1AF061231F6E4FF1232EC
:102E6700E643A60443B804E4F5E10F1232FCC2C2FC
:012E77002238
:102DA200E47547FFF546F545F54485E148E54854A5
:102DB20001F549E5485402F54A7F0A7E00122FB90F
:062DC200E54960E6AF48A0
:012DC80022E8
:1030100043E210EF25E04DF5DA12315DEF30E103C8
:053020007F00227F018A
:013025002288
:062CD3008B658A6689672B
:102CD900E4FD123010AE07AF681568EFD3940040D9
:042CE9001DBE011AF1
:102CED00AB650567E567AA66700205661231568FFA
:082CFD0069E56930E1DDE4FE48
:072D050080D943E220AF0674
:012D0C0022A4
:062AB1008B6B8A6C896D3D
:102AB7007D011230108F6FE56F7003122635AF6EF0
:102AC700156EEF602FE56F602BE56E700343E22014
:102AD70012315DAB6B056DE56DAA6C7002056C1468
:102AE700F9E5DA120E10EF20E1047F0180027F0082
:062AF7008F6F80CAAF6F73
:012AFD0022B6
:10263500E5E2540CF53C5390F3E59454F3440CF562
:102645009475E20375E20775E206E59454F34408D0
:10265500F5947F057E00122FB95394F37F057E0014
:10266500122FB9E4F53BE59454F34404F5947F0542
:102675007E00122FB95394F37F057E00122FB90502
:102685003BE53BC3940840DE7F057E00122FB9E58C
:102695009454F34404F5947F057E00122FB9E59414
:1026A50054F3440CF59475E20775E203E53C4403E5
:0226B500F5E24C
:0126B7002200
:103167008B2E75320075330075342E7B01122C1DA2
:013177002235
:042C1D00AE03AC0551
:102C2100E4FD123010AD078CDA12315DEF30E102B4
:102C3100E4FDAC061EECD39400401ABD0117AB3283
:102C41000534E534AA3370020533123156EF30E111
:0A2C5100E1E4FD80DD43E220AF0561
:012C5B002256
:103133008B308A3189328B368A3789387B01122763
:02314300302238
:062730008B35AE07AC057D
:10273600E4FD1230108F3A8CDA12315D8F39E539AB
:1027460030E103E4F53AAF067D011230108F3AE529
:102756003A7003122635AF351535EF6032E53A602B
:102766002EE535700343E22012315D8F39AB360515
:1027760038E538AA377002053714F9E5DA120E1073
:10278600E53920E1047F0180027F008F3A80C7AFE0
:012796003A08
:01279700221F
:062A63008F278D288B294E
:102A69007B007A00792B123133E52A601774017ED5
:102A790000A829088005C333CE33CED8F9FFEF4526
:102A89002BFF801874017E00A829088005C333CE66
:102A990033CED8F9F4FFE4FEEF552BFF8F2BAB2B88
:072AA900AD28AF27123167D1
:012AB0002203
:062798008F278D288B291C
:0C279E007B007A00792C123133EF604E82
:1027AA0074017E00A82A088005C333CE33CED8F937
:1027BA0024FFFFEE34FFFEC3E529952A04FDEFA8A6
:1027CA0005088005C333CE33CED8F9F52DE52BA8FD
:1027DA0005088002C333D8FCF52BE52D522BF452A1
:0E27EA002CE52B422CAB2CAD28AF270231671B
:0227F8007F0060
:0127FA0022BC
:022DED008B4D0C
:102DEF007B007A007951123133AE4D7401A8060879
:102DFF008002C333D8FC5551AB4EAA4FA950120EC7
:012E0F0010B2
:012E1000229F
:022914008B290D
:0E2916007B007A00792E123133AD07ED60455B
:1029240074017E00A82A088005C333CE33CED8F9BB
:1029340024FFFFEE34FFFEC3E529952A04FCEFA82B
:1029440004088005C333CE33CED8F9F52F522EE5D3
:102954002EA804088002C313D8FCF52EAB2BAA2C96
:05296400A92D120E1068
:02296900AF05B8
:01296B002249
:10310E008A278B28752C00752D00752E277B0112B2
:03311E0027FB226A
:0427FB00AC03AE0578
:1027FF00E4FD123010AD078EDA12315DEF30E102D9
:10280F00E4FDAE041CEED39400403EED640170393C
:10281F00AB2CAA2DA92E120EAFE5F0F5DA12315D11
:10282F00EF30E102E4FDED6020AB2CE52EF9240240
:10283F00F52EE52DFA3400F52D120EAFF5DA123123
:0E284F005DEF30E1BDE4FD80B943E220AF054E
:01285D002258
:03000000022413C4
:0C241300787FE4F6D8FD75818202245A1F
:100DCA00BB010689828A83E0225002E722BBFE0227
:090DDA00E32289828A83E493225A
:100DE300BB010CE58229F582E5833AF583E02250C5
:100DF30006E92582F8E622BBFE06E92582F8E2220F
:0D0E0300E58229F582E5833AF583E4932228
:100E1000BB010689828A83F0225002F722BBFE01C1
:020E2000F322BB
:100E2200F8BB010DE58229F582E5833AF583E8F006
:100E3200225006E92582C8F622BBFE05E92582C8B2
:020E4200F2229A
:100E4400BC000BBE0029EF8DF084FFADF022E4CC92
:100E5400F875F008EF2FFFEE33FEEC33FCEE9DEC5B
:100E6400984005FCEE9DFE0FD5F0E9E4CEFD22EDA1
:100E7400F8F5F0EE8420D21CFEADF075F008EF2FEB
:100E8400FFED33FD4007985006D5F0F222C398FDDC
:050E94000FD5F0EA2279
:100E9900A3F8E0C5F025F0F0E5821582700215830C
:060EA900E0C838F0E82269
:100EAF00BB010A89828A83E0F5F0A3E0225006870E
:100EBF00F009E71922BBFE07E3F5F009E3192289D0
:0B0ECF00828A83E493F5F07401932203
:100EDA00BB010A89828A83F0E5F0A3F0225006F763
:0F0EEA0009A7F01922BBFE06F3E5F009F3192260
:100EF900F8BB0111E58229F582E5833AF583E8F02B
:100F0900E5F0A3F0225009E92582C8F608A6F022E7
:0D0F1900BBFE09E92582C8F2E5F008F222CE
:100F2600E3F5F009E208B5F06BDFF58067E3F5F06D
:100F360009E608B5F05EDFF5805A87F009E608B5E0
:100F4600F052DFF6804E87F009E208B5F046DFF68C
:100F5600804288828C8387F009E0A3B5F036DFF6FD
:100F6600803288828C8387F009E493A3B5F025DF6D
:100F7600F5802188828C83E3F5F009E0A3B5F014AF
:100F8600DFF5801088828C83E3F5F009E493A3B53E
:100F9600F002DFF4021055808780E9809080D480CB
:100FA6003E8015806E807E809D80B7808D80A38078
:100FB600518074803C02106189828A83ECFAE49342
:100FC600F5F0A3C8C582C8CCC583CCE493A3C8C535
:100FD60082C8CCC583CCB5F076DFE3DEE1807089CC
:100FE600828A83E493F5F0A3E208B5F062DFF48029
:100FF6005E89828A83E0F5F0A3E608B5F051DFF555
:10100600804D89828A83E0F5F0A3E208B5F040DFDF
:10101600F5803C89828A83E493F5F0A3E608B5F06F
:101026002EDFF4802A8002805789828A83ECFAE4D4
:1010360093F5F0A3C8C582C8CCC583CCE0A3C8C5C8
:1010460082C8CCC583CCB5F006DFE4DEE280007F43
:10105600FFB5F0020F2240027F012289828A83ECCB
:10106600FAE0F5F0A3C8C582C8CCC583CCE0A3C816
:10107600C582C8CCC583CCB5F0D5DFE5DEE380CF2D
:1010860089828A83ECFAE0F5F0A3C8C582C8CCC58C
:1010960083CCE493A3C8C582C8CCC583CCB5F0AFD6
:1010A600DFE4DEE280A988F0EF60010E4E60ABED72
:1010B6002402B404005098F582EB2402B4040050D4
:0A10C6008E2323458223900F9D73B3
:1022E9008E2F8F307E037F598F828E83E0FCA3E08F
:1022F900FD4C7003FEFF228D828C83A3A3E0FAA319
:10230900E0FBC39530EA952F5008CEECCECFEDCF48
:1023190080D6C3EB9530F532EA952FF531C3E53216
:102329009410E531940050198D828C83E0FBA3E071
:102339008F828E83CBF0A3EBF0ED2404FFE43CFE07
:102349002274FC2532F53274FF3531F5318D828CDA
:1023590083A3A3F0A3E532F0ED2404FFE43CFEEFF0
:102369002532FFEE3531FE8F82F583A3A3E52FF0E9
:0C237900A3E530F0EF2404FFE43EFE2258
:0B290800480359000000000000000020
:102C5C00EF4E7008FE7F01ED1D70011C900359EEC4
:102C6C00F0A3EFF0A3ECF0A3EDF0900359E0FEA37A
:102C7C00E0FFF5828E83E4F0A3F0ED24FCFDEC3450
:0C2C8C00FF8F828E83A3A3F0A3EDF02243
:1026B8008E278F288C298D2AE5284527600A9003C4
:1026C8005BE07002A3E07004E4FEFF2285272B85FF
:1026D800282CE52C24FCF52CE52B34FFF52BAF2A10
:1026E800AE291222E98E2D8F2EEF4E7003FEFF22A7
:1026F800852C82852B83A3A3E0FEA3E0FFC3952A44
:10270800EE952950048E298F2AAE29AF2AAA27A927
:10271800287B01A82EAC2D7D011211A0AF28AE2771
:08272800121DD9AE2DAF2E22C7
:101DD900EF4E7003021EDC90035BE07002A3E0701B
:101DE90003021EDCCDEFCDCCEECCED24FCFDEC34B2
:101DF900FFFC752F03753059853082852F83E0FAF2
:101E0900A3E08A31F53245316011D3E5329FE531DE
:101E19009E500885312F85323080DDE532453160AD
:101E29004A8D828C83A3A3E0FAA3E02FFFEA3EFE4A
:101E3900EF65327003EE6531703185328285318309
:101E4900A3A3E0FEA3E02404FFE43E8D828C83A3D8
:101E5900A38FF01211C6853282853183E0FFA3E09A
:101E69008D828C83CFF0A3EFF0800B8D828C83E57C
:101E790031F0A3E532F0853082852F83A3A3E0FEFC
:101E8900A3E02530FFEE352FFEEF2404FFE43EFEEC
:101E9900EF6D7002EE6C70308D828C83A3A3E0FE2F
:101EA900A3E02404FFE43E853082852F83A3A38F1A
:101EB900F01211C68D828C83E0FFA3E08530828504
:101EC9002F83CFF0A3EFF022853082852F83ECF0AA
:041ED900A3EDF02263
:10241F00022528E493A3F8E493A34003F68001F286
:10242F0008DFF48029E493A3F85407240CC8C333BE
:10243F00C4540F4420C8834004F456800146F6DF8D
:10244F00E4800B01020408102040809028BAE47E3B
:10245F00019360BCA3FF543F30E509541FFEE49382
:10246F00A360010ECF54C025E060A840B8E493A349
:10247F00FAE493A3F8E493A3C8C582C8CAC583CA74
:10248F00F0A3C8C582C8CAC583CADFE9DEE780BE2C
:0129130000C3
:1010D000E709F608DFFA8046E709F208DFFA803E02
:1010E00088828C83E709F0A3DFFA8032E309F608EF
:1010F000DFFA8078E309F208DFFA807088828C8357
:10110000E309F0A3DFFA806489828A83E0A3F6080A
:10111000DFFA805889828A83E0A3F208DFFA804CE4
:1011200080D280FA80C680D4806980F280338010BB
:1011300080A680EA809A80A880DA80E280CA803324
:1011400089828A83ECFAE493A3C8C582C8CCC5839C
:10115000CCF0A3C8C582C8CCC583CCDFE9DEE7806C
:101160000D89828A83E493A3F608DFF9ECFAA9F0EB
:10117000EDFB2289828A83ECFAE0A3C8C582C8CC41
:10118000C583CCF0A3C8C582C8CCC583CCDFEADE5A
:10119000E880DB89828A83E493A3F208DFF980CCBC
:1011A00088F0EF60010E4E60C388F0ED2402B404B5
:1011B0000050B9F582EB2402B4040050AF2323455C
:0611C00082239011207350
:1011C600C5F0F8A3E028F0C5F0F8E58215827002B4
:0611D6001583E038F02251
:00000001FF
