:03000000020800F3
:0C080000787FE4F6D8FD7581650208479A
:100C1B000558E7E7E7E7E7C108016500065D000552
:080C2B00008000FF02630000DD
:0A0C8C008FE7E5E630E1FBAFE72259
:020C4800AE05F7
:100C4A00C2E9120C8CAD07AF06120C8CD2E9AF05C3
:010C5A002277
:0C0C7F00C2E9120C8CE4FF120C8CD2E9CC
:010C8B002246
:060B00008B108A1189121E
:100B0600C2E9120C8CAE07E4FDEDC395135017E451
:100B1600FF120C8CAB10AA11A9128D82758300EFFF
:0A0B2600120AAA0D80E3D2E9AF061F
:010B300022A2
:0B0A54007B007A007958750E057F2AA0
:060A5F008B0B8A0C890DCF
:100A6500C2E9120C8CAE07E4FDEDC3950E5018AB30
:100A75000B050DE50DAA0C7002050C14F9120A916F
:0B0A8500FF120C8C0D80E2D2E9AF06DE
:010A90002243
:100C6E00E4F520C208C2E87D0F7F20120C48D2E8BE
:010C7E002253
:100BB1008E088F09C2E87D0E7F20120C48120A545C
:100BC1007B007A00793D85090E7FA0120A5FD2E889
:070BD100A204720550FA2294
:03004B0002088C1C
:10088C00C0E0C083C082C0D075D000C000C001C021
:10089C0002C003C005C006C0077F07120C7F8F2063
:1008AC003006317B007A00792275131B7F61120BA5
:1008BC0000E4FD7FE2120C48D2087F60120C7F8F9F
:1008CC0065E565D39420400C756500E4FD7FE2126C
:1008DC000C48C208300407E4FD7FE1120C483005D7
:1008EC0007E4FD7FE1120C487D707F27120C48D085
:1008FC0007D006D005D003D002D001D000D0D0D084
:06090C0082D083D0E0322E
:1009C900C2E8D2EA7B007A007958750E057F3012A9
:1009D9000A5F120A547D017F22120C48E4FD7F212F
:1009E900120C48E4FD7F24120C487D287F25120C47
:1009F900487D077F26120C487D017F3C120C487DFB
:060A0900077F3D020C48CE
:100C5B0043E20853E2FD43E20243E120E4F5D943CA
:030C6B00E2012281
:02097D00AE03C7
:10097F00E4FC43E210EF24A025E0F5DAE5E120E105
:10098F00028DDAE5E120E123AF061EEFD39400409C
:10099F001AAB0C050EE50EAA0D7002050D14F91217
:1009AF000A91F5DA0CBC10DB7F0022E5E120E104AF
:0909BF007F0180027F0043E22069
:0109C800220C
:1009120043E210EF24A025E0FEF5DAE5E120E10450
:100922008DDA80037F0022E5E120E10543E21080B9
:10093200037F0022EE04F5DA753D017563007564EC
:1009420001AF031BEFD39400401CE5E120E004D289
:100952008380F7C283743D2564F8A6DA0564E564F2
:1009620070DF056380DBE5642401FFE43563FE127A
:0B0972000BB1120C6E43E2207F01224B
:100B310043E210EF24A025E0F5DAE5E120E1FB8DA9
:100B4100DAE5E120E1FB43E210EF24A025E004F522
:0A0B5100DAD283C283AFDA43E22058
:010B5B002277
:100B87007593B77594FF7595FFE4F59EF59FF597F7
:100B9700C2E8D2EAD2B91209C9D2AF120C6E120B4F
:0A0BA700FD120C5B120C34D2AF22D9
:100A0F00120B8720820C120ACC120BD83082FD12E7
:100A1F000BD820940C120B5C120BD83094FD120BD8
:100A2F00D83008DFE522B40115E52324F5600B0467
:100A3F00700C120B5C120ACC8004B283B286C2080F
:050A4F00E4F52080BE6B
:040BD8007F647E00B8
:100BDC00E4FDFCC3ED9FEC9E50167BFC7A01EB1BF5
:100BEC008A8370011A458370F50DBD00010C80E3FA
:010BFC0022D6
:100BFD00D283C2867FE87E03120BDCC283D28612BB
:0E0C0D000BDCD283D286120BDCC283C286229D
:100C3400E4F508F50C750D00750E087B017D6B7FDE
:040C44006802097DBC
:100B5C007C3BE4F563F564E5642CFD7F68120B3196
:100B6C00745D2564F8A6070564E56470020563C32B
:0A0B7C009406E5636480948040DD78
:010B8600224C
:100ACC00D286753D01756300756401AF64745C2F4B
:100ADC00F8E6FE743D2FF8A6060564E56470020581
:100AEC00636407456370E47F077E00120BB1120C40
:040AFC006EC286221E
:10080C00020A0FE493A3F8E493A34003F68001F2E9
:10081C0008DFF48029E493A3F85407240CC8C333ED
:10082C00C4540F4420C8834004F456800146F6DFBC
:10083C00E4800B0102040810204080900C1BE47E25
:10084C00019360BCA3FF543F30E509541FFEE493B1
:10085C00A360010ECF54C025E060A840B8E493A378
:10086C00FAE493A3F8E493A3C8C582C8CAC583CAA3
:10087C00F0A3C8C582C8CAC583CADFE9DEE780BE5B
:010C330000C0
:100A9100BB010689828A83E0225002E722BBFE0263
:090AA100E32289828A83E4932296
:100AAA00F8BB010DE58229F582E5833AF583E8F082
:100ABA00225006E92582C8F622BBFE05E92582C82E
:020ACA00F22216
:00000001FF
