:1000000002019EC2E8D2EA12059B7F3012087212EA
:10001000059B7F2A1208727D017F22120953E4FD9D
:100020007F21120953E4FD7F241209537D287F2587
:100030001209537D077F261209537D017F3C120967
:08004000537D077F3D020953C7
:03004B0002022A84
:1000530002061BBB010689828A83E0225002E72243
:10006300BBFE02E32289828A83E49322BB010CE56F
:100073008229F582E5833AF583E0225006E9258259
:10008300F8E622BBFE06E92582F8E222E58229F59D
:1000930082E5833AF583E49322BB010689828A834E
:1000A300F0225002F722BBFE01F322F8BB010DE55B
:1000B3008229F582E5833AF583E8F0225006E925A3
:1000C30082C8F622BBFE05E92582C8F222BB010ADB
:1000D30089828A83E0F5F0A3E022500687F009E7DE
:1000E3001922BBFE07E3F5F009E3192289828A830B
:1000F300E493F5F074019322FAE6FB0808E6F92588
:10010300F0F618E6CA3AF6228B5E8A5F896012051A
:10011300C57B0E7D3B7F681203E5900042E0AB5E3A
:10012300AA5FA96012009C900043E0AB5EAA5FA99E
:10013300609000011200AE900044E09000021200B3
:10014300AE900045E09000031200AE900046E090B0
:1001530000041200AE900047E09000051200AE903C
:10016300004AE09000061200AE90004BE0900007BA
:100173001200AE90004CE09000081200AE90004DCB
:10018300E09000091200AE90004EE090000A1200C9
:10019300AE90004FE090000B0200AE787FE4F6D8FB
:1001A300FD75816A0201E5020386E493A3F8E493F3
:1001B300A34003F68001F208DFF48029E493A3F857
:1001C3005407240CC8C333C4540F4420C8834004C9
:1001D300F456800146F6DFE4800B01020408102088
:1001E3004080900A1EE47E019360BCA3FF543F301D
:1001F300E509541FFEE493A360010ECF54C025E02C
:1002030060A840B8E493A3FAE493A3F8E493A3C8E3
:10021300C582C8CAC583CAF0A3C8C582C8CAC58374
:10022300CADFE9DEE780BEC0E0C083C082C0D0750C
:10023300D000C000C001C002C003C005C006C00793
:100243007F07120A118F203006317B017A00790073
:10025300753A207F61120791E4FD7FE2120953D2C0
:10026300087F60120A118F16E516D39420400C758F
:100273001600E4FD7FE2120953C208300407E4FDCF
:100283007FE1120953300507E4FD7FE11209537D35
:10029300707F27120953D007D006D005D003D002B0
:1002A300D001D000D0D0D082D083D0E032E5E25468
:1002B3000CF5355390F3E59454F3440CF59475E23F
:1002C3000375E20775E206E59454F3440812030349
:1002D300E4F534E59454F344041203030534E5349C
:1002E300C3940840EE1203174404F5941203174411
:1002F3000CF59475E20775E203E5354403F5E22254
:10030300F5947F057E001208EE5394F37F057E007B
:100313001208EE227F057E001208EEE59454F322C4
:100323008F228D238B247B007A0079271209B0EF6B
:10033300604E74017E00A825088005C333CE33CEFA
:10034300D8F924FFFFEE34FFFEC3E524952504FD11
:10035300EFA805088005C333CE33CED8F9F528E5D9
:1003630026A805088002C333D8FCF526E5285226C3
:10037300F45227E5264227AB27AD23AF220209E437
:100383007F00221209662082107A0A79FE1203DAAC
:100393001203D23082FD1203D220941A7A0B790110
:1003A3001203DAB2837F647E0012092C3094FD7F3E
:1003B300647E0012092C3008CD900000E0B40108DF
:1003C300A3E024F57002B283E4F520C20880B77F6E
:1003D300647E0012092C227BFF7526027F0912041A
:1003E3009A228B2EAE07AC05E4FD12099E8F338C47
:1003F300DA120ABB8F32E53230E103E4F533AF069C
:100403007D0112099E8F33E53370031202B0AF2EC4
:10041300152EEF6027E5336023E52E700343E220BA
:10042300120ABB8F32782F120A03E5DA12009CE519
:10043300327F0020E1027F018F3380D2AF33228BE2
:100443000A7B007A00790F1209B0AD07ED6045749D
:10045300017E00A80B088005C333CE33CED8F92420
:10046300FFFFEE34FFFEC3E50A950B04FCEFA8047F
:10047300088005C333CE33CED8F9F510520FE50FFC
:10048300A804088002C313D8FCF50FAB0CAA0DA96E
:100493000E12009CAF05228B238A2489259000200D
:1004A300EFF0A37402F0FF7E00E5262402FDE4339F
:1004B300FCC3EF9DEE9C5027AB23AA24A92574FE11
:1004C3002FF58274FF3EF58312006FFD74202FF524
:1004D3008274003EF583EDF00FBF00010E80CAE584
:1004E300262402FFE433FE1207650209C2AC03AE01
:1004F30005E4FD12099EAD078EDA120ABBEF30E167
:1005030002E4FDAE041CEED394004031ED640170AF
:100513002CAB51AA52A9531200D0E5F0120A0A30AB
:10052300E102E4FDED60167851E475F0021200FB80
:100533001200D0120A0A30E1CAE4FD80C643E22069
:10054300AF05228F228D238B247B007A007926121C
:1005530009B0E525601774017E00A824088005C34F
:1005630033CE33CED8F9FFEF4526FF801874017ED2
:1005730000A824088005C333CE33CED8F9F4FFE4B2
:10058300FEEF5526FF8F26AB26AD23AF221209E4DB
:1005930022AB07AA067F68227B007A007911752DAA
:1005A3000522AB07AA067F68228D828C8312006F17
:1005B300FF1209DC0D22E475F0011200FB12005654
:1005C300FF22752F0175300075314222C2E9120AEC
:1005D300B1AE07E4FD228B498A4A894B7D0112099A
:1005E3009E8F4DE54D70031202B0AF4C154CEF607A
:1005F30024E54D6020E54C700343E220120ABB78EA
:1006030049120A03E5DA12009CEF7F0020E1027F22
:10061300018F4D80D5AF4D22C0E0C0F0C083C082B2
:10062300C0D075D000C000C001C002C003C004C068
:1006330005C006C007120AC5D007D006D005D004EE
:10064300D003D002D001D000D0D0D082D083D0F05C
:10065300D0E032AE03AC05E4FD12099EAD078CDA9F
:10066300120ABBEF30E102E4FDAC061EECD39400AA
:100673004015BD0112782D120A03120056120A0A00
:1006830030E1E6E4FD80E243E220AF05228B438ABA
:10069300448945E4FD12099EAE07AF461546EFD3E4
:1006A3009400401BBE01187843120A03120056F54A
:1006B300DA120ABB8F47E54730E1DFE4FE80DB4314
:1006C300E220AF06228B558A5689571209D3AF58B9
:1006D3001209DC7D017C00E5582401FFE433FEC3ED
:1006E300ED9FEC9E500FAB55AA56A9571205ACBD12
:1006F30000010C80E27F040209DC8B5A8A5B895C6F
:100703001209D3E55D04FF1209DC7F021209DCE460
:10071300FDFCC3ED955DEC9400500FAB5AAA5BA9A9
:100723005C1205ACBD00010C80E87F040209DC7596
:1007330025037526017B027D6B1207577D1B12076C
:10074300577D1C7F68120323E4F5257B067D6B7FB1
:10075300680205467F68120323752502E4F5267BAC
:1007630004228E278F28C2E87D0E7F2012095312A0
:10077300059B7F2A1208727B017A00792085282D38
:100783007FA0120872D2E8A204720550FA228B37B6
:100793008A3889391205CFEDC3953A5017E4FF1211
:1007A3000AB1AB37AA38A9398D82758300EF1200DD
:1007B300AE0D80E3D2E9AF06228B618A628963AF13
:1007C30005EFD394004010AB0785612F8A30893140
:1007D3007D747F680203E5AB61AA62A963E412003A
:1007E3009C22E4751CFFF51BF51AF51985E11DE53F
:1007F3001D5401F51EE51D5402F51F7F0A7E0012EC
:1008030008EEE51E60E6AF1D228B3D7B007A007982
:10081300411209B0AE3D7401A806088002C333D863
:10082300FC5541AB3EAA3FA94012009C22750B0622
:10083300750C01750D00750E427B067D757F681280
:100843000442900042E07F00B434027F0122AE07ED
:100853007F01120A9BAF061209F5E4FF120A9043C7
:10086300A60443B804E4F5E10F120AA6C2C2228B20
:100873002A8A2B892C1205CFEDC3952D500B782A8C
:100883001205B9120AB10D80EFD2E9AF06228B64CB
:100893008A658966AB64AA65A966120056600A7800
:1008A300641205B91209DC80EB221208B61208B6ED
:1008B300C28322C2837FE87E0312092CD2837FE89E
:1008C3007E0312092C22C2ACD29CC29FD29E4387C4
:1008D3008043D88075AAF375BA03C299E4F59922C7
:1008E3007FFA7E001208EE7FFA7E0000000000000F
:1008F300EF1F70011E144E70F22253071FEB6003AB
:10090300430720ED6003430740AB077D6D7F68021B
:1009130009E41205C57B027D727F681203E590002E
:1009230042E0FEA3E0FDEDFF22AD07AC061208E3B3
:100933001208E3ED1D70011C144C70F1227B017A47
:100943000079427D3A7F681209B0900042E0FF22AD
:10095300AE05C2E9120AB1AD07AF06120AB1D2E978
:10096300AF052212098C120A377F01120851D2AF48
:100973001208AD0207328A678B6875510075520001
:100983007553677B011204F0227593F77594FF7515
:1009930095FFE4F59E439F53F5972243E210EF251D
:1009A300E04D120A0A7F0130E1027F00228B298A7F
:1009B3002A892B8B2F8A3089317B011203E522E4AC
:1009C300F520C208C2E87D0F7F20120953D2E82226
:1009D300AE077F531209DCAF063099FDC2998F9998
:1009E300228B29752D00752E00752F297B01120688
:1009F3005622EF25E025E0FFE5E254F34FF5E2222E
:100A0300E475F0010200FBF5DA120ABBEF22C2E93A
:100A1300120AB1E4FF120AB1D2E9220511E7E7E7AE
:100A2300E7E7C108011600007525017B027D6A7F97
:100A330068020546C2E8D2EAD2B91200030209C22B
:100A4300AB07AA067D157F68020979AB07AA067D65
:100A5300177F680209798F257B077D6A7F68020506
:100A630046EF600443E2802253E27F22EF600443B7
:100A7300E2402253E2BF22EF600453E2DF2243E26B
:100A83002022EF600453E2EF2243E21022EF7004CE
:100A930043E2022253E2FD22EF600443E2012253C8
:100AA300E2FE22EF600475E1DF2275E120228FE789
:100AB300E5E630E1FBAFE722E4F569E56960FCAF09
:100AC3006A2285E16AE56A5401F56922900040E0F3
:100AD300FEA3E0FF227D061205940209797D081228
:100AE30005940209797D0A1205A50209797D13127D
:100AF30005A5020979EF547FF5D92242310042322C
:010B030000F1
:00000001FF
