:10000000020A628B108A1189127D011201C88F14B5
:10001000E5147003120800AF131513EF6028E51400
:100020006024E513700343E2201200497810E47560
:10003000F001120135E5DA120123EF7F0020E10221
:100040007F018F1480D1AF1422E4F51DE51D60FC03
:10005000AF1E220200CFE4F5937594FF7595FF75EE
:1000600096FF7F0112018D90000074A6F0D2AF20A0
:1000700094FD7B017A0079007519017F07120093C6
:100080007F647E0012016C3094FD7F647E0012015B
:100090006C80DC8B168A178918E4FD1201C8AE0744
:1000A000AF191519EFD39400401FBE011C7816E458
:1000B00075F00112013512010AF5DA1200498F1AA2
:1000C000E51A30E1DBE4FE80D743E220AF0622C030
:1000D000E0C0F0C083C082C0D075D000C000C001B5
:1000E000C002C003C004C005C006C00712024CD045
:1000F00007D006D005D004D003D002D001D000D064
:10010000D0D082D083D0F0D0E032BB010689828A81
:1001100083E0225002E722BBFE02E32289828A8327
:10012000E49322BB010689828A83F0225002F722DF
:10013000BBFE01F322FAE6FB0808E6F925F0F61803
:10014000E6CA3AF622E4750BFFF50AF509F50885CB
:10015000E10CE50C5401F50DE50C5402F50E7F0A97
:100160007E001201B9E50D60E6AF0C22E4FDFCC390
:10017000ED9FEC9E50167BFC7A01EB1B8A8370018D
:100180001A458370F50DBD00010C80E322AE077F98
:1001900001120236AF061201F1E4FF12022B43A650
:1001A0000443B804E4F5E10F120241C2C2227FFA0F
:1001B0007E001201B97FFA7E000000000000EF1FF0
:1001C00070011E144E70F22243E210EF25E04DF54F
:1001D000DA120049EF7F0130E1027F0022AD07AC67
:1001E000061201AE1201AEED1D70011C144C70F12F
:1001F00022EF25E025E0FFE5E254F34FF5E222EFA0
:10020000600443E2802253E27F22EF600443E24035
:100210002253E2BF22EF600453E2DF2243E22022B6
:10022000EF600453E2EF2243E21022EF700443E256
:10023000022253E2FD22EF600443E2012253E2FE78
:1002400022EF600475E1DF2275E1202285E11EE5E1
:0C0250001E5401F51D22EF547FF5D92249
:10080000E5E2540CF51C5390F3E59454F3440CF5D5
:100810009475E20375E20775E206E59454F3440823
:10082000120853E4F51BE59454F3440412085305ED
:100830001BE51BC3940840EE1208674404F59412AC
:100840000867440CF59475E20775E203E51C440360
:10085000F5E222F5947F057E001201B95394F37FEF
:10086000057E001201B9227F057E001201B9E594D0
:0308700054F3221C
:0C0A6200787FE4F6D8FD75811E02005676
:00000001FF
