:03000000020800F3
:0C080000787FE4F6D8FD75810F020847F0
:10092B006163656E6465750A00617061676F750A56
:10093B00004C6F72656D20497073756D3130305F8F
:04094B00485A0A00FC
:0D09EF00010ACB010BEA010C000208000117
:03000B000209B82F
:1009B800C0E0E50C700EE509150970021508850AF6
:0709C8008C850B8AD0E032A0
:10094F00D2867FE87E0312090AC2867FE87E0312F1
:0E095F00090AD2867FE87E0312090AC28622A8
:1009A0007593B77594FF7595FFE4F59EF59FF597E0
:0809B00012096DD2AF02094FDC
:10088C001209A02082177BFF7A09792B1208E1D27A
:10089C00861209CF1209063082FD12090620941720
:1008AC007BFF7A0979341208E1C2861209DF12093A
:1008BC00063094FD120906D3E5099400E50864801E
:1008CC00948050BF7BFF7A09793C1208E1750800CF
:0508DC0075090180AE6A
:10096D00C2ACD29CC29FD29E43878043D88075AAC9
:0A097D00F375BA03C299E4F599225C
:0809FD003099FDC2998F992287
:1008E1008B0D8A0E890FAB0DAA0EA90F1209876015
:1008F10013050FE50F7002050E14F9120987FF1297
:0509010009FD80E22267
:040906007F647E008C
:10090A00E4FDFCC3ED9FEC9E50167BFC7A01EB1BC9
:10091A008A8370011A458370F50DBD00010C80E3CE
:01092A0022AA
:1009CF00758931850A8C850B8AD2A9D2AFD28C2238
:1009DF00758931850A8C850B8AC2A9D2AFC28C2248
:10080C0002088CE493A3F8E493A34003F68001F26E
:10081C0008DFF48029E493A3F85407240CC8C333ED
:10082C00C4540F4420C8834004F456800146F6DFBC
:10083C00E4800B01020408102040809009EFE47E54
:10084C00019360BCA3FF543F30E509541FFEE493B1
:10085C00A360010ECF54C025E060A840B8E493A378
:10086C00FAE493A3F8E493A3C8C582C8CAC583CAA3
:10087C00F0A3C8C582C8CAC583CADFE9DEE780BE5B
:0109FC0000FA
:10098700BB010689828A83E0225002E722BBFE026E
:09099700E32289828A83E49322A1
:00000001FF
