:03000000020056A5
:0C005600787FE4F6D8FD75812402009D3F
:0F02FB00011C00011F00012000011D00011E0059
:1001B200E4F51C438901D2A9D2AFF5937594FF757A
:1001C20095FF7596FF7F011203507F0212030B7F8A
:1001D200011203457F071200037F011203247F01EE
:1001E20012033AE4FF12032F43A60443B8047580B6
:0901F200AAE4F51C851C8080FBC9
:03000B0002036687
:09036600051C758A00758CFF323C
:030053000201FBAC
:0901FB00C0E0C0D075D000C007BF
:10020400AFE1EF30E2140520E5DA30E005751D01B9
:100214008015751D00751E01801FEF30E01BE51D64
:10022400B40109EF20E112851CDA800DAFDAE51E76
:090234006007EF04F51C751E00C3
:07023D00D007D0D0D0E03261
:0B02B7007FFA7E001202C27FFA7E0078
:0F02C2000000000000EF1F70011E144E70F222AA
:1002E700AD07AC061202B71202B7ED1D70011C1460
:0402F7004C70F12234
:0B031900EF600443E2802253E27F22E9
:0B032400EF600443E2402253E2BF22DE
:0B032F00EF600453E2DF2243E22022D3
:0B033A00EF600453E2EF2243E21022C8
:06000300EF547FF5D92245
:0E030B00EF25E025E0FFE5E254F34FF5E22296
:0B034500EF700443E2022253E2FD22AD
:0B035000EF600443E2012253E2FE22B2
:0B035B00EF600475E1DF2275E1202255
:10029600AE077F01120350AF0612030BE4FF1203F1
:1002A6004543A60443B804E4F5E10F12035BC2C25A
:0102B6002225
:10026F00E4750BFFF50AF509F50885E10CE50C546B
:10027F0001F50DE50C5402F50E7F0A7E001202C245
:06028F00E50D60E6AF0C76
:010295002246
:1002D10043E210EF25E04DF5DA12026FEF30E10352
:0502E1007F00227F01F7
:0102E60022F5
:06000E008B108A1189121B
:10001400E4FD1202D18F14AF131513EFD3940040F3
:0600240027E514B40122DF
:10002A00AB100512E512AA117002051114F9120299
:10003A0044F5DA12026F8F15E51530E1D4E4F514B0
:07004A0080CF43E220AF1458
:01005100228C
:060165008B178A188919AE
:10016B007D011202D18F1BE51B70031200E2AF1A47
:10017B00151AEF602FE51B602BE51A700343E22085
:10018B0012026FAB170519E519AA1870020518149E
:10019B00F9E5DA12025DEF20E1047F0180027F00B6
:0601AB008F1B80CAAF1B90
:0101B100222B
:1000E200E5E2540CF5225390F3E59454F3440CF5F5
:1000F2009475E20375E20775E206E59454F3440849
:10010200F5947F057E001202C25394F37F057E00B0
:100112001202C2E4F521E59454F34404F5947F05F8
:100122007E001202C25394F37F057E001202C205C2
:1001320021E521C3940840DE7F057E001202C2E55C
:100142009454F34404F5947F057E001202C2E594B0
:1001520054F3440CF59475E20775E203E522440377
:02016200F5E2C4
:010164002278
:100062000201B2E493A3F8E493A34003F68001F201
:1000720008DFF48029E493A3F85407240CC8C3339F
:10008200C4540F4420C8834004F456800146F6DF6E
:10009200E4800B01020408102040809002FBE47E01
:1000A200019360BCA3FF543F30E509541FFEE49363
:1000B200A360010ECF54C025E060A840B8E493A32A
:1000C200FAE493A3F8E493A3C8C582C8CAC583CA55
:1000D200F0A3C8C582C8CAC583CADFE9DEE780BE0D
:01030A0000F2
:10024400BB010689828A83E0225002E722BBFE02B8
:09025400E32289828A83E49322EB
:10025D00BB010689828A83F0225002F722BBFE0180
:02026D00F3227A
:00000001FF
