:1000000002049A7D0612077F020CED020D69EF4E85
:100010007008FE7F01ED1D70011C900250EEF0A3F0
:10002000EFF0A3ECF0A3EDF0900250E0FEA3E0FFB0
:10003000F5828E83E4F0A3F0ED24FCFDEC34FF8F19
:0A004000828E83A3A3F0A3EDF0224B
:03004B000205AFFC
:1000530002099D1205262082567A0F793912016210
:100063007F107E001203658E0A8F0BEF4E7BFF70AD
:10007300097A0F793C75260880077A0F794575262A
:1000830007120174E4F511F512E50B2512F582E56B
:100093000A3511F583E512F00512E5127002051118
:1000A3006410451170E312018E3082FD12018E201F
:1000B30094427A0F794D120162AA0AA90B7B01754A
:1000C30026107F0F12081C7F0A7E00120CB3AF0BA1
:1000D300AE0A1201967BFF7A0F795075260412013E
:1000E30074B2837F647E00120CB33094FD7F647E10
:1000F30000120CB3300838900000E06401702BA3A9
:10010300E024F560140470227BFF7A0F795575267D
:1001130002120181120E958011120E9F7BFF7A0F3E
:100123007958752603120181B283E4F520C208D3FE
:10013300E5099400E5086480948040030200597B3C
:10014300017A0279341204017B017A02793475262B
:100153000C7F0412081C7508007509010200597B05
:10016300FF7526027F0912081C7F0A7E00120CB35A
:10017300227F0912081C7F0A7E00120CB3227F091A
:1001830012081C7F0A7E00120CB3227F647E0012C9
:100193000CB322EF4E7003020299900252E07002F8
:1001A300A3E07003020299CDEFCDCCEECCED24FC9D
:1001B300FDEC34FFFC7522027523508523828522D2
:1001C30083E0FAA3E08A24F52545246011D3E525CD
:1001D3009FE5249E500885242285252380DDE5257F
:1001E3004524604A8D828C83A3A3E0FAA3E02FFF0A
:1001F300EA3EFEEF65257003EE65247031852582A6
:10020300852483A3A3E0FEA3E02404FFE43E8D82C0
:100213008C83A3A38FF012034F852582852483E06B
:10022300FFA3E08D828C83CFF0A3EFF0800B8D8250
:100233008C83E524F0A3E525F0852382852283A31F
:10024300A3E0FEA3E02523FFEE3522FEEF2404FF07
:10025300E43EFEEF6D7002EE6C70308D828C83A3F2
:10026300A3E0FEA3E02404FFE43E852382852283EA
:10027300A3A38FF012034F8D828C83E0FFA3E0854D
:100283002382852283CFF0A3EFF022852382852268
:1002930083ECF0A3EDF022BB010689828A83E0227E
:1002A3005002E722BBFE02E32289828A83E493227F
:1002B300BB010CE58229F582E5833AF583E0225000
:1002C30006E92582F8E622BBFE06E92582F8E2224A
:1002D300E58229F582E5833AF583E49322BB01069F
:1002E30089828A83F0225002F722BBFE01F322F8AF
:1002F300BB010DE58229F582E5833AF583E8F02217
:100303005006E92582C8F622BBFE05E92582C8F21C
:1003130022BB010A89828A83E0F5F0A3E02250061A
:1003230087F009E71922BBFE07E3F5F009E3192279
:1003330089828A83E493F5F074019322FAE6FB0839
:1003430008E6F925F0F618E6CA3AF622C5F0F8A34E
:10035300E028F0C5F0F8E582158270021583E038D5
:10036300F0228E228F237E027F508F828E83E0FCC9
:10037300A3E0FD4C7003FEFF228D828C83A3A3E0D8
:10038300FAA3E0FBC39523EA95225008CEECCECF27
:10039300EDCF80D6C3EB9523F525EA9522F524C34B
:1003A300E5259410E524940050198D828C83E0FB9D
:1003B300A3E08F828E83CBF0A3EBF0ED2404FFE464
:1003C3003CFE2274FC2525F52574FF3524F5248D88
:1003D300828C83A3A3F0A3E525F0ED2404FFE43C82
:1003E300FEEF2525FFEE3524FE8F82F583A3A3E5DB
:1003F30022F0A3E523F0EF2404FFE43EFE228B2248
:100403008A2389247531017532027533427B0E7D4F
:100413003B7F6812070B900242E0AB22AA23A92478
:100423001202E0900243E0AB22AA23A92490000128
:100433001202F2900244E09000021202F29002458E
:10044300E09000031202F2900246E09000041202D0
:10045300F2900247E09000051202F290024AE09007
:1004630000061202F290024BE09000071202F29093
:10047300024CE09000081202F290024DE090000955
:100483001202F290024EE090000A1202F290024F22
:10049300E090000B0202F2787FE4F6D8FD75815EEE
:1004A3000204E1020056E493A3F8E493A34003F6A5
:1004B3008001F208DFF48029E493A3F85407240CA5
:1004C300C8C333C4540F4420C8834004F456800186
:1004D30046F6DFE4800B0102040810204080900CF4
:1004E3004BE47E019360BCA3FF543F30E509541FE6
:1004F300FEE493A360010ECF54C025E060A840B88A
:10050300E493A3FAE493A3F8E493A3C8C582C8CA07
:10051300C583CAF0A3C8C582C8CAC583CADFE9DEDA
:10052300E780BE120D00120E107F01120BD3D2AF63
:10053300120C2F7BFF7A0E79EE75260D1205A2128F
:100543000E1C120AB47BFF7A0E79FC75261612056F
:10055300A2120BB2EF7BFF60097A0F791375261590
:1005630080077A0F792975260F7F0912081C7F0AE5
:100573007E00120CB37FE47EF31200037F887E01BA
:10058300120ED07F0F7E06120ED87FE47EFF120E6E
:10059300E07F067E00120E277F3C7E00020E327F34
:1005A3000912081C7F0A7E00120CB322C0E0C0832C
:1005B300C082C0D075D000C000C001C002C003C05B
:1005C30005C006C0077F07120DF78F203006317B69
:1005D300017A007900753C207F61120B13E4FD7FE3
:1005E300E2120CDAD2087F60120DF78F13E513D3F2
:1005F3009420400C751300E4FD7FE2120CDAC2086C
:10060300300407E4FD7FE1120CDA300507E4FD7FD7
:10061300E1120CDA7D707F27120CDAD007D006D0F6
:1006230005D003D002D001D000D0D0D082D083D067
:10063300E032E5E2540CF5375390F3E59454F34478
:100643000CF59475E20375E20775E206E59454F33D
:100653004408120688E4F536E59454F3440412067C
:10066300880536E536C3940840EE12069C4404F52B
:100673009412069C440CF59475E20775E203E53782
:100683004403F5E222F5947F057E00120C8C53940B
:10069300F37F057E00120C8C227F057E00120C8CEA
:1006A300E59454F3228F228D238B247B007A0079E7
:1006B30027120D24EF604E74017E00A825088005E3
:1006C300C333CE33CED8F924FFFFEE34FFFEC3E5A8
:1006D30024952504FDEFA805088005C333CE33CE4A
:1006E300D8F9F528E526A805088002C333D8FCF518
:1006F30026E5285226F45227E5264227AB27AD23C9
:10070300AF22020D587F00228B30AE07AC05E4FD0B
:10071300120D128F358CDA120EB38F34E53430E1BB
:1007230003E4F535AF067D01120D128F35E5357003
:1007330003120635AF301530EF6027E5356023E54A
:1007430030700343E220120EB38F347831120DE977
:10075300E5DA1202E0E5347F0020E1027F018F3504
:1007630080D2AF35227531017532027533427B0277
:1007730022900242E0FEA3E0FDEDFF22AB07AA06B2
:100783007F68227B007A00790C752D0522AB07AABE
:10079300067F6822758931758C52758A63228D8232
:1007A3008C831202B3FF120D500D22E475F0011277
:1007B300033F12029AFF22C2E9120EA9AE07E4FD1B
:1007C300228B247B007A007929120D24AD07ED607A
:1007D3004574017E00A825088005C333CE33CED8E7
:1007E300F924FFFFEE34FFFEC3E524952504FCEF57
:1007F300A804088005C333CE33CED8F9F52A52298D
:10080300E529A804088002C313D8FCF529AB26AA5E
:1008130027A9281202E0AF05228B238A2489259079
:100823000020EFF0A37402F0FF7E00E5262402FD12
:10083300E433FCC3EF9DEE9C5027AB23AA24A925E8
:1008430074FE2FF58274FF3EF5831202B3FD74200C
:100853002FF58274003EF583EDF00FBF00010E808B
:10086300CAE5262402FFE433FE120AE7020D36AC82
:1008730003AE05E4FD120D12AD078EDA120EB3EFCF
:1008830030E102E4FDAE041CEED394004031ED648C
:1008930001702CAB27AA28A929120314E5F0120D25
:1008A300F030E102E4FDED60167827E475F0021202
:1008B300033F120314120DF030E1CAE4FD80C64376
:1008C300E220AF05228F228D238B247B007A0079CF
:1008D30026120D24E525601774017E00A8240880E4
:1008E30005C333CE33CED8F9FFEF4526FF80187406
:1008F300017E00A824088005C333CE33CED8F9F493
:10090300FFE4FEEF5526FF8F26AB26AD23AF221261
:100913000D5822C2E8D2EA1207867F30120BF41276
:1009230007867F2A120BF47D017F22120CDAE4FD85
:100933007F21120CDAE4FD7F24120CDA7D287F2557
:10094300120CDA7D077F26120CDA7D017F3C120C34
:10095300DA7D077F3D020CDA8B4B8A4C894D7D0192
:10096300120D128F4FE54F7003120635AF4E154E21
:10097300EF6024E54F6020E54E700343E220120E42
:10098300B3784B120DE9E5DA1202E0EF7F0020E1C4
:10099300027F018F4F80D5AF4F22C0E0C0F0C083EC
:1009A300C082C0D075D000C000C001C002C003C067
:1009B30004C005C006C007120EBDD007D006D0057F
:1009C300D004D003D002D001D000D0D0D082D083C5
:1009D300D0F0D0E032AE03AC05E4FD120D12AD074A
:1009E3008CDA120EB3EF30E102E4FDAC061EECD359
:1009F30094004015BD0112782D120DE912029A12CE
:100A03000DF030E1E6E4FD80E243E220AF05228B06
:100A1300458A468947E4FD120D12AE07AF481548D3
:100A2300EFD39400401BBE01187845120DE9120262
:100A33009AF5DA120EB38F49E54930E1DFE4FE801F
:100A4300DB43E220AF06228B518A528953120D47B2
:100A5300AF54120D507D017C00E5542401FFE433B3
:100A6300FEC3ED9FEC9E500FAB51AA52A953120740
:100A7300A1BD00010C80E27F04020D508B568A5702
:100A83008958120D47E55904FF120D507F02120DCC
:100A930050E4FDFCC3ED9559EC9400500FAB56AAFE
:100AA30057A9581207A1BD00010C80E87F04020D6D
:100AB300507525037526017B027D6B120AD97D1BB8
:100AC300120AD97D1C7F681206A8E4F5257B067DF2
:100AD3006B7F680208C87F681206A8752502E4F5D3
:100AE300267B04228E278F28C2E87D0E7F20120CDE
:100AF300DA1207867F2A120BF47B017A00792085AC
:100B0300282D7FA0120BF4D2E8A204720550FA221A
:100B13008B398A3A893B1207BAEDC3953C5017E4E7
:100B2300FF120EA9AB39AA3AA93B8D82758300EF58
:100B33001202F20D80E3D2E9AF06228B1D8A1E89D1
:100B43001FAF05EFD394004010AB07851D318A32E8
:100B530089337D747F6802070BAB1DAA1EA91FE4AE
:100B63001202E022E47519FFF518F517F51685E171
:100B73001AE51A5401F51BE51A5402F51C7F0A7E87
:100B830000120C8CE51B60E6AF1A228B3F7B007AC8
:100B9300007943120D24AE3F7401A806088002C3F6
:100BA30033D8FC5543AB40AA41A9421202E0227557
:100BB30025067526017527027528427B067D757FFC
:100BC300681207C4900242E07F00B434027F01221E
:100BD300AE077F01120E7FAF06120DDBE4FF120E8C
:100BE3007443A60443B804E4F5E10F120E8AC2C2AB
:100BF300228B2A8A2B892C1207BAEDC3952D500B11
:100C0300782A1207AE120EA90D80EFD2E9AF0622A1
:100C13008B5A8A5B895CAB5AAA5BA95C12029A6005
:100C23000A785A1207AE120D5080EB22120C3812BA
:100C33000C38C28322C2837FE87E03120CB3D283B3
:100C43007FE87E03120CB32202080001050CE7E7DC
:100C5300E7E7E7C108011300004802500000000065
:100C630000000000C2ACD29CC29FD29E4387804347
:100C7300D88075AAF375BA03C299E4F599227FFA6D
:100C83007E00120C8C7FFA7E000000000000EF1F34
:100C930070011E144E70F22253071FEB60034307CB
:100CA30020ED6003430740AB077D6D7F68020D585D
:100CB300AD07AC06120C81120C81ED1D70011C14E2
:100CC3004C70F1227B017A0279427D3A7F68120DE2
:100CD30024900242E0FF22AE05C2E9120EA9AD073D
:100CE300AF06120EA9D2E9AF05228A228B237527FC
:100CF300007528007529227B01120872227593F76B
:100D03007594FF7595FFE4F59E439F53F597224332
:100D1300E210EF25E04D120DF07F0130E1027F007C
:100D2300228B2B8A2C892D8B318A3289337B0112BA
:100D3300070B22E4F520C208C2E87D0F7F20120CC6
:100D4300DAD2E822AE077F53120D50AF063099FD79
:100D5300C2998F99228B29752D00752E00752F2925
:100D63007B011209D822C0E0E509150970021508B4
:100D730012079AD0E0321207687D067F6812070BCC
:100D8300120774221207687D087F6812070B120787
:100D930074221207687D0A7F6812070B12077422F8
:100DA3001207687D137F6812070B1207742212075C
:100DB300687D157F6812070B120774221207687D7E
:100DC300177F6812070B120774221207687D727F60
:100DD3006812070B12077422EF25E025E0FFE5E216
:100DE30054F34FF5E222E475F00102033FF5DA1202
:100DF3000EB3EF22C2E9120EA9E4FF120EA9D2E943
:100E0300227525017B027D6A7F680208C8C2E8D289
:100E1300EAD2B9120916020D367E007F407DF47CBA
:100E23000102000EAB07AA067D157F68020CEDAB2D
:100E330007AA067D177F68020CED8F257B077D6A65
:100E43007F680208C8EF600443E2802253E27F22F6
:100E5300EF600443E2402253E2BF22EF600453E217
:100E6300DF2243E22022EF600453E2EF2243E21049
:100E730022EF700443E2022253E2FD22EF600443B7
:100E8300E2012253E2FE22EF600475E1DF2275E105
:100E93002022120797D2A9D2AFD28C22120797C26F
:100EA300A9D2AFC28C228FE7E5E630E1FBAFE722A0
:100EB300E4F55DE55D60FCAF5E2285E15EE55E54D1
:100EC30001F55D22900240E0FEA3E0FF227D0812BF
:100ED300077F020CED7D0A120790020CED7D1312C1
:100EE3000790020CEDEF547FF5D92253656E736FB3
:100EF30072204C696761646F0054657374616E643A
:100F03006F206120636F6E6578616F204932430003
:100F1300436F6E65637461646F20636F6D207375D7
:100F2300636573736F004572726F206E6120636F28
:100F33006E6578616F004231004465752072756992
:100F43006D00416C6F6361646F00423200667265CD
:100F530065004F6E004F666600FB00003E000B000D
:100F630036000100020003000000650054FFEF009B
:100F730000FA80000B128200010002000000000052
:100F830000000000000000000000280000FFFF45F3
:100F930081FFFFFA7200000000000003E800000078
:100FA3000100017FFFFFFE8001001B000000000025
:100FB300000000000000000000003E03304000007D
:100FC3000002CAE3093E8000002000000000000088
:100FD30000400000006000000041FF000000000B23
:100FE3002A0000165500002182FD872650FD80004F
:100FF30000001F0000000580000000000000010049
:101003000000020000000300004000000000000494
:101013006F0002653200005EC04000000000000067
:10102300000000000000000000FB8C6F5DFD5D0808
:10103300D9007C733B006C12CC3200139D3200D07C
:10104300D632000800400001F4FFE6807902000078
:10105300000000D0D600002710FB00000040000075
:10106300000000000000000000000000010000007C
:101073000000000100010000000000FA36FFBC3050
:101083008E0005FBF0FFD95BC8FFD09ABE000010AD
:10109300A9FFF41EB200CEBBF70000000100000060
:1010A30004000200020200000CFFC2800000018065
:1010B3000000CF800040000000000000010000009D
:1010C3000000000600000000140000000000000003
:1010D300000000000000000000000000000000000D
:1010E30000000000000000000000000000000000FD
:1010F30000000000000000000000000000033F6843
:10110300B6793528BCC67ED16C8000000040000053
:10111300000000B26A0000000000000000000000B0
:101123000000003FF000000030000000000000005D
:1011330000000000000000000000000000000000AC
:101143000000000000000000000000254D002F708B
:101153006D000005AE000C02D00000000000650029
:1011630054FFEF00000000000000000100004400F5
:101173000000000C000000010000000000006500FA
:101183000000540000FFEF0000000000000000001A
:10119300000000000000000000400000000000000C
:1011A30000000000000000000040000000000000FC
:1011B300000000000000000000000000010000002B
:1011C300020000000000000000000000000000001A
:1011D300000000000000000000000000000000000C
:1011E300000000000000000000001B0000000000E1
:1011F30000000000000000000000000000000000EC
:1012030000000000000000000000000000000000DB
:10121300000000000040000000001B000000000070
:1012230000000000000000000000000000000000BB
:1012330000000000000000000000000000000000AB
:10124300000000000000000000000000000000009B
:10125300000000000000000000D8DCBAA2F1DEB2FA
:10126300B8B4A88191F74A907F916AF3F9DBA8F9A2
:10127300B0BAA080F2CE81F3C2F1C1F2C3F3CCA223
:10128300B280F1C6D880BAA7DFDFDFF2A7C3CBC530
:10129300B6F087A2942448703C95406834589B78F4
:1012A300A2F183922D557DD8B1B4B8A1D09180F22B
:1012B30070F370F27C80A8F101B09887D943D88687
:1012C300C988BAA1F20EB89780F1A9DFDFDFAADFE0
:1012D300DFDFF2AAC5CDC7A90CC92C97979797F161
:1012E300A989264666B0B4BA80ACDEF2CAF1B28CE4
:1012F30002A9B69800890E161EB8A9B4992C547C7D
:10130300B08AA896365676F1B9AFB4B083C0B8A800
:101313009711B18F98B9AFF0240844106418F1A362
:1013230029557DAF83B593AFF0002850F1A3869F75
:1013330061A6DADEDFD9FAA38696DB31A6D9F8DF18
:10134300BAA68FC2C5C7B28CC1B8A2DFDFDFA3DFE5
:10135300DFDFD8D8F1B8A8B286B4980D355DB8AA46
:1013630098B0872D353DB2B6BAAF8C96198F9FA72B
:101373000E161EB49AB8AA872C547CB9A3DEDFDFFD
:10138300A3B180F2C4CDC9F1B8A9B499830D355D79
:1013930089B9A32D557DB593A30E161EA92C547C94
:1013A300B8B4B0F19783A81184A50998A383F0DAA0
:1013B300240844106418D8F1A529557DA585950204
:1013C3001A2E3A565A4048F9F3A3D9F8F0988324D1
:1013D30008441064189782A8F111F098A2240844D5
:1013E300106418DAF3DED883A59401D9A302F1A21D
:1013F300C3C5C7D8F18492A24DDA2AD84869D92A3D
:10140300D86855DA32D85071D932D8705DDA3AD803
:101413005879D93AD87893A34DDA2AD84869D92A82
:10142300D86855DA32D85071D932D8705DDA3AD8E3
:101433005879D93AD878A88A9AF02850789EF388B0
:1014430018F19F1D98A8D908D8C89F129EF315A814
:10145300DA1210D8F1AFC8978734B5B994A421F341
:10146300D922D8F22DF3D92AD8F235F3D932D8813B
:10147300A4606061D961D86C6869D969D8747071E6
:10148300D971D8B1A384193D5DA3831A3E5E93102D
:1014930030811011B8B0AF8F94F2DA3ED8B49AA865
:1014A3008729DAF8D8879A35DAF8D8879A3DDAF8AF
:1014B300D8B1B9A49885022E56A581000C14A39720
:1014C300B08AF12DD928D84DD948D86DD968D8B16B
:1014D300840DDA0ED8A32983DA2C0ED8A38449838A
:1014E300DA2C4C0ED8B8B0A88A9AF520AADADFD83D
:1014F300A840AAD0DADED8A860AADAD0DFD8F1975C
:1015030086A8319B069907AB9728889BF00C20147B
:1015130040B8B0B4A88C9CF0042851791D3014381D
:10152300B282ABD0982C505078789BF11AB0F08AE5
:101533009CA82951798B2951798A2470598B205879
:10154300718A4469388B3940688A6448318B3049E1
:1015530060A588200971584468113964493019F12C
:10156300AC002C547CF08CA804285078F188972682
:10157300A85998AC8C02264666F0899CA829517913
:10158300247059446938644831A98809205970ABDB
:1015930011384069A8193148608CA83C415C207C13
:1015A30000F187981986A86E767EA999882D557DB6
:1015B3009EB9A38A228A6E8A568A5E9FB1830626C3
:1015C30046660E2E4E6E9DB8AD002C547CF2B18C47
:1015D300B499B9A32D557D8191AC38AD3AB58391BA
:1015E300AC2DD928D84DD948D86DD968D88C9DAEA3
:1015F30029D904AED851D904AED879D904D881F306
:101603009DAD008DAE1981ADD901D8F2AEDA26D8E1
:101613008E912983A7D9ADADADADF32AD8D8F1B05A
:10162300AC89913E5E76F3AC2E2EF1B18C5A9CAC14
:101633002C2828289CAC3018A8988128343C97245F
:10164300A728343C9C24F2B089AC912C4C6C8A9B27
:101653002DD9D8D851D9D8D879D9D8D8F19E88A33B
:1016630031DAD8D8912DD928D84DD948D86DD96831
:10167300D8B18393353D8025DAD8D88569DAD8D8AF
:10168300B49381A328343CF3AB8BF8A391B609B48C
:10169300D9ABDEFAB0879CB9A3DDF1A3A3A3A395CD
:1016A300F1A3A3A39DF1A3A3A3A3F2A3B49080F2F8
:1016B300A3A3A3A3A3A3A3A3A3A3B2A3A3A3A3A3E8
:1016C300A3B087B599F1A3A3A398F1A3A3A3A39769
:1016D300A3A3A3A3F39BA3A3DCB9A7F1262626D830
:1016E300D8FF037B034CCD6C03AB033656760068FF
:1016F3000402CB47A202180400058BC1010C0400AD
:10170300000000037F060CC92C97979703890326D3
:101713004666006C02200002400400000000024400
:10172300040000000002480400000000024C040012
:1017330000000002500400000000025404000000F6
:101743000002580400000000025C040000000002D4
:10175300BC040000000001EC0400004000037F060D
:101763000CC92C9797970402030D355D0409048770
:101773002D353D00A3010000000001078601FE078F
:101783004105F120283038077E01300746019A07CA
:101793004704F1283038076C04F128303802160268
:1017A300000101B202FFFF0190040923A135016A80
:1017B3000206000160080000000000000000006055
:1017C30004400000000162020000006004004000C9
:0117D3000015
:00000001FF
