:10000000020A397D06120B7802135D0213D9EF4EF6
:100010007008FE7F01ED1D70011C900281EEF0A3BF
:10002000EFF0A3ECF0A3EDF0900281E0FEA3E0FF7F
:10003000F5828E83E4F0A3F0ED24FCFDEC34FF8F19
:0A004000828E83A3A3F0A3EDF0224B
:03004B00020BD5D0
:10005300021029BB010689828A83E0225002E7222B
:10006300BBFE02E32289828A83E49322BB010CE56F
:100073008229F582E5833AF583E0225006E9258259
:10008300F8E622BBFE06E92582F8E222E58229F59D
:1000930082E5833AF583E49322BB010689828A834E
:1000A300F0225002F722BBFE01F322F8BB010DE55B
:1000B3008229F582E5833AF583E8F0225006E925A3
:1000C30082C8F622BBFE05E92582C8F222C5F0F8F4
:1000D300A3E028F0C5F0F8E582158270021583E0ED
:1000E30038F022A3F8E0C5F025F0F0E58215827020
:1000F300021583E0C838F0E822BB010A89828A83AB
:10010300E0F5F0A3E022500687F009E71922BBFED1
:1001130007E3F5F009E3192289828A83E493F5F072
:1001230074019322FAE6FB0808E6F925F0F618E6CF
:10013300CA3AF622E3F5F009E208B5F06BDFF58081
:1001430067E3F5F009E608B5F05EDFF5805A87F05E
:1001530009E608B5F052DFF6804E87F009E208B5EC
:10016300F046DFF6804288828C8387F009E0A3B5EE
:10017300F036DFF6803288828C8387F009E493A31C
:10018300B5F025DFF5802188828C83E3F5F009E063
:10019300A3B5F014DFF5801088828C83E3F5F009B2
:1001A300E493A3B5F002DFF4020266808780E9805E
:1001B3009080D4803E8015806E807E809D80B78045
:1001C3008D80A380518074803C02027289828A836D
:1001D300ECFAE493F5F0A3C8C582C8CCC583CCE49C
:1001E30093A3C8C582C8CCC583CCB5F076DFE3DE64
:1001F300E1807089828A83E493F5F0A3E208B5F085
:1002030062DFF4805E89828A83E0F5F0A3E608B5B5
:10021300F051DFF5804D89828A83E0F5F0A3E2088F
:10022300B5F040DFF5803C89828A83E493F5F0A33F
:10023300E608B5F02EDFF4802A8002805789828A8F
:1002430083ECFAE493F5F0A3C8C582C8CCC583CC8C
:10025300E0A3C8C582C8CCC583CCB5F006DFE4DE15
:10026300E280007FFFB5F0020F2240027F01228966
:10027300828A83ECFAE0F5F0A3C8C582C8CCC583B3
:10028300CCE0A3C8C582C8CCC583CCB5F0D5DFE527
:10029300DEE380CF89828A83ECFAE0F5F0A3C8C558
:1002A30082C8CCC583CCE493A3C8C582C8CCC5831C
:1002B300CCB5F0AFDFE4DEE280A988F0EF60010E99
:1002C3004E60ABED2402B404005098F582EB240297
:1002D300B40400508E23234582239001AE73E709B3
:1002E300F608DFFA8046E709F208DFFA803E8882E3
:1002F3008C83E709F0A3DFFA8032E309F608DFFA1B
:100303008078E309F208DFFA807088828C83E3093E
:10031300F0A3DFFA806489828A83E0A3F608DFFA18
:10032300805889828A83E0A3F208DFFA804C80D266
:1003330080FA80C680D4806980F28033801080A6E2
:1003430080EA809A80A880DA80E280CA803389823A
:100353008A83ECFAE493A3C8C582C8CCC583CCF0E6
:10036300A3C8C582C8CCC583CCDFE9DEE7800D898D
:10037300828A83E493A3F608DFF9ECFAA9F0EDFB94
:100383002289828A83ECFAE0A3C8C582C8CCC583DC
:10039300CCF0A3C8C582C8CCC583CCDFEADEE88035
:1003A300DB89828A83E493A3F208DFF980CC88F0A7
:1003B300EF60010E4E60C388F0ED2402B4040050D8
:1003C300B9F582EB2402B4040050AF232345822302
:1003D300900331738B178A1889198C1A8D1B120598
:1003E30066E51E600B7F107E001209048E088F09DC
:1003F300E51F600B7F107E001209048E108F11E43D
:10040300900053F0A3F0900053E0FEA3E0FFC395E8
:100413001BEE951A400302054D90026D7410F0E037
:10042300FD7C00EF2DFFEC3EFED3EF951BEE951AFE
:10043300400D900053A3E0FFE51B9F90026DF0C3B6
:10044300E4951DFF74019400FE90026DE0D39FE4D8
:100453009E4005E51DF404F0E51F6046E490005658
:10046300F090026DE0FF900056E0FEC39F5046AB54
:1004730017900053E0FCA3E02519F9E5183CFAEEC8
:100483007E0029F9EE3AFA120056FF900056E02555
:1004930011F582E43510F583EFF0900056E004F097
:1004A30080BF900053E0FEA3E02519F9E5183EAFA5
:1004B30001F5108F11752D0185102E85112F120B4B
:1004C300C1121064E51E6046E50945086040120547
:1004D30066753101850832850933120BC1120DA9E6
:1004E30090026DE0FF7E00AA08A9097B01A811AC68
:1004F300107D011202BDEF6015AF09AE08120800AE
:10050300E51F6007AF11AE101208007F00229002B2
:100513006DE0FFFD900053E48DF01200D0EF251D38
:10052300F51DC3900054E0951B900053E0951A40CD
:1005330003020409E51D7002051CE4FBFDAF1C1258
:10054300130BAF1D121540020409E51E6007AF0926
:10055300AE08120800E51F6007AF11AE10120800C5
:100563007F0122E4FBFDAF1C12130BAF1D121540DC
:10057300228B538A5489558C568D57E558600B7FCF
:10058300087E001209048E0C8F0DE490026FF0A315
:10059300F0C3900270E0955790026FE095564003C8
:1005A3000206B3E558AB53AA54A9556002800390E1
:1005B300026F120B5E900259120B5A90024C120BEF
:1005C3005A90024BF090024BE0FFD3940050030289
:1005D3000670E558605774029F500FE0FD7C00AF32
:1005E3000DAE0C120C5B8E0C8F0DE4900271F0A318
:1005F300F090024BE0FF900271E0FCA3E0FDC39F8B
:10060300EC94005031AB53120B89FAE92DF9EA3C13
:10061300FA120056FFE50D2DF582E50C3CF583EF4C
:10062300F0900271E475F0011200D080C4120B89BE
:10063300AF01F50C8F0DAA0CA90D7B0190024BE0C5
:10064300FD7C00900259E0F51C90024CE0F51D750D
:100653001E01E4F51F1203D7900055EFF090024BF3
:10066300E0FF90026FE48FF01200D0802CE558ABCE
:1006730053AA54A955120B5B90026EF090026EE0E0
:10068300B401117B327D387F681213C89000557412
:1006930001F08005E4900055F0900055E0600302FE
:1006A3000594E5586007AF0DAE0C1208007F0022D9
:1006B300E5586007AF0DAE0C1208007F0122120A45
:1006C300C520825F7A1579B21207CC785C7C027DF3
:1006D300017B017A0079427E007F101202BDEF3365
:1006E30095E0F5128F13C364809480500B7BFF7ADF
:1006F3001579B5752603801FD3E5139400E51264BD
:100703008094807BFF40097A1579B97526038007A9
:100713007A1579BD7526041207DE1207EB3082FDC8
:100723001207EB2094387A1579C21207CC901E1564
:10073300E493900000F0901E16E493900001F07B88
:10074300017A0079007526027F0A1207F37F647E1F
:10075300001213233094FD7F647E001213233008AC
:1007630038900002E06401702BA3E024F5601404C8
:1007730070227BFF7A1579C57526021207DE1215E2
:1007830005801112150F7BFF7A1579C87526037F33
:10079300091207F3E4F520C208D3E50B9400E50A38
:1007A3006480948040030206C47B017A02794D126F
:1007B30009A07B017A02794D75260C7F04120E5E27
:1007C300750A00750B010206C47BFF7526027F09BB
:1007D300120E5E7F0A7E00121323227F09120E5E21
:1007E3007F0A7E00121323227F647E0012132322CA
:1007F300120E5E7F0A7E00121323B28322EF4E7025
:1008030003020903900283E07002A3E0700302096C
:1008130003CDEFCDCCEECCED24FCFDEC34FFFC7529
:100823007302757481857482857383E0FAA3E08A09
:1008330075F57645756011D3E5769FE5759E50088D
:1008430085757385767480DDE5764575604A8D829E
:100853008C83A3A3E0FAA3E02FFFEA3EFEEF6576C5
:100863007003EE65757031857682857583A3A3E089
:10087300FEA3E02404FFE43E8D828C83A3A38FF0C8
:100883001200D0857682857583E0FFA3E08D828C8C
:1008930083CFF0A3EFF0800B8D828C83E575F0A3FB
:1008A300E576F0857482857383A3A3E0FEA3E02538
:1008B30074FFEE3573FEEF2404FFE43EFEEF6D702C
:1008C30002EE6C70308D828C83A3A3E0FEA3E02440
:1008D30004FFE43E857482857383A3A38FF0120023
:1008E300D08D828C83E0FFA3E0857482857383CFF0
:1008F300F0A3EFF022857482857383ECF0A3EDF00F
:10090300228E6F8F707E027F818F828E83E0FCA3A5
:10091300E0FD4C7003FEFF228D828C83A3A3E0FADB
:10092300A3E0FBC39570EA956F5008CEECCECFEDF4
:10093300CF80D6C3EB9570F572EA956FF571C3E579
:10094300729410E571940050198D828C83E0FBA39F
:10095300E08F828E83CBF0A3EBF0ED2404FFE43C25
:10096300FE2274FC2572F57274FF3571F5718D8268
:100973008C83A3A3F0A3E572F0ED2404FFE43CFE13
:10098300EF2572FFEE3571FE8F82F583A3A3E56F2A
:10099300F0A3E570F0EF2404FFE43EFE228B228AED
:1009A3002389247531017532027533737B0E7D3BC8
:1009B3007F68120DA9900273E0AB22AA23A9241227
:1009C300009C900274E0AB22AA23A9249000011298
:1009D30000AE900275E09000021200AE900276E045
:1009E3009000031200AE900277E09000041200AE74
:1009F300900278E09000051200AE90027BE0900038
:100A0300061200AE90027CE09000071200AE900246
:100A13007DE09000081200AE90027EE09000091283
:100A230000AE90027FE090000A1200AE900280E0D8
:100A330090000B0200AE787FE4F6D8FD75817E024C
:100A43000A800206C1E493A3F8E493A34003F6806B
:100A530001F208DFF48029E493A3F85407240CC8B7
:100A6300C333C4540F4420C8834004F45680014662
:100A7300F6DFE4800B0102040810204080900F5839
:100A8300E47E019360BCA3FF543F30E509541FFE8D
:100A9300E493A360010ECF54C025E060A840B8E4FE
:100AA30093A3FAE493A3F8E493A3C8C582C8CAC581
:100AB30083CAF0A3C8C582C8CAC583CADFE9DEE713
:100AC30080BE1213701214807F0112125FD2AF1214
:100AD30012BB7BFF7A15796775260D120B41121431
:100AE3008C1211407BFF7A157975752616120B410E
:100AF30012123EEF7BFF60097A15798C75261580FB
:100B0300077A1579A275260F7F09120E5E7F0A7E7A
:100B1300001213237FE47EF31200037F887E011209
:100B230015497F0F7E061215517FE47EFF1215597A
:100B33007F067E001214977F3C7E000214A27F0979
:100B4300120E5E7F0A7E0012132322753101753265
:100B5300027533737B0222F090026FE475F0011289
:100B630000E685F082F58302006F900273E0FEA336
:100B7300E0FDEDFF22AB07AA067F68227BFF7A1E0A
:100B83007944752D052290026FE0FEA3E02555F907
:100B9300E5543E22AB07AA067F6822758931758C1E
:100BA30052758A63228D828C8312006FFF1213C0E9
:100BB3000D22E475F001120127120056FF22900264
:100BC3006DE0FB7D6F7F6822C2E9121519AE07E461
:100BD300FD22C0E0C083C082C0D075D000C000C079
:100BE30001C002C003C005C006C0077F0712146717
:100BF3008F203006317B017A007902753C207F61BA
:100C030012119FE4FD7FE212134AD2087F6012148F
:100C1300678F14E514D39420400C751400E4FD7F12
:100C2300E212134AC208300407E4FD7FE112134ABB
:100C3300300507E4FD7FE112134A7D707F2712130D
:100C43004AD007D006D005D003D002D001D000D0BF
:100C5300D0D082D083D0E0328E3D8F3E8C3F8D400A
:100C6300E53E453D600A900283E07002A3E0700414
:100C7300E4FEFF22853D41853E42E54224FCF542E8
:100C8300E54134FFF541AF40AE3F1209048E438F77
:100C930044EF4E7003FEFF22854282854183A3A366
:100CA300E0FEA3E0FFC39540EE953F50048E3F8FD7
:100CB30040AE3FAF40AA3DA93E7B01A844AC437D73
:100CC300011203B1AF3EAE3D120800AE43AF442262
:100CD300E5E2540CF5375390F3E59454F3440CF5E3
:100CE3009475E20375E20775E206E59454F344084C
:100CF300120D26E4F536E59454F34404120D26054B
:100D030036E536C3940840EE120D3A4404F59412C6
:100D13000D3A440CF59475E20775E203E537440395
:100D2300F5E222F5947F057E001212FC5394F37FC3
:100D3300057E001212FC227F057E001212FCE59450
:100D430054F3228F228D238B247B007A0079271280
:100D53001394EF604E74017E00A825088005C33309
:100D6300CE33CED8F924FFFFEE34FFFEC3E524953E
:100D73002504FDEFA805088005C333CE33CED8F98B
:100D8300F528E526A805088002C333D8FCF526E537
:100D9300285226F45227E5264227AB27AD23AF225C
:100DA3000213C87F00228B30AE07AC05E4FD12139B
:100DB300828F358CDA1215238F34E53430E103E466
:100DC300F535AF067D011213828F35E535700312B9
:100DD3000CD3AF301530EF6027E5356023E5307075
:100DE3000343E2201215238F347831121459E5DAC4
:100DF30012009CE5347F0020E1027F018F3580D211
:100E0300AF35228B247B007A007929121394AD0726
:100E1300ED604574017E00A825088005C333CE33F9
:100E2300CED8F924FFFFEE34FFFEC3E52495250455
:100E3300FCEFA804088005C333CE33CED8F9F52AD6
:100E43005229E529A804088002C313D8FCF529AB6D
:100E530026AA27A92812009CAF05228B238A24895E
:100E630025900022EFF0A37402F0FF7E00E5262414
:100E730002FDE433FCC3EF9DEE9C5027AB23AA2471
:100E8300A92574FE2FF58274FF3EF58312006FFDD2
:100E930074222FF58274003EF583EDF00FBF00013D
:100EA3000E80CAE5262402FFE433FE1211730213F7
:100EB300A6AC03AE05E4FD121382AD078EDA12155C
:100EC30023EF30E102E4FDAE041CEED39400403185
:100ED300ED6401702CAB27AA28A9291200FCE5F0C8
:100EE30012146030E102E4FDED60167827E475F03A
:100EF300021201271200FC12146030E1CAE4FD80E3
:100F0300C643E220AF05228F228D238B247B007AF8
:100F1300007926121394E525601774017E00A82436
:100F2300088005C333CE33CED8F9FFEF4526FF80C3
:100F33001874017E00A824088005C333CE33CED8AD
:100F4300F9F4FFE4FEEF5526FF8F26AB26AD23AF62
:100F5300221213C82202100000020C0000020A0031
:100F630001C10801140051025C303132333435368B
:100F7300373839414243444546005100423131320A
:100F8300333435363738394142434445460042000D
:100F9300000000004802810000000000000000C2C1
:100FA300E8D2EA120B7F7F30121280120B7F7F2A66
:100FB3001212807D017F2212134AE4FD7F21121356
:100FC3004AE4FD7F2412134A7D287F2512134A7DAC
:100FD300077F2612134A7D017F3C12134A7D077F48
:100FE3003D02134A8B608A6189627D011213828FED
:100FF30064E5647003120CD3AF631563EF6024E5FB
:10100300646020E563700343E220121523786012C5
:101013001459E5DA12009CEF7F0020E1027F018F73
:101023006480D5AF6422C0E0C0F0C083C082C0D06A
:1010330075D000C000C001C002C003C004C005C019
:1010430006C00712152DD007D006D005D004D00353
:10105300D002D001D000D0D0D082D083D0F0D0E065
:1010630032AE03AC05E4FD121382AD078CDA121520
:1010730023EF30E102E4FDAC061EECD394004015EF
:10108300BD0112782D12145912005612146030E16A
:10109300E6E4FD80E243E220AF05228B5A8A5B89B6
:1010A3005CE4FD121382AE07AF5D155DEFD39400D0
:1010B300401BBE0118785A121459120056F5DA1261
:1010C30015238F5EE55E30E1DFE4FE80DB43E22043
:1010D300AF06228B668A6789681213B7AF6912134A
:1010E300C07D017C00E5692401FFE433FEC3ED9F6D
:1010F300EC9E500FAB66AA67A968120BA8BD00014E
:101103000C80E27F040213C08B6B8A6C896D12130F
:10111300B7E56E04FF1213C07F021213C0E4FDFC97
:10112300C3ED956EEC9400500FAB6BAA6CA96D12D6
:101133000BA8BD00010C80E87F040213C0752503D2
:101143007526017B027D6B1211657D1B1211657D76
:101153001C7F68120D46E4F5257B067D6B7F6802D4
:101163000F0A7F68120D46752502E4F5267B0422DB
:101173008E278F28C2E87D0E7F2012134A120B7F21
:101183007F2A1212807B017A00792285282D7FA085
:10119300121280D2E8A204720550FA228B398A3ADD
:1011A300893B120BCBEDC3953C5017E4FF12151985
:1011B300AB39AA3AA93B8D82758300EF1200AE0DBD
:1011C30080E3D2E9AF06228B778A788979AF05EF7E
:1011D300D394004010AB078577318A3289337D740D
:1011E3007F68020DA9AB77AA78A979E412009C2243
:1011F300E47548FFF547F546F54585E149E549546A
:1012030001F54AE5495402F54B7F0A7E001212FCB0
:10121300E54A60E6AF49228B4E7B007A0079521291
:101223001394AE4E7401A806088002C333D8FC554C
:1012330052AB4FAA50A95112009C22752506752660
:10124300017527027528737B067D757F68120E066C
:10125300900273E07F00B434027F0122AE077F0166
:101263001214EFAF0612144BE4FF1214E443A60466
:1012730043B804E4F5E10F1214FAC2C2228B2A8A9E
:101283002B892C120BCBEDC3952D500B782A120B07
:10129300B51215190D80EFD2E9AF06228B7A8A7B3E
:1012A300897CAB7AAA7BA97C120056600A787A12F1
:1012B3000BB51213C080EB221212C41212C4C283E4
:1012C30022C2837FE87E03121323D2837FE87E0347
:1012D30012132322C2ACD29CC29FD29E4387804367
:1012E300D88075AAF375BA03C299E4F599227FFAF7
:1012F3007E001212FC7FFA7E000000000000EF1F48
:1013030070011E144E70F22253071FEB6003430754
:1013130020ED6003430740AB077D6D7F680213C870
:10132300AD07AC061212F11212F1ED1D70011C147F
:101333004C70F1227B017A0279737D3A7F68121334
:1013430094900273E0FF22AE05C2E9121519AD07AE
:10135300AF06121519D2E9AF05228A228B2375270E
:10136300007528007529227B01120EB4227593F7AC
:101373007594FF7595FFE4F59E439F53F5972243BC
:10138300E210EF25E04D1214607F0130E1027F008F
:10139300228B2B8A2C892D8B318A3289337B011244
:1013A3000DA922E4F520C208C2E87D0F7F201213A5
:1013B3004AD2E822AE077F531213C0AF063099FD1D
:1013C300C2998F99228B29752D00752E00752F29AF
:1013D3007B0112106422C0E0E50B150B7002150AA5
:1013E300120BA1D0E032120B4E7D067F68120DA9BD
:1013F300120B6D22120B4E7D087F68120DA9120B82
:101403006D22120B4E7D0A7F68120DA9120B6D22FD
:10141300120B4E7D137F68120DA9120B6D22120B56
:101423004E7D157F68120DA9120B6D22120B4E7D96
:10143300177F68120DA9120B6D22120B4E7D727F5E
:1014430068120DA9120B6D22EF25E025E0FFE5E2FE
:1014530054F34FF5E222E475F001020127F5DA12A5
:101463001523EF22C2E9121519E4FF121519D2E967
:10147300227525017B027D6A7F68020F0AC2E8D2CA
:10148300EAD2B9120FA20213A67E007F577DF47C25
:101493000102000EAB07AA067D157F6802135DAB40
:1014A30007AA067D177F6802135D8F257B077D6A78
:1014B3007F68020F0AEF600443E2802253E27F2237
:1014C300EF600443E2402253E2BF22EF600453E2A1
:1014D300DF2243E22022EF600453E2EF2243E210D3
:1014E30022EF700443E2022253E2FD22EF60044341
:1014F300E2012253E2FE22EF600475E1DF2275E18F
:101503002022120B9ED2A9D2AFD28C22120B9EC2E2
:10151300A9D2AFC28C228FE7E5E630E1FBAFE72229
:10152300E4F57DE57D60FCAF7E2285E17EE57E54BA
:1015330001F57D2290025AE0FEA3E0FF22AB077D76
:101543006E7F680213C87D08120B7802135D7D0A53
:10155300120B9702135D7D13120B9702135DEF5469
:101563007FF5D92253656E736F72204C696761648E
:101573006F0054657374616E646F206120636F6ED6
:101583006578616F2049324300436F6E6563746110
:10159300646F20636F6D207375636573736F0045AC
:1015A30072726F206E6120636F6E6578616F0042A7
:1015B3003100313C3200313E3200313D3D32004298
:1015C30032004F6E004F666600FB00003E000B00CA
:1015D30036000100020003000000650054FFEF0025
:1015E30000FA80000B1282000100020000000000DC
:1015F30000000000000000000000280000FFFF457D
:1016030081FFFFFA7200000000000003E800000001
:101613000100017FFFFFFE8001001B0000000000AE
:10162300000000000000000000003E033040000006
:101633000002CAE3093E8000002000000000000011
:1016430000400000006000000041FF000000000BAC
:101653002A0000165500002182FD872650FD8000D8
:1016630000001F00000005800000000000000100D2
:10167300000002000000030000400000000000041E
:101683006F0002653200005EC040000000000000F1
:10169300000000000000000000FB8C6F5DFD5D0892
:1016A300D9007C733B006C12CC3200139D3200D006
:1016B300D632000800400001F4FFE6807902000002
:1016C300000000D0D600002710FB000000400000FF
:1016D3000000000000000000000000000100000006
:1016E3000000000100010000000000FA36FFBC30DA
:1016F3008E0005FBF0FFD95BC8FFD09ABE00001037
:10170300A9FFF41EB200CEBBF700000001000000E9
:1017130004000200020200000CFFC28000000180EE
:101723000000CF8000400000000000000100000026
:10173300000000060000000014000000000000008C
:101743000000000000000000000000000000000096
:101753000000000000000000000000000000000086
:1017630000000000000000000000000000033F68CC
:10177300B6793528BCC67ED16C80000000400000DD
:10178300000000B26A00000000000000000000003A
:101793000000003FF00000003000000000000000E7
:1017A3000000000000000000000000000000000036
:1017B3000000000000000000000000254D002F7015
:1017C3006D000005AE000C02D000000000006500B3
:1017D30054FFEF000000000000000001000044007F
:1017E3000000000C00000001000000000000650084
:1017F3000000540000FFEF000000000000000000A4
:101803000000000000000000004000000000000095
:101813000000000000000000004000000000000085
:1018230000000000000000000000000001000000B4
:1018330002000000000000000000000000000000A3
:101843000000000000000000000000000000000095
:10185300000000000000000000001B00000000006A
:101863000000000000000000000000000000000075
:101873000000000000000000000000000000000065
:10188300000000000040000000001B0000000000FA
:101893000000000000000000000000000000000045
:1018A3000000000000000000000000000000000035
:1018B3000000000000000000000000000000000025
:1018C300000000000000000000D8DCBAA2F1DEB284
:1018D300B8B4A88191F74A907F916AF3F9DBA8F92C
:1018E300B0BAA080F2CE81F3C2F1C1F2C3F3CCA2AD
:1018F300B280F1C6D880BAA7DFDFDFF2A7C3CBC5BA
:10190300B6F087A2942448703C95406834589B787D
:10191300A2F183922D557DD8B1B4B8A1D09180F2B4
:1019230070F370F27C80A8F101B09887D943D88610
:10193300C988BAA1F20EB89780F1A9DFDFDFAADF69
:10194300DFDFF2AAC5CDC7A90CC92C97979797F1EA
:10195300A989264666B0B4BA80ACDEF2CAF1B28C6D
:1019630002A9B69800890E161EB8A9B4992C547C06
:10197300B08AA896365676F1B9AFB4B083C0B8A88A
:101983009711B18F98B9AFF0240844106418F1A3EC
:1019930029557DAF83B593AFF0002850F1A3869FFF
:1019A30061A6DADEDFD9FAA38696DB31A6D9F8DFA2
:1019B300BAA68FC2C5C7B28CC1B8A2DFDFDFA3DF6F
:1019C300DFDFD8D8F1B8A8B286B4980D355DB8AAD0
:1019D30098B0872D353DB2B6BAAF8C96198F9FA7B5
:1019E3000E161EB49AB8AA872C547CB9A3DEDFDF87
:1019F300A3B180F2C4CDC9F1B8A9B499830D355D03
:101A030089B9A32D557DB593A30E161EA92C547C1D
:101A1300B8B4B0F19783A81184A50998A383F0DA29
:101A2300240844106418D8F1A529557DA58595028D
:101A33001A2E3A565A4048F9F3A3D9F8F09883245A
:101A430008441064189782A8F111F098A22408445E
:101A5300106418DAF3DED883A59401D9A302F1A2A6
:101A6300C3C5C7D8F18492A24DDA2AD84869D92AC6
:101A7300D86855DA32D85071D932D8705DDA3AD88D
:101A83005879D93AD87893A34DDA2AD84869D92A0C
:101A9300D86855DA32D85071D932D8705DDA3AD86D
:101AA3005879D93AD878A88A9AF02850789EF3883A
:101AB30018F19F1D98A8D908D8C89F129EF315A89E
:101AC300DA1210D8F1AFC8978734B5B994A421F3CB
:101AD300D922D8F22DF3D92AD8F235F3D932D881C5
:101AE300A4606061D961D86C6869D969D874707170
:101AF300D971D8B1A384193D5DA3831A3E5E9310B7
:101B030030811011B8B0AF8F94F2DA3ED8B49AA8EE
:101B13008729DAF8D8879A35DAF8D8879A3DDAF838
:101B2300D8B1B9A49885022E56A581000C14A397A9
:101B3300B08AF12DD928D84DD948D86DD968D8B1F4
:101B4300840DDA0ED8A32983DA2C0ED8A384498313
:101B5300DA2C4C0ED8B8B0A88A9AF520AADADFD8C6
:101B6300A840AAD0DADED8A860AADAD0DFD8F197E5
:101B730086A8319B069907AB9728889BF00C201405
:101B830040B8B0B4A88C9CF0042851791D301438A7
:101B9300B282ABD0982C505078789BF11AB0F08A6F
:101BA3009CA82951798B2951798A2470598B205803
:101BB300718A4469388B3940688A6448318B30496B
:101BC30060A588200971584468113964493019F1B6
:101BD300AC002C547CF08CA804285078F18897260C
:101BE300A85998AC8C02264666F0899CA82951799D
:101BF300247059446938644831A98809205970AB65
:101C030011384069A8193148608CA83C415C207C9C
:101C130000F187981986A86E767EA999882D557D3F
:101C23009EB9A38A228A6E8A568A5E9FB18306264C
:101C330046660E2E4E6E9DB8AD002C547CF2B18CD0
:101C4300B499B9A32D557D8191AC38AD3AB5839143
:101C5300AC2DD928D84DD948D86DD968D88C9DAE2C
:101C630029D904AED851D904AED879D904D881F38F
:101C73009DAD008DAE1981ADD901D8F2AEDA26D86B
:101C83008E912983A7D9ADADADADF32AD8D8F1B0E4
:101C9300AC89913E5E76F3AC2E2EF1B18C5A9CAC9E
:101CA3002C2828289CAC3018A8988128343C9724E9
:101CB300A728343C9C24F2B089AC912C4C6C8A9BB1
:101CC3002DD9D8D851D9D8D879D9D8D8F19E88A3C5
:101CD30031DAD8D8912DD928D84DD948D86DD968BB
:101CE300D8B18393353D8025DAD8D88569DAD8D839
:101CF300B49381A328343CF3AB8BF8A391B609B416
:101D0300D9ABDEFAB0879CB9A3DDF1A3A3A3A39556
:101D1300F1A3A3A39DF1A3A3A3A3F2A3B49080F281
:101D2300A3A3A3A3A3A3A3A3A3A3B2A3A3A3A3A371
:101D3300A3B087B599F1A3A3A398F1A3A3A3A397F2
:101D4300A3A3A3A3F39BA3A3DCB9A7F1262626D8B9
:101D5300D8FF037B034CCD6C03AB03365676006888
:101D63000402CB47A202180400058BC1010C040036
:101D7300000000037F060CC92C979797038903265D
:101D83004666006C0220000240040000000002448A
:101D9300040000000002480400000000024C04009C
:101DA3000000000250040000000002540400000080
:101DB3000002580400000000025C0400000000025E
:101DC300BC040000000001EC0400004000037F0697
:101DD3000CC92C9797970402030D355D04090487FA
:101DE3002D353D00A3010000000001078601FE0719
:101DF3004105F120283038077E01300746019A0754
:101E03004704F1283038076C04F1283038021602F1
:101E1300000101B202FFFF0190040923A135016A09
:101E230002060001600800000000000000000060DE
:101E33000440000000016202000000600400400052
:061E430000E7E7E7E7E716
:00000001FF
