:1000000002048D7D06120772020D0D020D89EF4E5E
:100010007008FE7F01ED1D70011C900274EEF0A3CC
:10002000EFF0A3ECF0A3EDF0900274E0FEA3E0FF8C
:10003000F5828E83E4F0A3F0ED24FCFDEC34FF8F19
:0A004000828E83A3A3F0A3EDF0224B
:03004B000205A209
:100053000209D9BB010689828A83E0225002E72282
:10006300BBFE02E32289828A83E49322BB010CE56F
:100073008229F582E5833AF583E0225006E9258259
:10008300F8E622BBFE06E92582F8E222E58229F59D
:1000930082E5833AF583E49322BB010689828A834E
:1000A300F0225002F722BBFE01F322F8BB010DE55B
:1000B3008229F582E5833AF583E8F0225006E925A3
:1000C30082C8F622BBFE05E92582C8F222BB010ADB
:1000D30089828A83E0F5F0A3E022500687F009E7DE
:1000E3001922BBFE07E3F5F009E3192289828A830B
:1000F300E493F5F074019322FAE6FB0808E6F92588
:10010300F0F618E6CA3AF622E3F5F009E208B5F08C
:100113006BDFF58067E3F5F009E608B5F05EDFF520
:10012300805A87F009E608B5F052DFF6804E87F073
:1001330009E208B5F046DFF6804288828C8387F0B7
:1001430009E0A3B5F036DFF6803288828C8387F02E
:1001530009E493A3B5F025DFF5802188828C83E33E
:10016300F5F009E0A3B5F014DFF5801088828C83E5
:10017300E3F5F009E493A3B5F002DFF402023A8059
:100183008780E9809080D4803E8015806E807E8059
:100193009D80B7808D80A380518074803C0202468D
:1001A30089828A83ECFAE493F5F0A3C8C582C8CCAC
:1001B300C583CCE493A3C8C582C8CCC583CCB5F0B2
:1001C30076DFE3DEE1807089828A83E493F5F0A32E
:1001D300E208B5F062DFF4805E89828A83E0F5F09D
:1001E300A3E608B5F051DFF5804D89828A83E0F5F7
:1001F300F0A3E208B5F040DFF5803C89828A83E40E
:1002030093F5F0A3E608B5F02EDFF4802A80028090
:100213005789828A83ECFAE493F5F0A3C8C582C8B0
:10022300CCC583CCE0A3C8C582C8CCC583CCB5F00C
:1002330006DFE4DEE280007FFFB5F0020F2240021A
:100243007F012289828A83ECFAE0F5F0A3C8C58294
:10025300C8CCC583CCE0A3C8C582C8CCC583CCB504
:10026300F0D5DFE5DEE380CF89828A83ECFAE0F51F
:10027300F0A3C8C582C8CCC583CCE493A3C8C58208
:10028300C8CCC583CCB5F0AFDFE4DEE280A988F04B
:10029300EF60010E4E60ABED2402B404005098F5FC
:1002A30082EB2402B40400508E2323458223900161
:1002B300827312051920825F7A0F79591203C0786D
:1002C300557C027D017B017A0079427E007F10120A
:1002D3000291EF3395E0F5118F12C364809480503F
:1002E3000B7BFF7A0F795C752603801FD3E512948D
:1002F30000E511648094807BFF40097A0F79607573
:10030300260380077A0F79647526041203D2120339
:10031300DF3082FD1203DF2094387A0F79691203EC
:10032300C09017BCE493900000F09017BDE4939045
:100333000001F07B017A0079007526027F0A12031F
:10034300E77F647E00120CD33094FD7F647E00123D
:100353000CD3300838900002E06401702BA3E02432
:10036300F560140470227BFF7A0F796C75260212F4
:1003730003D2120EB58011120EBF7BFF7A0F796F75
:100383007526037F091203E7E4F520C208D3E509C4
:100393009400E5086480948040030202B87B017AEC
:1003A3000279471203F47B017A02794775260C7FA1
:1003B3000412080F7508007509010202B87BFF7566
:1003C30026027F0912080F7F0A7E00120CD3227FB8
:1003D3000912080F7F0A7E00120CD3227F647E006D
:1003E300120CD32212080F7F0A7E00120CD3B283A1
:1003F300228B228A23892475310175320275336673
:100403007B0E7D3B7F681206FE900266E0AB22AA5C
:1004130023A92412009C900267E0AB22AA23A924FB
:100423009000011200AE900268E09000021200AE4C
:10043300900269E09000031200AE90026AE090001F
:10044300041200AE90026BE09000051200AE900221
:100453006EE09000061200AE90026FE0900007126B
:1004630000AE900270E09000081200AE900271E0BE
:100473009000091200AE900272E090000A1200AEE2
:10048300900273E090000B0200AE787FE4F6D8FD93
:1004930075815E0204D40202B5E493A3F8E493A346
:1004A3004003F68001F208DFF48029E493A3F854B3
:1004B30007240CC8C333C4540F4420C8834004F436
:1004C30056800146F6DFE4800B0102040810204049
:1004D30080900909E47E019360BCA3FF543F30E59B
:1004E30009541FFEE493A360010ECF54C025E060BE
:1004F300A840B8E493A3FAE493A3F8E493A3C8C58C
:1005030082C8CAC583CAF0A3C8C582C8CAC583CA7C
:10051300DFE9DEE780BE120D20120E307F01120CE0
:100523000FD2AF120C6B7BFF7A0F790E75260D126B
:100533000595120E3C120AF07BFF7A0F791C752683
:1005430016120595120BEEEF7BFF60097A0F7933D4
:1005530075261580077A0F794975260F7F091208CA
:100563000F7F0A7E00120CD37FE47EF31200037F19
:10057300887E01120EF07F0F7E06120EF87FE47E56
:10058300FF120F007F067E00120E477F3C7E0002A3
:100593000E527F0912080F7F0A7E00120CD322C06D
:1005A300E0C083C082C0D075D000C000C001C002CB
:1005B300C003C005C006C0077F07120E178F203087
:1005C30006317B017A007902753C207F61120B4F63
:1005D300E4FD7FE2120CFAD2087F60120E178F132C
:1005E300E513D39420400C751300E4FD7FE2120C55
:1005F300FAC208300407E4FD7FE1120CFA30050764
:10060300E4FD7FE1120CFA7D707F27120CFAD0070C
:10061300D006D005D003D002D001D000D0D0D082F4
:10062300D083D0E032E5E2540CF5375390F3E594F0
:1006330054F3440CF59475E20375E20775E206E59D
:100643009454F3440812067BE4F536E59454F344DA
:100653000412067B0536E536C3940840EE12068F76
:100663004404F59412068F440CF59475E20775E281
:1006730003E5374403F5E222F5947F057E00120C6F
:10068300AC5394F37F057E00120CAC227F057E00F1
:10069300120CACE59454F3228F228D238B247B0020
:1006A3007A007927120D44EF604E74017E00A8256D
:1006B300088005C333CE33CED8F924FFFFEE34FFD1
:1006C300FEC3E524952504FDEFA805088005C33383
:1006D300CE33CED8F9F528E526A805088002C33322
:1006E300D8FCF526E5285226F45227E5264227AB07
:1006F30027AD23AF22020D787F00228B30AE07ACEB
:1007030005E4FD120D328F358CDA120ED38F34E5EA
:100713003430E103E4F535AF067D01120D328F3538
:10072300E5357003120628AF301530EF6027E53545
:100733006023E530700343E220120ED38F34783107
:10074300120E09E5DA12009CE5347F0020E1027FF6
:10075300018F3580D2AF3522753101753202753381
:10076300667B0222900266E0FEA3E0FDEDFF22AB72
:1007730007AA067F68227B007A00790C752D052273
:10078300AB07AA067F6822758931758C52758A6317
:10079300228D828C8312006FFF120D700D22E4757F
:1007A300F0011200FB120056FF22C2E9120EC9AE7D
:1007B30007E4FD228B247B007A007929120D44ADD6
:1007C30007ED604574017E00A825088005C333CE7C
:1007D30033CED8F924FFFFEE34FFFEC3E52495257D
:1007E30004FCEFA804088005C333CE33CED8F9F553
:1007F3002A5229E529A804088002C313D8FCF52945
:10080300AB26AA27A92812009CAF05228B238A2492
:100813008925900022EFF0A37402F0FF7E00E52605
:100823002402FDE433FCC3EF9DEE9C5027AB23AAC7
:1008330024A92574FE2FF58274FF3EF58312006F01
:10084300FD74222FF58274003EF583EDF00FBF0097
:10085300010E80CAE5262402FFE433FE120B2302B5
:100863000D56AC03AE05E4FD120D32AD078EDA1260
:100873000ED3EF30E102E4FDAE041CEED39400404E
:1008830031ED6401702CAB27AA28A9291200D0E509
:10089300F0120E1030E102E4FDED60167827E475E6
:1008A300F0021200FB1200D0120E1030E1CAE4FD78
:1008B30080C643E220AF05228F228D238B247B0049
:1008C3007A007926120D44E525601774017E00A88D
:1008D30024088005C333CE33CED8F9FFEF4526FF76
:1008E300801874017E00A824088005C333CE33CE5C
:1008F300D8F9F4FFE4FEEF5526FF8F26AB26AD2390
:10090300AF22120D782202080001050CE7E7E7E7A2
:10091300E7C1080113005102553031323334353603
:100923003738394142434445460051004231313260
:100933003334353637383941424344454600420063
:10094300000000004802740000000000000000C224
:10095300E8D2EA1207797F30120C301207797F2A26
:10096300120C307D017F22120CFAE4FD7F21120C60
:10097300FAE4FD7F24120CFA7D287F25120CFA7D00
:10098300077F26120CFA7D017F3C120CFA7D077F4C
:100993003D020CFA8B4B8A4C894D7D01120D328F2F
:1009A3004FE54F7003120628AF4E154EEF6024E556
:1009B3004F6020E54E700343E220120ED3784B12B2
:1009C3000E09E5DA12009CEF7F0020E1027F018F20
:1009D3004F80D5AF4F22C0E0C0F0C083C082C0D0EB
:1009E30075D000C000C001C002C003C004C005C070
:1009F30006C007120EDDD007D006D005D004D00301
:100A0300D002D001D000D0D0D082D083D0F0D0E0BB
:100A130032AE03AC05E4FD120D32AD078CDA120ED3
:100A2300D3EF30E102E4FDAC061EECD39400401595
:100A3300BD0112782D120E09120056120E1030E16C
:100A4300E6E4FD80E243E220AF05228B458A468936
:100A530047E4FD120D32AE07AF481548EFD39400BB
:100A6300401BBE01187845120E09120056F5DA1222
:100A73000ED38F49E54930E1DFE4FE80DB43E2201A
:100A8300AF06228B518A528953120D67AF54120D50
:100A9300707D017C00E5542401FFE433FEC3ED9F28
:100AA300EC9E500FAB51AA52A953120794BD0001FB
:100AB3000C80E27F04020D708B568A578958120D01
:100AC30067E55904FF120D707F02120D70E4FDFCFF
:100AD300C3ED9559EC9400500FAB56AA57A9581281
:100AE3000794BD00010C80E87F04020D7075250397
:100AF3007526017B027D6B120B157D1B120B157D79
:100B03001C7F6812069BE4F5257B067D6B7F6802DC
:100B130008BB7F6812069B752502E4F5267B042239
:100B23008E278F28C2E87D0E7F20120CFA120779D8
:100B33007F2A120C307B017A00792285282D7FA031
:100B4300120C30D2E8A204720550FA228B398A3A89
:100B5300893B1207ADEDC3953C5017E4FF120EC954
:100B6300AB39AA3AA93B8D82758300EF1200AE0D13
:100B730080E3D2E9AF06228B1D8A1E891FAF05EFE2
:100B8300D394004010AB07851D318A3289337D74BD
:100B93007F680206FEAB1DAA1EA91FE412009C2259
:100BA300E47519FFF518F517F51685E11AE51A54DA
:100BB30001F51BE51A5402F51C7F0A7E00120CACEA
:100BC300E51B60E6AF1A228B3F7B007A0079431264
:100BD3000D44AE3F7401A806088002C333D8FC5508
:100BE30043AB40AA41A94212009C227525067526F3
:100BF300017527027528667B067D757F681207B726
:100C0300900266E07F00B434027F0122AE077F01C9
:100C1300120E9FAF06120DFBE4FF120E9443A604BF
:100C230043B804E4F5E10F120EAAC2C2228B2A8A4A
:100C33002B892C1207ADEDC3952D500B782A120783
:100C4300A1120EC90D80EFD2E9AF06228B5A8A5B3F
:100C5300895CAB5AAA5BA95C120056600A785A12E7
:100C630007A1120D7080EB22120C74120C74C28354
:100C730022C2837FE87E03120CD3D2837FE87E03F4
:100C8300120CD322C2ACD29CC29FD29E4387804314
:100C9300D88075AAF375BA03C299E4F599227FFA4D
:100CA3007E00120CAC7FFA7E000000000000EF1FF4
:100CB30070011E144E70F22253071FEB60034307AB
:100CC30020ED6003430740AB077D6D7F68020D781D
:100CD300AD07AC06120CA1120CA1ED1D70011C1482
:100CE3004C70F1227B017A0279667D3A7F68120D9E
:100CF30044900266E0FF22AE05C2E9120EC9AD07B9
:100D0300AF06120EC9D2E9AF05228A228B237527BB
:100D1300007528007529227B01120865227593F757
:100D23007594FF7595FFE4F59E439F53F597224312
:100D3300E210EF25E04D120E107F0130E1027F003B
:100D4300228B2B8A2C892D8B318A3289337B01129A
:100D530006FE22E4F520C208C2E87D0F7F20120CB4
:100D6300FAD2E822AE077F53120D70AF063099FD19
:100D7300C2998F99228B29752D00752E00752F2905
:100D83007B01120A1422C0E0E50915097002150857
:100D930012078DD0E03212075B7D067F681206FED4
:100DA3001207672212075B7D087F681206FE12078F
:100DB300672212075B7D0A7F681206FE120767220D
:100DC30012075B7D137F681206FE12076722120764
:100DD3005B7D157F681206FE1207672212075B7D93
:100DE300177F681206FE1207672212075B7D727F68
:100DF300681206FE12076722EF25E025E0FFE5E211
:100E030054F34FF5E222E475F0010200FBF5DA1228
:100E13000ED3EF22C2E9120EC9E4FF120EC9D2E9C2
:100E2300227525017B027D6A7F680208BBC2E8D276
:100E3300EAD2B9120952020D567E007F537DF47C2B
:100E43000102000EAB07AA067D157F68020D0DABEC
:100E530007AA067D177F68020D0D8F257B077D6A24
:100E63007F680208BBEF600443E2802253E27F22E3
:100E7300EF600443E2402253E2BF22EF600453E2F7
:100E8300DF2243E22022EF600453E2EF2243E21029
:100E930022EF700443E2022253E2FD22EF60044397
:100EA300E2012253E2FE22EF600475E1DF2275E1E5
:100EB300202212078AD2A9D2AFD28C2212078AC269
:100EC300A9D2AFC28C228FE7E5E630E1FBAFE72280
:100ED300E4F55DE55D60FCAF5E2285E15EE55E54B1
:100EE30001F55D22900253E0FEA3E0FF227D08128C
:100EF3000772020D0D7D0A120783020D0D7D131279
:100F03000783020D0DEF547FF5D92253656E736F7E
:100F130072204C696761646F0054657374616E6419
:100F23006F206120636F6E6578616F2049324300E3
:100F3300436F6E65637461646F20636F6D207375B7
:100F4300636573736F004572726F206E6120636F08
:100F53006E6578616F00423100313C3200313E32C0
:100F630000313D3D32004232004F6E004F66660055
:100F7300FB00003E000B00360001000200030000EE
:100F830000650054FFEF0000FA80000B128200019D
:100F9300000200000000000000000000000000004C
:100FA30000280000FFFF4581FFFFFA7200000000E8
:100FB300000003E80000000100017FFFFFFE800145
:100FC300001B000000000000000000000000000003
:100FD300003E03304000000002CAE3093E800000E7
:100FE300200000000000000040000000600000003E
:100FF30041FF000000000B2A00001655000021826B
:10100300FD872650FD800000001F000000058000C2
:1010130000000000000100000002000000030000C7
:10102300400000000000046F0002653200005EC053
:10103300400000000000000000000000000000006D
:10104300FB8C6F5DFD5D08D9007C733B006C12CC9B
:101053003200139D3200D0D632000800400001F464
:10106300FFE68079020000000000D0D600002710C0
:10107300FB00000040000000000000000000000032
:10108300000000010000000000000100010000005A
:101093000000FA36FFBC308E0005FBF0FFD95BC8B9
:1010A300FFD09ABE000010A9FFF41EB200CEBBF71A
:1010B3000000000100000004000200020200000C16
:1010C300FFC280000001800000CF800040000000CC
:1010D30000000001000000000000060000000014F2
:1010E30000000000000000000000000000000000FD
:1010F30000000000000000000000000000000000ED
:1011030000000000000000000000000000000000DC
:1011130000000000033F68B6793528BCC67ED16C59
:1011230080000000400000000000B26A00000000E0
:10113300000000000000000000003FF0000000304D
:10114300000000000000000000000000000000009C
:10115300000000000000000000000000000000008C
:101163000000254D002F706D000005AE000C02D06D
:101173000000000000650054FFEF000000000000C5
:10118300000001000044000000000C00000001000A
:10119300000000000065000000540000FFEF0000A5
:1011A300000000000000000000000000000000003C
:1011B30040000000000000000000000000000000EC
:1011C30040000000000000000000000000000000DC
:1011D3000000000100000002000000000000000009
:1011E30000000000000000000000000000000000FC
:1011F30000000000000000000000000000000000EC
:10120300001B0000000000000000000000000000C0
:1012130000000000000000000000000000000000CB
:10122300000000000000000000000000400000007B
:10123300001B000000000000000000000000000090
:10124300000000000000000000000000000000009B
:10125300000000000000000000000000000000008B
:10126300000000000000000000000000000000007B
:10127300D8DCBAA2F1DEB2B8B4A88191F74A907F64
:10128300916AF3F9DBA8F9B0BAA080F2CE81F3C278
:10129300F1C1F2C3F3CCA2B280F1C6D880BAA7DF02
:1012A300DFDFF2A7C3CBC5B6F087A2942448703C16
:1012B30095406834589B78A2F183922D557DD8B11F
:1012C300B4B8A1D09180F270F370F27C80A8F101E0
:1012D300B09887D943D886C988BAA1F20EB8978047
:1012E300F1A9DFDFDFAADFDFDFF2AAC5CDC7A90CD3
:1012F300C92C97979797F1A989264666B0B4BA8007
:10130300ACDEF2CAF1B28C02A9B69800890E161EA1
:10131300B8A9B4992C547CB08AA896365676F1B9FC
:10132300AFB4B083C0B8A89711B18F98B9AFF02408
:101333000844106418F1A329557DAF83B593AFF02A
:10134300002850F1A3869F61A6DADEDFD9FAA386CF
:1013530096DB31A6D9F8DFBAA68FC2C5C7B28CC156
:10136300B8A2DFDFDFA3DFDFDFD8D8F1B8A8B2860A
:10137300B4980D355DB8AA98B0872D353DB2B6BA8D
:10138300AF8C96198F9FA70E161EB49AB8AA872CF6
:10139300547CB9A3DEDFDFA3B180F2C4CDC9F1B8B9
:1013A300A9B499830D355D89B9A32D557DB593A353
:1013B3000E161EA92C547CB8B4B0F19783A81184DF
:1013C300A50998A383F0DA240844106418D8F1A57A
:1013D30029557DA58595021A2E3A565A4048F9F3A8
:1013E300A3D9F8F098832408441064189782A8F1CD
:1013F30011F098A2240844106418DAF3DED883A508
:101403009401D9A302F1A2C3C5C7D8F18492A24D16
:10141300DA2AD84869D92AD86855DA32D85071D926
:1014230032D8705DDA3AD85879D93AD87893A34D3F
:10143300DA2AD84869D92AD86855DA32D85071D906
:1014430032D8705DDA3AD85879D93AD878A88A9AD6
:10145300F02850789EF38818F19F1D98A8D908D8D2
:10146300C89F129EF315A8DA1210D8F1AFC8978758
:1014730034B5B994A421F3D922D8F22DF3D92AD8BB
:10148300F235F3D932D881A4606061D961D86C6830
:1014930069D969D8747071D971D8B1A384193D5DC4
:1014A300A3831A3E5E931030811011B8B0AF8F94AE
:1014B300F2DA3ED8B49AA88729DAF8D8879A35DAC7
:1014C300F8D8879A3DDAF8D8B1B9A49885022E5690
:1014D300A581000C14A397B08AF12DD928D84DD932
:1014E30048D86DD968D8B1840DDA0ED8A32983DA28
:1014F3002C0ED8A3844983DA2C4C0ED8B8B0A88A12
:101503009AF520AADADFD8A840AAD0DADED8A860F4
:10151300AADAD0DFD8F19786A8319B069907AB9753
:1015230028889BF00C201440B8B0B4A88C9CF0041D
:101533002851791D301438B282ABD0982C50507892
:10154300789BF11AB0F08A9CA82951798B2951799B
:101553008A2470598B2058718A4469388B394068C2
:101563008A6448318B304960A588200971584468E2
:10157300113964493019F1AC002C547CF08CA80467
:10158300285078F1889726A85998AC8C022646668D
:10159300F0899CA8295179247059446938644831E9
:1015A300A98809205970AB11384069A819314860DE
:1015B3008CA83C415C207C00F187981986A86E7644
:1015C3007EA999882D557D9EB9A38A228A6E8A5653
:1015D3008A5E9FB183062646660E2E4E6E9DB8AD7B
:1015E300002C547CF2B18CB499B9A32D557D819113
:1015F300AC38AD3AB58391AC2DD928D84DD948D85C
:101603006DD968D88C9DAE29D904AED851D904AE12
:10161300D879D904D881F39DAD008DAE1981ADD9A8
:1016230001D8F2AEDA26D88E912983A7D9ADADAD14
:10163300ADF32AD8D8F1B0AC89913E5E76F3AC2EE7
:101643002EF1B18C5A9CAC2C2828289CAC3018A8BD
:10165300988128343C9724A728343C9C24F2B089F1
:10166300AC912C4C6C8A9B2DD9D8D851D9D8D87928
:10167300D9D8D8F19E88A331DAD8D8912DD928D8D2
:101683004DD948D86DD968D8B18393353D8025DAD3
:10169300D8D88569DAD8D8B49381A328343CF3AB7E
:1016A3008BF8A391B609B4D9ABDEFAB0879CB9A382
:1016B300DDF1A3A3A3A395F1A3A3A39DF1A3A3A3E7
:1016C300A3F2A3B49080F2A3A3A3A3A3A3A3A3A36E
:1016D300A3B2A3A3A3A3A3A3B087B599F1A3A3A381
:1016E30098F1A3A3A3A397A3A3A3A3F39BA3A3DC0F
:1016F300B9A7F1262626D8D8FF037B034CCD6C036C
:10170300AB0336567600680402CB47A202180400E6
:10171300058BC1010C0400000000037F060CC92CDB
:10172300979797038903264666006C0220000240C0
:10173300040000000002440400000000024804000A
:10174300000000024C0400000000025004000000EE
:1017530000025404000000000258040000000002CC
:101763005C040000000002BC040000000001EC0463
:1017730000004000037F060CC92C979797040203CF
:101783000D355D040904872D353D00A301000000DC
:101793000001078601FE074105F120283038077E46
:1017A30001300746019A074704F1283038076C04D3
:1017B300F1283038021602000101B202FFFF019046
:1017C300040923A135016A02060001600800000034
:1017D30000000000000060044000000001620200FD
:0817E30000006004004000005A
:00000001FF
