:100000000200568B098A0A890B7D011202C78F0DE7
:10001000E50D70031200E2AF0C150CEF6028E50D42
:100020006024E50C700343E2201200497809E4756E
:10003000F001120255E5DA120243EF7F0020E102DF
:100040007F018F0D80D1AF0D22E4F517E51760FC1D
:10005000AF18220201EF787FE4F6D8FD758119020E
:10006000009D020155E493A3F8E493A34003F680B6
:1000700001F208DFF48029E493A3F85407240CC8A4
:10008000C333C4540F4420C8834004F4568001464F
:10009000F6DFE4800B010204081020408090035B2F
:1000A000E47E019360BCA3FF543F30E509541FFE7A
:1000B000E493A360010ECF54C025E060A840B8E4EB
:1000C00093A3FAE493A3F8E493A3C8C582C8CAC56E
:1000D00083CAF0A3C8C582C8CAC583CADFE9DEE700
:1000E00080BEE5E2540CF50F5390F3E59454F344CD
:1000F0000CF59475E20375E20775E206E59454F396
:100100004408120135E4F50EE59454F34404120159
:1001100035050EE50EC3940840EE1201494404F57E
:1001200094120149440CF59475E20775E203E50F5A
:100130004403F5E222F5947F057E001202B8539441
:10014000F37F057E001202B8227F057E001202B8FE
:10015000E59454F322E4F5937594FF7595FF759635
:10016000FF7F0212028CE4900000F0D2AF900000FA
:10017000E0F5197B017A007900750C647F071201A4
:10018000B37B017A007900750C647F07120003903D
:100190000000E0F5800519E4FF74002FF582E434D7
:1001A00000F583E0651960057580AA80FE0FBF63C6
:1001B000E880BA8B098A0A890BE4FD1202C7AE07F0
:1001C000AF0C150CEFD39400401FBE011C7809E45E
:1001D00075F00112025512022AF5DA1200498F0D4C
:1001E000E50D30E1DBE4FE80D743E220AF0622C01C
:1001F000E0C0F0C083C082C0D075D000C000C00194
:10020000C002C003C004C005C006C00712034BD023
:1002100007D006D005D004D003D002D001D000D042
:10022000D0D082D083D0F0D0E032BB010689828A60
:1002300083E0225002E722BBFE02E32289828A8306
:10024000E49322BB010689828A83F0225002F722BE
:10025000BBFE01F322FAE6FB0808E6F925F0F618E2
:10026000E6CA3AF622E47513FFF512F511F510858A
:10027000E114E5145401F515E5145402F5167F0A4E
:100280007E001202B8E51560E6AF1422AE077F01CA
:10029000120335AF061202F0E4FF12032A43A6044C
:1002A00043B804E4F5E10F120340C2C2227FFA7E94
:1002B000001202B87FFA7E000000000000EF1F70FD
:1002C000011E144E70F22243E210EF25E04DF5DAE4
:1002D000120049EF7F0130E1027F0022AD07AC063A
:1002E0001202AD1202ADED1D70011C144C70F12212
:1002F000EF25E025E0FFE5E254F34FF5E222EF6061
:100300000443E2802253E27F22EF600443E2402272
:1003100053E2BF22EF600453E2DF2243E22022EFE8
:10032000600453E2EF2243E21022EF700443E20242
:100330002253E2FD22EF600443E2012253E2FE2257
:10034000EF600475E1DF2275E1202285E118E518F0
:0F0350005401F51722EF547FF5D922011900004F
:00000001FF
