:100C42000560C6C2C2C2C20A6701020304050607E2
:100C520008090AC1080171008188008189008101A7
:100C620000C18AC10B818C00818BE5818DF6819058
:100C720000818500818700818E00818F05015FE8F8
:0B0C8200015E030166C80165C8C109DE
:0A0F20008FE7E5E630E1FBAFE722C2
:020ECD00AE0570
:100ECF00C2E9120F20AD07AF06120F20D2E9AF050E
:010EDF0022F0
:0C0F1300C2E9120F20E4FF120F20D2E907
:010F1F0022AF
:060D8E008B098A0A890BA3
:100D9400C2E9120F20AE07E4FDEDC3950C5017E431
:100DA400FF120F20AB09AA0AA90B8D82758300EFED
:0A0DB40012099E0D80E3D2E9AF069C
:010DBE002212
:0B0D1B007B007A0079607515057F2AC7
:060D26008B128A138914F0
:100D2C00C2E9120F20AE07E4FDEDC395155018ABC8
:100D3C00120514E514AA137002051314F91209858F
:0B0D4C00FF120F200D80E2D2E9AF067D
:010D57002279
:100EF200E4F520C208C2E87D0F7F20120ECDD2E8B1
:010F020022CC
:100E1D008E0F8F10C2E87D0E7F20120ECD120D1B8E
:100E2D007B007A0079408510157FA0120D26D2E83F
:0C0E3D00A204720550FA120EF2C28322C9
:03004B00020AACFA
:100AAC00C0E0C083C082C0D075D000C000C001C0FF
:100ABC0002C003C005C006C0077F07120F138F20AA
:100ACC003006317B007A007922750C1E7F61120D85
:100ADC008EE4FD7FE2120ECDD2087F60120F138FD1
:100AEC0071E571D39420400C757100E4FD7FE21226
:100AFC000ECDC208300407E4FD7FE1120ECD3005A7
:100B0C0007E4FD7FE1120ECD7D707F27120ECDD054
:100B1C0007D006D005D003D002D001D000D0D0D061
:060B2C0082D083D0E0320C
:100CD500C2E8D2EA7B007A0079607515057F30128B
:100CE5000D26120D1BE4FD7F21120ECD7D017F2205
:100CF500120ECDE4FD7F24120ECD7D5A7F25120EF6
:100D0500CD7D077F26120ECD7D017F3C120ECD7D58
:060D1500077F3D020ECD38
:100F0300758931758CFF758AFED2A9D2AFD28C2236
:0A0F2A00758931C2A9C28CD2AF2232
:100EE000E4F5D243D1E053D4F0F5D54393075380D2
:020EF000F822E6
:100E49007801E2D3940040197889E22404F8E2FF9A
:100E59007889E204F2E2B47802E4F27801E214F269
:050E690022D20A7F0007
:010E6E002261
:100DBF007801E2FEB47803D20B22C20B7888E224CA
:100DCF0004F8EFF27888E204F2EEC39478500578D5
:0F0DDF0001E204F27888E2B47802E4F2C20A2258
:0A0BA100D2837F887E137D007C0064
:100BAB008F128E118D108C0FE47B02FAF9F812095B
:100BBB00C08F128E118D108C0FE4FFFEFDFCAB125B
:100BCB00AA11A910A80FC3120A0F601B00E512246B
:100BDB00FFF512E51134FFF511E51034FFF510E5C3
:080BEB000F34FFF50F80D22248
:100E6F00E4FDFCC3ED9FEC9E50167BFC7A01EB1B5F
:100E7F008A8370011A458370F50DBD00010C80E364
:010E8F002240
:100E9000EF25E025E02481F5D3E5D330E6FBE5D36B
:100EA00020E6FBE5D4540FFF120DBFAFD5020DBFF6
:070DEE00E4FF120EB08F0EAE
:100DF5007886E2FE14F2EEFD3395E0FCEFC39DEC40
:100E05006480F8748098500F747E2FF8E2FD747D2D
:070E15002FF8EDF20F80DF62
:010E1C0022B3
:03000B00020BF3F2
:100BF300C0E0C0D075D000C000C005C006C00778F3
:100C030090E2FD700C788BE2F58C788DE2F58A80AA
:100C130013787CE270177885E2F58C7887E2F58AA1
:100C2300787CEDF2E4FF120E90B2868005787CE2C8
:0F0C330014F2D007D006D005D000D0D0D0E032D8
:100EB000747D2FF8E2B50506788C7420F2220F7845
:0D0EC00086E2FEEFC39E40E8E4788CF2224B
:060B3200E4788CF27F095B
:100B38008F40A20BE4FE337802C333CE33CED8F90C
:100B4800FF788CE27C002FFFEC3EEFC4F8540FC80E
:100B580068FF7801E2131313541F2FF5417E1AE43E
:100B6800FDEDC39E5021C2AF120E49AC07120E49CB
:100B7800D2AF300A02801074432DF8A60474442DB5
:100B8800F8A6070D0D80DA7800EDF2E2F542E224CE
:090B980003F2E2FF7E00020E1DD3
:100D5800C2087886E2C39408502B788AE2FD65229F
:100D6800701EFF120EB08F16788CE220E517788A75
:100D7800E2FF7886E2247DF8EFF27886E204F22238
:050D8800788AE522F26B
:010D8D002243
:100C8E007890E2787CF28566657593B77594FF75FA
:100C9E0095FFE4F59EF59FF5977888F208F27801B6
:100CAE00F2D20A120F2A7886F2788A74FFF28566DB
:100CBE0065C208D286D2837FA07E867D017C00121B
:070CCE000BABC283C28622BA
:10080000E4F50D120C8E120CD5120EE08047300864
:10081000FDD283E5227047E523B40214E47888F220
:1008200008F27801F2D20A120F03D286C283C208FC
:10083000E523B40305120F2AC208E523B408CF123A
:100840000C8E120CD5120EE0120BA1C283120BA358
:10085000120BA1C283D2AFD2B9120EF280B0E52240
:10086000640970AAE5236401705F788BE524F2784F
:100870008DE525F27890E526F27885E527F27887F0
:10088000E528F2788FE529F218E52AF2852B5E85B6
:100890002C5F788BE2FE788DE27C0024007803F2F6
:1008A000EC3E18F2855F66856665754009754120E6
:1008B0007542017F037E00120E1DD2867F307E7549
:1008C0007D00120BABC286C283E523B40503120B75
:1008D00032E523B415097800E2FF7E00120E1DE513
:1008E00023B4250CC209AD24120DEE120B32C283C3
:1008F000E523B4350C788C7410F27F09120B38C2E2
:1009000083E52364066006E5236426701AE523B4B4
:100910002607C209AD25120DEEAD24E4FF120EB07C
:100920008F0E7F09120B38E5236407600302080E5F
:100930008524407541357F02FE120E1D120EF27F96
:10094000027E00120E6F20080302080EE52354F009
:10095000788CF220E40302080EE4F50DE50DC39552
:100960007150127422250DF8E6FF7440250DF8A68B
:1009700007050D80E7E523540FF541AF717E0012A6
:050980000E1D02080E2F
:03000000020A20D1
:0C0A2000787FE4F6D8FD758171020A674A
:100A2C00020800E493A3F8E493A34003F68001F2D8
:100A3C0008DFF48029E493A3F85407240CC8C333CB
:100A4C00C4540F4420C8834004F456800146F6DF9A
:100A5C00E4800B0102040810204080900C42E47EDC
:100A6C00019360BCA3FF543F30E509541FFEE4938F
:100A7C00A360010ECF54C025E060A840B8E493A356
:100A8C00FAE493A3F8E493A3C8C582C8CAC583CA81
:100A9C00F0A3C8C582C8CAC583CADFE9DEE780BE39
:010C8D000066
:10098500BB010689828A83E0225002E722BBFE0270
:09099500E32289828A83E49322A3
:10099E00F8BB010DE58229F582E5833AF583E8F08F
:1009AE00225006E92582C8F622BBFE05E92582C83B
:0209BE00F22223
:1009C000E88FF0A4CC8BF0A42CFCE98EF0A42CFCD6
:1009D0008AF0EDA42CFCEA8EF0A4CDA8F08BF0A454
:1009E0002DCC3825F0FDE98FF0A42CCD35F0FCEBB3
:1009F0008EF0A4FEA9F0EB8FF0A4CFC5F02ECD3978
:0F0A0000FEE43CFCEAA42DCE35F0FDE43CFC22E4
:100A0F00EB9FF5F0EA9E42F0E99D42F0E89C45F03D
:010A1F0022B4
:00000001FF
