:0A000000020800E475F00102027628
:10000B00020554AE03AC05E4FD12053FAD078CDAD7
:10001B00120649EF30E102E4FDAC061EECD394006E
:10002B004018BD0115780C120003120229F5DA12E3
:10003B000649EF30E1E3E4FD80DF43E220AF052228
:03004B000200565A
:1000530002030DC0E0C083C082C0D075D000C000D1
:10006300C001C002C003C005C006C0077F07120558
:10007300D18F203006317B007A00792275161B7FE1
:10008300611203DEE4FD7FE212057CD2087F601279
:1000930005D18F67E567D39420400C756700E4FDB5
:1000A3007FE212057CC208300407E4FD7FE11205FC
:1000B3007C300507E4FD7FE112057C7D707F27120C
:1000C300057CD007D006D005D003D002D001D000E4
:1000D300D0D0D082D083D0E03212038020820C12A1
:1000E30006351201513082FD12015120941412067B
:1000F3003F7F647E001204C53094FD7F647E00124E
:1001030004C530081FE522B40115E52324F5600A70
:1001130004700C120635D283800512063FC283E4B5
:10012300F520C208D3E5599400E5586480948050C3
:10013300AB750B00750C00750D5F7B067D3B7F680F
:100143001201CC120409755800755901808E7F6421
:100153007E001204C522E5E2540CF5115390F3E539
:100163009454F3440CF59475E20375E20775E206C3
:10017300E59454F344081201ACE4F510E59454F308
:1001830044041201AC0510E510C3940840EE1201BB
:10019300C04404F5941201C0440CF59475E207754C
:1001A300E203E5114403F5E222F5947F057E001294
:1001B30005305394F37F057E00120530227F057EC0
:1001C30000120530E59454F3228B0AAE07AC05E424
:1001D300FD12053F8F0F8CDA1206498F0EE50E30A4
:1001E300E103E4F50FAF067D0112053F8F0FE50F25
:1001F3007003120159AF0A150AEF6027E50F602358
:10020300E50A700343E2201206498F0E780B1200B1
:1002130003E5DA120242E50E7F0020E1027F018F3F
:100223000F80D2AF0F22BB010689828A83E022505E
:1002330002E722BBFE02E32289828A83E49322BB84
:10024300010689828A83F0225002F722BBFE01F362
:1002530022F8BB010DE58229F582E5833AF583E8AF
:10026300F0225006E92582C8F622BBFE05E9258265
:10027300C8F222FAE6FB0808E6F925F0F618E6CA02
:100283003AF622C2E8D2EA1205077F30120431128D
:1002930005077F2A1204317D017F2212057CE4FDCC
:1002A3007F2112057CE4FD7F2412057C7D287F25B8
:1002B30012057C7D077F2612057C7D017F3C12059C
:1002C3007C7D077F3D02057C8B708A7189727D017D
:1002D30012053F8F74E5747003120159AF731573E0
:1002E300EF6024E5746020E573700343E220120697
:1002F300497870120003E5DA120242EF7F0020E131
:10030300027F018F7480D5AF7422C0E0C0F0C08338
:10031300C082C0D075D000C000C001C002C003C0FD
:1003230004C005C006C007120653D007D006D00587
:10033300D004D003D002D001D000D0D0D082D0835B
:10034300D0F0D0E0328B6A8A6B896CE4FD12053FF2
:10035300AE07AF6D156DEFD39400401BBE01187847
:100363006A120003120229F5DA1206498F6EE56E4E
:1003730030E1DFE4FE80DB43E220AF06227593B772
:100383007594FF7595FFE4F59EF59FF597C2E8D246
:10039300EAD2B91202861205A17F021204E6D2AF95
:1003A30012047FE4FB7D6B7F681205B2B286228E56
:1003B300088F09C2E87D0E7F2012057C1205077F96
:1003C3002A1204317B007A00793D85090E7FA01241
:1003D3000431D2E8A204720550FA228B138A1489DD
:1003E3001512051BEDC395165017E4FF12062BAB30
:1003F30013AA14A9158D82758300EF1202540D8080
:10040300E3D2E9AF0622753D017F017E00745E2FC2
:10041300F8E6FD743D2FF8A6050FBF00010EEF644B
:10042300074E70E97F077E001203B20205A18B0B12
:100433008A0C890D12051BEDC3950E5013780BE43E
:1004430075F001120276120229FF12062B0D80E7C6
:10045300D2E9AF0622E4751AFFF519F518F51785E9
:10046300E11BE51B5401F51CE51B5402F51D7F0A36
:100473007E00120530E51C60E6AF1B22D283C286E4
:100483007FE87E03120568C283120499D2831204A3
:1004930099C283C28622D2867FE87E031205682230
:1004A300055AE7E7E7E7E7C108016700065F0005CC
:1004B300008000FF0165CB0166EA01680002580075
:1004C3000100E4FDFCC3ED9FEC9E50167BFC7A011A
:1004D300EB1B8A8370011A458370F50DBD00010C77
:1004E30080E322AE077F01120615AF061205C3E4AF
:1004F300FF12060A43A60443B804E4F5E10F12060B
:1005030020C2C2227B007A00795A750E05227589B2
:100513003185658C85668A22C2E912062BAE07E413
:10052300FD227FFA7E001205307FFA7E0000000074
:100533000000EF1F70011E144E70F22243E210EF11
:1005430025E04DF5DA120649EF7F0130E1027F0025
:1005530022C0E0E568700BE5591559700215581271
:100563000514D0E032AD07AC06120525120525EDC2
:100573001D70011C144C70F122AE05C2E912062B4A
:10058300AD07AF0612062BD2E9AF05228B758A762B
:1005930089778B0B8A0C890D7B011201CC22E4F540
:1005A30020C208C2E87D0F7F2012057CD2E8228B8F
:1005B30008750C00750D00750E087B0112000E22E4
:1005C300EF25E025E0FFE5E254F34FF5E222C2E92F
:1005D30012062BE4FF12062BD2E922EF600443E25A
:1005E300802253E27F22EF600443E2402253E2BFC2
:1005F30022EF600453E2DF2243E22022EF60045340
:10060300E2EF2243E21022EF700443E2022253E2BC
:10061300FD22EF600443E2012253E2FE22EF600475
:1006230075E1DF2275E120228FE7E5E630E1FBAFDC
:10063300E722120511D2A9D2AFD28C22120511C220
:10064300A9D2AFC28C22E4F51EE51E60FCAF1F22C7
:1006530085E11FE51F5401F51E22EF547FF5D922D2
:10080000787FE4F6D8FD7581770208470200DCE4C2
:1008100093A3F8E493A34003F68001F208DFF48089
:1008200029E493A3F85407240CC8C333C4540F44D9
:1008300020C8834004F456800146F6DFE4800B01B3
:10084000020408102040809004A3E47E019360BC61
:10085000A3FF543F30E509541FFEE493A360010E4B
:10086000CF54C025E060A840B8E493A3FAE493A372
:10087000F8E493A3C8C582C8CAC583CAF0A3C8C593
:0C08800082C8CAC583CADFE9DEE780BE7B
:00000001FF
