:0300000002004EAD
:0C004E00787FE4F6D8FD75813002009543
:100466007265636570746F72206C696761646F0092
:1003EA000515E7E7E7E7E7C108011A000D0801006C
:0B03FA000100020003000100020003EC
:0A048F008FE7E5E630E1FBAFE7225E
:02042000AE0527
:10042200C2E912048FAD07AF0612048FD2E9AF05FD
:0104320022A7
:0C047600C2E912048FE4FF12048FD2E9E7
:010482002257
:06030E008B288A29892AD0
:10031400C2E912048FAE07E4FDEDC3952B5017E438
:10032400FF12048FAB28AA29A92A8D82758300EFB6
:0A0334001201A60D80E3D2E9AF0626
:01033E00229C
:0B029A007B007A0079157526057F2A8D
:0602A5008B238A24892549
:1002AB00C2E912048FAE07E4FDEDC395265018ABDF
:1002BB00230525E525AA247002052414F9120160F3
:0B02CB00FF12048F0D80E2D2E9AF06A5
:0102D6002205
:10043300E4F520C208C2E87D0F7F20120420D2E831
:010443002296
:10033F008E2F8F30C2E87D0E7F2012042012029A7A
:10034F007B017A0079208530267FA01202A5D2E8A2
:07035F00A204720550FA220E
:03004B000200DAD6
:1000DA00C0E0C083C082C0D075D000C000C001C0DB
:1000EA0002C003C005C006C0077F071204768F202E
:1000FA003006317B017A007900752B207F6112036B
:10010A000EE4FD7FE2120420D2087F601204768F8B
:10011A001AE51AD39420400C751A00E4FD7FE21206
:10012A000420C208300407E4FD7FE11204203005F0
:10013A0007E4FD7FE11204207D707F27120420D09E
:10014A0007D006D005D003D002D001D000D0D0D03D
:06015A0082D083D0E032E8
:10000300C2E8D2EA7B007A0079157526057F3012A3
:1000130002A512029A7D017F22120420E4FD7F21B2
:10002300120420E4FD7F241204207D287F2512047E
:10003300207D077F261204207D017F3C1204207D52
:06004300077F3D020420CE
:0C048300C2E8D2EAD2B91200030204332E
:10040600C2ACD29CC29FD29E43878043D88075AA35
:0A041600F375BA03C299E4F59922C8
:09044400AE077F5312044DAF0610
:08044D003099FDC2998F99223C
:100366008B2C8A2D892EAB2CAA2DA92E120160600A
:1003760013052EE52E7002052D14F9120160FF12E9
:05038600044D80E2229D
:0601C8008B1C8A1D891E3C
:1001CE00900020EFF0A37401F07F027E00E51F2463
:1001DE0002FDE433FCC3EF9DEE9C5027AB1CAA1D21
:1001EE00A91E74FE2FF58274FF3EF583120179FD70
:1001FE0074202FF58274003EF583EDF00FBF0001E1
:0D020E000E80CAAF1F7E0012033F020433B2
:0602D7008B238A24892517
:1002DD00120444AF2612044DE4FDFCC3ED9526EC4B
:1002ED0094005018AB23AA24A9258D828C8312016A
:1002FD0079FF12044D0DBD00010C80DF7F04020457
:01030D004DA2
:06025C008B238A24892592
:10026200120444E52604FF12044D7F0112044DE4FA
:10027200FDFCC3ED9526EC94005018AB23AA24A9EB
:10028200258D828C83120179FF12044D0DBD000170
:080292000C80DF7F0402044D23
:100455007593B77594FF7595FFE4F59EF59FF59730
:010465002274
:1003CE00120455120483120406D2AF1203B07BFF3F
:0C03DE007A04796675260F7F0902025C24
:10021B001203CE2082177B007A00790875260D7F9A
:10022B000A12025C12038B3082FD12038B2094178F
:10023B007B007A00790875260D7F041202D7120312
:10024B008B3094FD12038B3008C9E4F520C2088073
:01025B00C2E0
:1003B000D2867FE87E0312038FC2867FE87E031217
:0E03C000038FD2867FE87E0312038FC286224F
:04038B007F647E000D
:10038F00E4FDFCC3ED9FEC9E50167BFC7A01EB1B4A
:10039F008A8370011A458370F50DBD00010C80E34F
:0103AF00222B
:10005A0002021BE493A3F8E493A34003F68001F29F
:10006A0008DFF48029E493A3F85407240CC8C333A7
:10007A00C4540F4420C8834004F456800146F6DF76
:10008A00E4800B01020408102040809003EAE47E19
:10009A00019360BCA3FF543F30E509541FFEE4936B
:1000AA00A360010ECF54C025E060A840B8E493A332
:1000BA00FAE493A3F8E493A3C8C582C8CAC583CA5D
:1000CA00F0A3C8C582C8CAC583CADFE9DEE780BE15
:0104050000F6
:10016000BB010689828A83E0225002E722BBFE029D
:09017000E32289828A83E49322D0
:10017900BB010CE58229F582E5833AF583E022503B
:1001890006E92582F8E622BBFE06E92582F8E22285
:0D019900E58229F582E5833AF583E493229F
:1001A600F8BB010DE58229F582E5833AF583E8F08F
:1001B600225006E92582C8F622BBFE05E92582C83B
:0201C600F22223
:00000001FF
