:0300000002004EAD
:0C004E00787FE4F6D8FD75813002009543
:100470007265636570746F72206C696761646F0088
:1003F4000515E7E7E7E7E7C108011A000D08010062
:0B0404000100020003000100020003E1
:0A0499008FE7E5E630E1FBAFE72254
:02042A00AE051D
:10042C00C2E9120499AD07AF06120499D2E9AF05DF
:01043C00229D
:0C048000C2E9120499E4FF120499D2E9C9
:01048C00224D
:060318008B288A29892AC6
:10031E00C2E9120499AE07E4FDEDC3952B5017E424
:10032E00FF120499AB28AA29A92A8D82758300EFA2
:0A033E001201A60D80E3D2E9AF061C
:010348002292
:0B02DB007B007A0079157526057F2A4C
:0602E6008B238A24892508
:1002EC00C2E9120499AE07E4FDEDC395265018AB94
:1002FC00230525E525AA247002052414F9120160B2
:0B030C00FF1204990D80E2D2E9AF0659
:0103170022C3
:10043D00E4F520C208C2E87D0F7F2012042AD2E81D
:01044D00228C
:100349008E2F8F30C2E87D0E7F2012042A1202DB25
:100359007B017A0079208530267FA01202E6D2E857
:07036900A204720550FA2204
:03004B000200DAD6
:1000DA00C0E0C083C082C0D075D000C000C001C0DB
:1000EA0002C003C005C006C0077F071204808F2024
:1000FA003006317B017A007900752B207F6112036B
:10010A0018E4FD7FE212042AD2087F601204808F6D
:10011A001AE51AD39420400C751A00E4FD7FE21206
:10012A00042AC208300407E4FD7FE112042A3005DC
:10013A0007E4FD7FE112042A7D707F2712042AD08A
:10014A0007D006D005D003D002D001D000D0D0D03D
:06015A0082D083D0E032E8
:10000300C2E8D2EA7B007A0079157526057F3012A3
:1000130002E61202DB7D017F2212042AE4FD7F2126
:1000230012042AE4FD7F2412042A7D287F2512046A
:100033002A7D077F2612042A7D017F3C12042A7D34
:06004300077F3D02042AC4
:0C048D00C2E8D2EAD2B912000302043D1A
:10041000C2ACD29CC29FD29E43878043D88075AA2B
:0A042000F375BA03C299E4F59922BE
:09044E00AE077F53120457AF06FC
:080457003099FDC2998F992232
:100370008B2C8A2D892EAB2CAA2DA92E1201606000
:1003800013052EE52E7002052D14F9120160FF12DF
:05039000045780E22289
:0601C8008B1C8A1D891E3C
:1001CE00900020EFF0A37402F0FF7E00E51F2402E2
:1001DE00FDE433FCC3EF9DEE9C5027AB1CAA1DA97A
:1001EE001E74FE2FF58274FF3EF583120179FD74A5
:1001FE00202FF58274003EF583EDF00FBF00010E47
:10020E0080CAE51F2402FFE433FE12034902043DB7
:06025F008B238A2489258F
:1002650012044EAF261204577D017C00E5262401B9
:10027500FFE433FEC3ED9FEC9E5018AB23AA24A9DF
:10028500258D828C83120179FF1204570DBD000163
:080295000C80D97F040204571C
:06029D008B238A24892551
:1002A30012044EE52604FF1204577F02120457E49A
:1002B300FDFCC3ED9526EC94005018AB23AA24A9AA
:1002C300258D828C83120179FF1204570DBD000125
:0802D3000C80DF7F04020457D8
:10045F007593B77594FF7595FFE4F59EF59FF59726
:01046F00226A
:1003D80012045F12048D120410D2AF1203BA7BFF0D
:0C03E8007A04797075260F7F0902029DCF
:10021E001203D82082177B007A00790875260D7F8D
:10022E000A12029D1203953082FD12039520941737
:10023E007B007A00790875260D7F0412025F120387
:10024E00953094FD1203953008C9E4F520C208805C
:01025E00C2DD
:1003BA00D2867FE87E03120399C2867FE87E031203
:0E03CA000399D2867FE87E03120399C2862231
:040395007F647E0003
:10039900E4FDFCC3ED9FEC9E50167BFC7A01EB1B40
:1003A9008A8370011A458370F50DBD00010C80E345
:0103B9002221
:10005A0002021EE493A3F8E493A34003F68001F29C
:10006A0008DFF48029E493A3F85407240CC8C333A7
:10007A00C4540F4420C8834004F456800146F6DF76
:10008A00E4800B01020408102040809003F4E47E0F
:10009A00019360BCA3FF543F30E509541FFEE4936B
:1000AA00A360010ECF54C025E060A840B8E493A332
:1000BA00FAE493A3F8E493A3C8C582C8CAC583CA5D
:1000CA00F0A3C8C582C8CAC583CADFE9DEE780BE15
:01040F0000EC
:10016000BB010689828A83E0225002E722BBFE029D
:09017000E32289828A83E49322D0
:10017900BB010CE58229F582E5833AF583E022503B
:1001890006E92582F8E622BBFE06E92582F8E22285
:0D019900E58229F582E5833AF583E493229F
:1001A600F8BB010DE58229F582E5833AF583E8F08F
:1001B600225006E92582C8F622BBFE05E92582C83B
:0201C600F22223
:00000001FF
