:0300000002016C8E
:0C016C00787FE4F6D8FD7581210201B314
:1002BB007265636570746F72206C696761646F0A35
:1002CB000073696E616C207265717565737420655E
:1002DB006E766961646F0A0073696E616C206C6580
:0C02EB00647320656E766961646F0A0020
:0C0481000514E7E7E7E7E7C108011B00EE
:0A049A008FE7E5E630E1FBAFE72253
:02043F00AE0508
:10044100C2E912049AAD07AF0612049AD2E9AF05C8
:010451002288
:0C047400C2E912049AE4FF12049AD2E9D3
:010480002259
:060332008B108A118912F4
:10033800C2E912049AAE07E4FDEDC395135017E421
:10034800FF12049AAB10AA11A9128D82758300EFCF
:0A0358001203100D80E3D2E9AF0696
:010362002278
:0B027E007B007A007914750E057F2AC2
:060289008B0B8A0C890DAD
:10028F00C2E912049AAE07E4FDEDC3950E5018AB08
:10029F000B050DE50DAA0C7002050C14F91202F7EF
:0B02AF00FF12049A0D80E2D2E9AF06B6
:0102BA002221
:10045200E4F520C208C2E87D0F7F2012043FD2E8F3
:010462002277
:06036300A3F07F027E0002
:100369008E088F09C2E87D0E7F2012043F12027E9B
:100379007B017A00792085090E7FA0120289D2E8D3
:07038900A204720550FA22E4
:03004B000201F8B7
:1001F800C0E0C083C082C0D075D000C000C001C0BC
:1002080002C003C005C006C0077F071204748F2010
:100218003006317B017A0079007513207F61120363
:1002280032E4FD7FE212043FD2087F601204748F2B
:100238001BE51BD39420400C751B00E4FD7FE212E4
:10024800043FC208300407E4FD7FE112043F300593
:1002580007E4FD7FE112043F7D707F2712043FD041
:1002680007D006D005D003D002D001D000D0D0D01E
:0602780082D083D0E032C9
:10000300C2E8D2EA7B007A007914750E057F3012BC
:10001300028912027E7D017F2212043FE4FD7F21CB
:1000230012043FE4FD7F2412043F7D287F25120440
:100033003F7D077F2612043F7D017F3C12043F7DF5
:06004300077F3D02043FAF
:100463007593B77594FF7595FFE4F59EF59FF59722
:010473002266
:0C048E00C2E8D2EAD2B912000302045204
:1004120012046312048E1203F8D2AF1203DA7BFFC6
:070422007A0279BB0203908E
:10004E001204122082209000207401F0740A120310
:10005E00631204527BFF7A0279CC1203901203B51D
:10006E003082FD1203B52094229000207401F074AA
:10007E000B1203631204527BFF7A0279E312039090
:10008E00C2861203B53094FD1203B53008B5900048
:10009E0000E064017031E51B640D702B7F53120478
:1000AE00377F991204377F0D120437E4F519F51ACC
:1000BE00120429051AE51A70020519C3940DE519E3
:1000CE00940040EC020140900000E06497702F7F96
:1000DE00531204377F97120437AF1B12043775196A
:1000EE0000751A01C3E51A951BE5199400500D12FF
:1000FE000429051AE51A70EC051980E88034900081
:10010E0000E0642270337F531204377F22120437CB
:10011E00AF1B120437E4F519F51AC3E51A951BE562
:10012E00199400500D120429051AE51A70EC0519E0
:10013E0080E87F04120437801DE4F519F51AC3E533
:10014E001A951BE5199400500D120429051AE51A8B
:0E015E0070EC051980E8E4F520C2080200519B
:1003F800C2ACD29CC29FD29E43878043D88075AA44
:0A040800F375BA03C299E4F59922D6
:0E0429007400251AF58274003519F583E0FF82
:080437003099FDC2998F992252
:100390008B088A09890AAB08AA09A90A1202F76020
:1003A00013050AE50A7002050914F91202F7FF1293
:0503B000043780E22289
:1003DA00D2867FE87E031203B9C2867FE87E0312C3
:0E03EA0003B9D2867FE87E031203B9C28622D1
:0403B5007F647E00E3
:1003B900E4FDFCC3ED9FEC9E50167BFC7A01EB1B20
:1003C9008A8370011A458370F50DBD00010C80E325
:0103D9002201
:1001780002004EE493A3F8E493A34003F68001F24F
:1001880008DFF48029E493A3F85407240CC8C33388
:10019800C4540F4420C8834004F456800146F6DF57
:1001A800E4800B0102040810204080900481E47E62
:1001B800019360BCA3FF543F30E509541FFEE4934C
:1001C800A360010ECF54C025E060A840B8E493A313
:1001D800FAE493A3F8E493A3C8C582C8CAC583CA3E
:1001E800F0A3C8C582C8CAC583CADFE9DEE780BEF6
:01048D00006E
:1002F700BB010689828A83E0225002E722BBFE0205
:09030700E32289828A83E4932237
:10031000F8BB010DE58229F582E5833AF583E8F023
:10032000225006E92582C8F622BBFE05E92582C8CF
:02033000F222B7
:00000001FF
