:0300000002004EAD
:0C004E00787FE4F6D8FD7581240200954F
:100309007265636570746F72206C696761646F00F0
:1003190053696E616C207265717565737420656EC1
:10032900766961646F0053696E616C206C656473F2
:0903390020656E766961646F00B5
:0C04C9000514E7E7E7E7E7C108011900A8
:0A04E2008FE7E5E630E1FBAFE7220B
:02047600AE05D1
:10047800C2E91204E2AD07AF061204E2D2E9AF0501
:010488002251
:0C04BC00C2E91204E2E4FF1204E2D2E9FB
:0104C8002211
:06037A008B108A118912AC
:10038000C2E91204E2AE07E4FDEDC395135017E491
:10039000FF1204E2AB10AA11A9128D82758300EF3F
:0A03A0001202190D80E3D2E9AF0646
:0103AA002230
:0B02CC007B007A007914750E057F2A74
:0602D7008B0B8A0C890D5F
:1002DD00C2E91204E2AE07E4FDEDC3950E5018AB72
:1002ED000B050DE50DAA0C7002050C14F91201D3C6
:0B02FD00FF1204E20D80E2D2E9AF0620
:0103080022D2
:10048900E4F520C208C2E87D0F7F20120476D2E885
:010499002240
:0603AB00A3F07F027E00BA
:1003B1008E088F09C2E87D0E7F201204761202CCCE
:1003C1007B017A00792085090E7FA01202D7D2E83D
:0703D100A204720550FA229C
:03004B000200DAD6
:1000DA00C0E0C083C082C0D075D000C000C001C0DB
:1000EA0002C003C005C006C0077F071204BC8F20E8
:1000FA003006317B017A0079007513207F61120383
:10010A007AE4FD7FE2120476D2087F601204BC8F83
:10011A0019E519D39420400C751900E4FD7FE21209
:10012A000476C208300407E4FD7FE1120476300544
:10013A0007E4FD7FE11204767D707F27120476D0F2
:10014A0007D006D005D003D002D001D000D0D0D03D
:06015A0082D083D0E032E8
:10000300C2E8D2EA7B007A007914750E057F3012BC
:1000130002D71202CC7D017F22120476E4FD7F21F8
:10002300120476E4FD7F241204767D287F251204D2
:10003300767D077F261204767D017F3C1204767D50
:06004300077F3D02047678
:0C04D600C2E8D2EAD2B912000302048985
:10045C00C2ACD29CC29FD29E43878043D88075AADF
:0A046C00F375BA03C299E4F5992272
:09049A00AE077F531204A3AF0664
:0804A3003099FDC2998F9922E6
:1003D8008B228A238924AB22AA23A9241201D36061
:1003E800130524E5247002052314F91201D3FF1222
:0503F80004A380E222D5
:06023B008B1B8A1C891DCB
:10024100900020EFF0A37401F07F027E00E51E24F0
:1002510002FDE433FCC3EF9DEE9C5027AB1BAA1CAF
:10026100A91D74FE2FF58274FF3EF5831201ECFD8A
:1002710074202FF58274003EF583EDF00FBF00016D
:0D0281000E80CAAF1E7E001203B102048978
:060342008B098A0A890BF9
:1003480012049AAF0C1204A37D017C00C3ED950C36
:10035800EC94005018AB09AA0AA90B8D828C831261
:1003680001ECFF1204A30DBD00010C80DF7F040225
:0203780004A3DC
:06028E008B098A0A890BAE
:1002940012049AE50C04FF1204A37F011204A3E4E0
:1002A400FDFCC3ED950CEC94005018AB09AA0AA907
:1002B4000B8D828C831201ECFF1204A30DBD00018F
:0802C4000C80DF7F040204A39B
:1004AB007593B77594FF7595FFE4F59EF59FF597DA
:0104BB00221E
:100440001204AB1204D612045CD2AF1204227BFF5A
:0C0450007A037909750C0F7F0902028EF7
:100160001204402082259000207401F0740A1203CA
:10017000AB1204897BFF7A037919750C157F09127C
:10018000028E1203FD3082FD1203FD2094279000A1
:10019000207401F0740B1203AB1204897BFF7A0305
:1001A000792F750C127F0912028EC2861203FD3060
:1001B00094FD1203FD3008AB900000E0FF7B017A54
:1001C000007900E51914F50C120342E4F520C20889
:0301D000020163C6
:10042200D2867FE87E03120401C2867FE87E031231
:0E0432000401D2867FE87E03120401C28622F6
:0403FD007F647E009B
:10040100E4FDFCC3ED9FEC9E50167BFC7A01EB1BD7
:100411008A8370011A458370F50DBD00010C80E3DC
:0104210022B8
:10005A00020160E493A3F8E493A34003F68001F25B
:10006A0008DFF48029E493A3F85407240CC8C333A7
:10007A00C4540F4420C8834004F456800146F6DF76
:10008A00E4800B01020408102040809004C9E47E39
:10009A00019360BCA3FF543F30E509541FFEE4936B
:1000AA00A360010ECF54C025E060A840B8E493A332
:1000BA00FAE493A3F8E493A3C8C582C8CAC583CA5D
:1000CA00F0A3C8C582C8CAC583CADFE9DEE780BE15
:0104D5000026
:1001D300BB010689828A83E0225002E722BBFE022A
:0901E300E32289828A83E493225D
:1001EC00BB010CE58229F582E5833AF583E02250C8
:1001FC0006E92582F8E622BBFE06E92582F8E22212
:0D020C00E58229F582E5833AF583E493222B
:10021900F8BB010DE58229F582E5833AF583E8F01B
:10022900225006E92582C8F622BBFE05E92582C8C7
:02023900F222AF
:00000001FF
