:0C0B0800055EE7E7E7E7E7C108016300CE
:0A0B15008FE7E5E630E1FBAFE722D1
:020AD700AE056A
:100AD900C2E9120B15AD07AF06120B15D2E9AF0526
:010AE90022EA
:0C0AFB00C2E9120B15E4FF120B15D2E942
:010B070022CB
:060A13008B098A0A890B21
:100A1900C2E9120B15AE07E4FDEDC3950C5017E4BE
:100A2900FF120B15AB09AA0AA90B8D82758300EF7A
:0A0A39001209F10D80E3D2E9AF06C7
:010A43002290
:0B099B007B007A00795E7513057F2A4F
:0609A6008B108A1189127A
:1009AC00C2E9120B15AE07E4FDEDC395135018AB5D
:1009BC00100512E512AA117002051114F91209D8CA
:0B09CC00FF120B150D80E2D2E9AF0610
:0109D70022FD
:100AEA00E4F520C208C2E87D0F7F20120AD7D2E8B7
:010AFA0022D9
:100A73008E0D8F0EC2E87D0E7F20120AD712099BBE
:100A83007B007A007940850E137FA01209A6D2E875
:070A9300A204720550FA22D3
:03004B0002088C1C
:10088C00C0E0C083C082C0D075D000C000C001C021
:10089C0002C003C005C006C0077F07120AFB8F20E9
:1008AC003006317B007A007922750C1E7F61120AAA
:1008BC0013E4FD7FE2120AD7D2087F60120AFB8F85
:1008CC0063E563D39420400C756300E4FD7FE21272
:1008DC000AD7C208300407E4FD7FE1120AD73005BD
:1008EC0007E4FD7FE1120AD77D707F27120AD7D06B
:1008FC0007D006D005D003D002D001D000D0D0D084
:06090C0082D083D0E0322E
:10091200C2E8D2EA7B007A00795E7513057F301255
:1009220009A612099B7D017F22120AD7E4FD7F21CD
:10093200120AD7E4FD7F24120AD77D287F25120AE6
:10094200D77D077F26120AD77D017F3C120AD77D09
:06095200077F3D020AD7F9
:100A44002082147540017F017E00120A73120AEAA3
:100A54007F2C7E01120AA02094147540027F017E2F
:0F0A640000120A73120AEA7F2C7E01120AA022E6
:100AC100D283C286120A9CC283120A9AD283120A64
:060AD1009AC283C28622D6
:100958007593B77594FF7595FFE4F59EF59FF59728
:10096800120AC1C2E8D2EAD2B9120912D2AF120AE7
:10097800EA120A4430080FE52224FE6007047006D4
:10098800B2838002B286E4F520C2087F64FE120AB0
:03099800A080DE5E
:060A9A00D2867FE87E0316
:100AA000E4FDFCC3ED9FEC9E50167BFC7A01EB1B32
:100AB0008A8370011A458370F50DBD00010C80E337
:010AC0002213
:03000000020800F3
:0C080000787FE4F6D8FD7581630208479C
:10080C00020958E493A3F8E493A34003F68001F2A1
:10081C0008DFF48029E493A3F85407240CC8C333ED
:10082C00C4540F4420C8834004F456800146F6DFBC
:10083C00E4800B0102040810204080900B08E47E39
:10084C00019360BCA3FF543F30E509541FFEE493B1
:10085C00A360010ECF54C025E060A840B8E493A378
:10086C00FAE493A3F8E493A3C8C582C8CAC583CAA3
:10087C00F0A3C8C582C8CAC583CADFE9DEE780BE5B
:010B140000E0
:1009D800BB010689828A83E0225002E722BBFE021D
:0909E800E32289828A83E4932250
:1009F100F8BB010DE58229F582E5833AF583E8F03C
:100A0100225006E92582C8F622BBFE05E92582C8E7
:020A1100F222CF
:00000001FF
